{"abi":[{"type":"constructor","inputs":[{"name":"HyperlaneMailbox","type":"address","internalType":"address"}],"stateMutability":"nonpayable"},{"type":"function","name":"executeOrder","inputs":[],"outputs":[],"stateMutability":"nonpayable"},{"type":"function","name":"handle","inputs":[{"name":"_origin","type":"uint32","internalType":"uint32"},{"name":"_sender","type":"bytes32","internalType":"bytes32"},{"name":"_data","type":"bytes","internalType":"bytes"}],"outputs":[],"stateMutability":"payable"},{"type":"event","name":"ReceivedMessage","inputs":[{"name":"origin","type":"uint256","indexed":false,"internalType":"uint256"},{"name":"sender","type":"address","indexed":false,"internalType":"address"},{"name":"value","type":"uint256","indexed":false,"internalType":"uint256"},{"name":"data","type":"string","indexed":false,"internalType":"string"}],"anonymous":false}],"bytecode":{"object":"0x6080604052348015600e575f5ffd5b50604051610437380380610437833981016040819052602b91604e565b5f80546001600160a01b0319166001600160a01b03929092169190911790556079565b5f60208284031215605d575f5ffd5b81516001600160a01b03811681146072575f5ffd5b9392505050565b6103b1806100865f395ff3fe608060405260043610610028575f3560e01c806355d28cd11461002c57806356d5d4751461003b575b5f5ffd5b348015610037575f5ffd5b505b005b6100396100493660046100d0565b5f546001600160a01b0316331461005e575f5ffd5b5f546001600160a01b0384811691161480159061008457508363ffffffff1662066eee14155b1561008d575f5ffd5b5f8061009b8385018561016f565b600180546001600160a01b0319166001600160a01b038416179055909250905060026100c782826102c1565b50505050505050565b5f5f5f5f606085870312156100e3575f5ffd5b843563ffffffff811681146100f6575f5ffd5b93506020850135925060408501356001600160401b03811115610117575f5ffd5b8501601f81018713610127575f5ffd5b80356001600160401b0381111561013c575f5ffd5b87602082840101111561014d575f5ffd5b949793965060200194505050565b634e487b7160e01b5f52604160045260245ffd5b5f5f60408385031215610180575f5ffd5b82356001600160a01b0381168114610196575f5ffd5b915060208301356001600160401b038111156101b0575f5ffd5b8301601f810185136101c0575f5ffd5b80356001600160401b038111156101d9576101d961015b565b604051601f8201601f19908116603f011681016001600160401b03811182821017156102075761020761015b565b60405281815282820160200187101561021e575f5ffd5b816020840160208301375f602083830101528093505050509250929050565b600181811c9082168061025157607f821691505b60208210810361026f57634e487b7160e01b5f52602260045260245ffd5b50919050565b601f8211156102bc57805f5260205f20601f840160051c8101602085101561029a5750805b601f840160051c820191505b818110156102b9575f81556001016102a6565b50505b505050565b81516001600160401b038111156102da576102da61015b565b6102ee816102e8845461023d565b84610275565b6020601f821160018114610320575f83156103095750848201515b5f19600385901b1c1916600184901b1784556102b9565b5f84815260208120601f198516915b8281101561034f578785015182556020948501946001909201910161032f565b508482101561036c57868401515f19600387901b60f8161c191681555b50505050600190811b0190555056fea264697066735822122001d6a5027a2c5ab6bdd49c3b21b3f70454dd1cba7ce79d90915c5260c225f5fa64736f6c634300081c0033","linkReferences":{}},"methodIdentifiers":{"executeOrder()":"55d28cd1","handle(uint32,bytes32,bytes)":"56d5d475"},"id":19}