{"abi":[{"type":"function","name":"doRevert","inputs":[],"outputs":[],"stateMutability":"pure"},{"type":"function","name":"getFoo","inputs":[],"outputs":[{"name":"","type":"uint256","internalType":"uint256"}],"stateMutability":"view"},{"type":"function","name":"invokeDoRevertViaStorageAccessible","inputs":[{"name":"target","type":"address","internalType":"contract StorageAccessible"}],"outputs":[],"stateMutability":"nonpayable"},{"type":"function","name":"invokeStaticDelegatecall","inputs":[{"name":"target","type":"address","internalType":"contract ViewStorageAccessible"},{"name":"encodedCall","type":"bytes","internalType":"bytes"}],"outputs":[{"name":"","type":"uint256","internalType":"uint256"}],"stateMutability":"view"},{"type":"function","name":"setAndGetFoo","inputs":[{"name":"foo_","type":"uint256","internalType":"uint256"}],"outputs":[{"name":"","type":"uint256","internalType":"uint256"}],"stateMutability":"nonpayable"}],"bytecode":{"object":"0x6080604052348015600e575f5ffd5b5061043e8061001c5f395ff3fe608060405234801561000f575f5ffd5b5060043610610054575f3560e01c8062e4b256146100585780630557ebe41461006d578063243dc8da146100945780636e76e8aa1461009b578063afc874d2146100ae575b5f5ffd5b61006b6100663660046101f3565b6100b5565b005b61008261007b366004610215565b5f81905590565b60405190815260200160405180910390f35b5f54610082565b6100826100a936600461022c565b61014d565b61006b5f5ffd5b6040805160048082526024820183526020820180516001600160e01b03166357e43a6960e11b179052915163f84436bd60e01b81526001600160a01b0384169263f84436bd92610107923092016102aa565b5f604051808303815f875af1158015610122573d5f5f3e3d5ffd5b505050506040513d5f823e601f3d908101601f191682016040526101499190810190610302565b5050565b5f5f846001600160a01b031663f84436bd3086866040518463ffffffff1660e01b815260040161017f939291906103b2565b5f60405180830381865afa158015610199573d5f5f3e3d5ffd5b505050506040513d5f823e601f3d908101601f191682016040526101c09190810190610302565b8060200190518101906101d391906103f1565b95945050505050565b6001600160a01b03811681146101f0575f5ffd5b50565b5f60208284031215610203575f5ffd5b813561020e816101dc565b9392505050565b5f60208284031215610225575f5ffd5b5035919050565b5f5f5f6040848603121561023e575f5ffd5b8335610249816101dc565b925060208401356001600160401b03811115610263575f5ffd5b8401601f81018613610273575f5ffd5b80356001600160401b03811115610288575f5ffd5b866020828401011115610299575f5ffd5b939660209190910195509293505050565b60018060a01b0383168152604060208201525f82518060408401528060208501606085015e5f606082850101526060601f19601f8301168401019150509392505050565b634e487b7160e01b5f52604160045260245ffd5b5f60208284031215610312575f5ffd5b81516001600160401b03811115610327575f5ffd5b8201601f81018413610337575f5ffd5b80516001600160401b03811115610350576103506102ee565b604051601f8201601f19908116603f011681016001600160401b038111828210171561037e5761037e6102ee565b604052818152828201602001861015610395575f5ffd5b8160208401602083015e5f91810160200191909152949350505050565b6001600160a01b03841681526040602082018190528101829052818360608301375f818301606090810191909152601f909201601f1916010192915050565b5f60208284031215610401575f5ffd5b505191905056fea2646970667358221220b83e2979d74f3983d58e20979c58fb3ef12396b8143915cbc5b36455650c23fe64736f6c634300081c0033","linkReferences":{}},"methodIdentifiers":{"doRevert()":"afc874d2","getFoo()":"243dc8da","invokeDoRevertViaStorageAccessible(address)":"00e4b256","invokeStaticDelegatecall(address,bytes)":"6e76e8aa","setAndGetFoo(uint256)":"0557ebe4"},"id":85}