{"abi":[{"type":"constructor","inputs":[],"stateMutability":"nonpayable"},{"type":"function","name":"SLOT_BAM","inputs":[],"outputs":[{"name":"","type":"uint8","internalType":"uint8"}],"stateMutability":"view"},{"type":"function","name":"SLOT_BAR","inputs":[],"outputs":[{"name":"","type":"uint8","internalType":"uint8"}],"stateMutability":"view"},{"type":"function","name":"SLOT_BAZ","inputs":[],"outputs":[{"name":"","type":"uint8","internalType":"uint8"}],"stateMutability":"view"},{"type":"function","name":"SLOT_FOO","inputs":[],"outputs":[{"name":"","type":"uint8","internalType":"uint8"}],"stateMutability":"view"},{"type":"function","name":"SLOT_FOOBAR","inputs":[],"outputs":[{"name":"","type":"uint8","internalType":"uint8"}],"stateMutability":"view"},{"type":"function","name":"SLOT_QUX","inputs":[],"outputs":[{"name":"","type":"uint8","internalType":"uint8"}],"stateMutability":"view"},{"type":"function","name":"getStorageAt","inputs":[{"name":"offset","type":"uint256","internalType":"uint256"},{"name":"length","type":"uint256","internalType":"uint256"}],"outputs":[{"name":"","type":"bytes","internalType":"bytes"}],"stateMutability":"view"},{"type":"function","name":"setBam","inputs":[{"name":"bam_","type":"uint64","internalType":"uint64"}],"outputs":[],"stateMutability":"nonpayable"},{"type":"function","name":"setBar","inputs":[{"name":"bar_","type":"uint128","internalType":"uint128"}],"outputs":[],"stateMutability":"nonpayable"},{"type":"function","name":"setBaz","inputs":[{"name":"baz_","type":"uint256[]","internalType":"uint256[]"}],"outputs":[],"stateMutability":"nonpayable"},{"type":"function","name":"setFoo","inputs":[{"name":"foo_","type":"uint256","internalType":"uint256"}],"outputs":[],"stateMutability":"nonpayable"},{"type":"function","name":"setFoobar","inputs":[{"name":"foo_","type":"uint256","internalType":"uint256"},{"name":"bar_","type":"uint256","internalType":"uint256"}],"outputs":[],"stateMutability":"nonpayable"},{"type":"function","name":"setQuxKeyValue","inputs":[{"name":"key","type":"uint256","internalType":"uint256"},{"name":"value","type":"uint256","internalType":"uint256"}],"outputs":[],"stateMutability":"nonpayable"},{"type":"function","name":"simulateDelegatecall","inputs":[{"name":"targetContract","type":"address","internalType":"address"},{"name":"calldataPayload","type":"bytes","internalType":"bytes"}],"outputs":[{"name":"response","type":"bytes","internalType":"bytes"}],"stateMutability":"nonpayable"},{"type":"function","name":"simulateDelegatecallInternal","inputs":[{"name":"targetContract","type":"address","internalType":"address"},{"name":"calldataPayload","type":"bytes","internalType":"bytes"}],"outputs":[{"name":"response","type":"bytes","internalType":"bytes"}],"stateMutability":"nonpayable"}],"bytecode":{"object":"0x6080604052348015600e575f5ffd5b506108218061001c5f395ff3fe608060405234801561000f575f5ffd5b50600436106100c3575f3560e01c80630697a74f146100c757806338cccf07146100e657806343218e19146100fb5780634e78b5471461011b5780635624b25b146101225780636334bd13146101355780637a5d379b1461013d5780638e9c68f21461014557806399cf6449146101755780639fde446614610135578063bd0276fc14610194578063dc0f3490146101ce578063dc80035d146101d6578063eeb21aaf146101e8578063f84436bd14610214575b5f5ffd5b6100cf600281565b60405160ff90911681526020015b60405180910390f35b6100f96100f436600461050b565b610227565b005b61010e6101093660046105b5565b61023e565b6040516100dd9190610693565b6100cf5f81565b61010e6101303660046106ac565b6102cf565b6100cf600181565b6100cf600381565b6100f96101533660046106cc565b600180546001600160801b0319166001600160801b0392909216919091179055565b6100f96101833660046106ac565b5f9182526003602052604090912055565b6100f96101a23660046106f2565b600180546001600160401b03909216600160801b02600160801b600160c01b0319909216919091179055565b6100cf600481565b6100f96101e4366004610718565b5f55565b6100f96101f63660046106ac565b60408051808201909152828152602001819052600491909155600555565b61010e6102223660046105b5565b61034a565b805161023a90600290602084019061046a565b5050565b60605f836001600160a01b0316836040516102599190610746565b5f60405180830381855af49150503d805f8114610291576040519150601f19603f3d011682016040523d82523d5f602084013e610296565b606091505b506040519093509091506102c8906102b49084908490602001610751565b604051602081830303815290604052610462565b5092915050565b60605f6102dd836020610782565b6001600160401b038111156102f4576102f46104c7565b6040519080825280601f01601f19166020018201604052801561031e576020820181803683370190505b5090505f5b838110156103405784810154602080830284010152600101610323565b5090505b92915050565b60605f6343218e1960e01b8484604051602401610368929190610799565b60408051601f198184030181529181526020820180516001600160e01b03166001600160e01b031990941693909317909252905190915030906103ac908390610746565b5f604051808303815f865af19150503d805f81146103e5576040519150601f19603f3d011682016040523d82523d5f602084013e6103ea565b606091505b509050809250505f826001845161040191906107c4565b81518110610411576104116107d7565b602001015160f81c60f81b6001600160f81b031916600160f81b149050610444836001855161044091906107c4565b9052565b8015610451575050610344565b61045a83610462565b505092915050565b805160208201fd5b828054828255905f5260205f209081019282156104a3579160200282015b828111156104a3578251825591602001919060010190610488565b506104af9291506104b3565b5090565b5b808211156104af575f81556001016104b4565b634e487b7160e01b5f52604160045260245ffd5b604051601f8201601f191681016001600160401b0381118282101715610503576105036104c7565b604052919050565b5f6020828403121561051b575f5ffd5b81356001600160401b03811115610530575f5ffd5b8201601f81018413610540575f5ffd5b80356001600160401b03811115610559576105596104c7565b8060051b610569602082016104db565b91825260208184018101929081019087841115610584575f5ffd5b6020850194505b838510156105aa5784358083526020958601959093509091019061058b565b979650505050505050565b5f5f604083850312156105c6575f5ffd5b82356001600160a01b03811681146105dc575f5ffd5b915060208301356001600160401b038111156105f6575f5ffd5b8301601f81018513610606575f5ffd5b80356001600160401b0381111561061f5761061f6104c7565b610632601f8201601f19166020016104db565b818152866020838501011115610646575f5ffd5b816020840160208301375f602083830101528093505050509250929050565b5f81518084528060208401602086015e5f602082860101526020601f19601f83011685010191505092915050565b602081525f6106a56020830184610665565b9392505050565b5f5f604083850312156106bd575f5ffd5b50508035926020909101359150565b5f602082840312156106dc575f5ffd5b81356001600160801b03811681146106a5575f5ffd5b5f60208284031215610702575f5ffd5b81356001600160401b03811681146106a5575f5ffd5b5f60208284031215610728575f5ffd5b5035919050565b5f81518060208401855e5f93019283525090919050565b5f6106a5828461072f565b5f61075c828561072f565b92151560f81b83525050600101919050565b634e487b7160e01b5f52601160045260245ffd5b80820281158282048414176103445761034461076e565b6001600160a01b03831681526040602082018190525f906107bc90830184610665565b949350505050565b818103818111156103445761034461076e565b634e487b7160e01b5f52603260045260245ffdfea2646970667358221220c280a66030806c84095ef2e301da1696509ab577489604610f69659280c7e67c64736f6c634300081c0033","linkReferences":{}},"methodIdentifiers":{"SLOT_BAM()":"9fde4466","SLOT_BAR()":"6334bd13","SLOT_BAZ()":"0697a74f","SLOT_FOO()":"4e78b547","SLOT_FOOBAR()":"dc0f3490","SLOT_QUX()":"7a5d379b","getStorageAt(uint256,uint256)":"5624b25b","setBam(uint64)":"bd0276fc","setBar(uint128)":"8e9c68f2","setBaz(uint256[])":"38cccf07","setFoo(uint256)":"dc80035d","setFoobar(uint256,uint256)":"eeb21aaf","setQuxKeyValue(uint256,uint256)":"99cf6449","simulateDelegatecall(address,bytes)":"f84436bd","simulateDelegatecallInternal(address,bytes)":"43218e19"},"id":85}