{"abi":[{"type":"constructor","inputs":[{"name":"vault_","type":"address","internalType":"contract IVault"}],"stateMutability":"nonpayable"},{"type":"function","name":"batchSwapWithFee","inputs":[{"name":"kind","type":"uint8","internalType":"enum IVault.SwapKind"},{"name":"swaps","type":"tuple[]","internalType":"struct IVault.BatchSwapStep[]","components":[{"name":"poolId","type":"bytes32","internalType":"bytes32"},{"name":"assetInIndex","type":"uint256","internalType":"uint256"},{"name":"assetOutIndex","type":"uint256","internalType":"uint256"},{"name":"amount","type":"uint256","internalType":"uint256"},{"name":"userData","type":"bytes","internalType":"bytes"}]},{"name":"tokens","type":"address[]","internalType":"contract IERC20[]"},{"name":"funds","type":"tuple","internalType":"struct IVault.FundManagement","components":[{"name":"sender","type":"address","internalType":"address"},{"name":"fromInternalBalance","type":"bool","internalType":"bool"},{"name":"recipient","type":"address","internalType":"address payable"},{"name":"toInternalBalance","type":"bool","internalType":"bool"}]},{"name":"limits","type":"int256[]","internalType":"int256[]"},{"name":"deadline","type":"uint256","internalType":"uint256"},{"name":"feeTransfer","type":"tuple","internalType":"struct GPv2Transfer.Data","components":[{"name":"account","type":"address","internalType":"address"},{"name":"token","type":"address","internalType":"contract IERC20"},{"name":"amount","type":"uint256","internalType":"uint256"},{"name":"balance","type":"bytes32","internalType":"bytes32"}]}],"outputs":[{"name":"tokenDeltas","type":"int256[]","internalType":"int256[]"}],"stateMutability":"nonpayable"},{"type":"function","name":"transferFromAccounts","inputs":[{"name":"transfers","type":"tuple[]","internalType":"struct GPv2Transfer.Data[]","components":[{"name":"account","type":"address","internalType":"address"},{"name":"token","type":"address","internalType":"contract IERC20"},{"name":"amount","type":"uint256","internalType":"uint256"},{"name":"balance","type":"bytes32","internalType":"bytes32"}]}],"outputs":[],"stateMutability":"nonpayable"}],"bytecode":{"object":"0x60c060405234801561000f575f5ffd5b5060405161104e38038061104e83398101604081905261002e91610043565b336080526001600160a01b031660a052610070565b5f60208284031215610053575f5ffd5b81516001600160a01b0381168114610069575f5ffd5b9392505050565b60805160a051610faa6100a45f395f818160e00152818161017201526101fa01525f8181608301526101b00152610faa5ff3fe608060405234801561000f575f5ffd5b5060043610610034575f3560e01c80634817a286146100385780637d10d11f14610061575b5f5ffd5b61004b6100463660046109ef565b610076565b6040516100589190610afd565b60405180910390f35b61007461006f366004610b16565b6101a5565b005b6060336001600160a01b037f000000000000000000000000000000000000000000000000000000000000000016146100c95760405162461bcd60e51b81526004016100c090610b85565b60405180910390fd5b60405163945bcec960e01b81526001600160a01b037f0000000000000000000000000000000000000000000000000000000000000000169063945bcec990610121908c908c908c908c908c908c908c90600401610c25565b5f604051808303815f875af115801561013c573d5f5f3e3d5ffd5b505050506040513d5f823e601f3d908101601f191682016040526101639190810190610d8e565b90506101996001600160a01b037f0000000000000000000000000000000000000000000000000000000000000000168333610226565b98975050505050505050565b336001600160a01b037f000000000000000000000000000000000000000000000000000000000000000016146101ed5760405162461bcd60e51b81526004016100c090610b85565b6102226001600160a01b037f000000000000000000000000000000000000000000000000000000000000000016838333610408565b5050565b73eeeeeeeeeeeeeeeeeeeeeeeeeeeeeeeeeeeeeeee61024b6040840160208501610e1e565b6001600160a01b0316036102715760405162461bcd60e51b81526004016100c090610e39565b5f516020610f355f395f51905f528260600135036102c4576102bf6102996020840184610e1e565b82604085018035906102ae9060208801610e1e565b6001600160a01b031692919061064c565b505050565b6040805160018082528183019092525f91816020015b6102e261078a565b8152602001906001900390816102da5790505090505f815f8151811061030a5761030a610e6e565b602002602001015190505f516020610f555f395f51905f52846060013514610333576002610336565b60035b8190600381111561034957610349610bb0565b9081600381111561035c5761035c610bb0565b90525061036f6040850160208601610e1e565b6001600160a01b03166020808301919091526040808601359083015261039790850185610e1e565b6001600160a01b03908116606083015283811660808301526040516303a38fa160e21b815290861690630e8e3e84906103d4908590600401610e82565b5f604051808303815f87803b1580156103eb575f5ffd5b505af11580156103fd573d5f5f3e3d5ffd5b505050505050505050565b5f826001600160401b03811115610421576104216107ff565b60405190808252806020026020018201604052801561045a57816020015b61044761078a565b81526020019060019003908161043f5790505b5090505f805b848110156105e0573686868381811061047b5761047b610e6e565b60800291909101915073eeeeeeeeeeeeeeeeeeeeeeeeeeeeeeeeeeeeeeee90506104ab6040830160208401610e1e565b6001600160a01b0316036104d15760405162461bcd60e51b81526004016100c090610e39565b5f516020610f355f395f51905f528160600135036105135761050e6104f96020830183610e1e565b86604084018035906102ae9060208701610e1e565b6105d7565b5f848461051f81610f10565b95508151811061053157610531610e6e565b602002602001015190505f516020610f555f395f51905f5282606001351461055a57600161055d565b60035b8190600381111561057057610570610bb0565b9081600381111561058357610583610bb0565b9052506105966040830160208401610e1e565b6001600160a01b0316602080830191909152604080840135908301526105be90830183610e1e565b6001600160a01b03908116606083015286166080909101525b50600101610460565b508015610644578082526040516303a38fa160e21b81526001600160a01b03871690630e8e3e8490610616908590600401610e82565b5f604051808303815f87803b15801561062d575f5ffd5b505af115801561063f573d5f5f3e3d5ffd5b505050505b505050505050565b6040516323b872dd60e01b8082526001600160a01b0385811660048401528416602483015260448201839052905f80606483828a5af161068e573d5f5f3e3d5ffd5b50610698856106e7565b6106e05760405162461bcd60e51b8152602060048201526019602482015278475076323a206661696c6564207472616e7366657246726f6d60381b60448201526064016100c0565b5050505050565b5f610709565b62461bcd60e51b5f52602060045280602452508060445260645ffd5b3d80156107485760208114610779576107437f475076323a206d616c666f726d6564207472616e7366657220726573756c7400601f6106ed565b610784565b823b610770576107707311d41d8c8e881b9bdd08184818dbdb9d1c9858dd60621b60146106ed565b60019150610784565b3d5f5f3e5f51151591505b50919050565b6040805160a08101909152805f81525f60208201819052604082018190526060820181905260809091015290565b5f5f83601f8401126107c8575f5ffd5b5081356001600160401b038111156107de575f5ffd5b6020830191508360208260051b85010111156107f8575f5ffd5b9250929050565b634e487b7160e01b5f52604160045260245ffd5b604051601f8201601f191681016001600160401b038111828210171561083b5761083b6107ff565b604052919050565b5f6001600160401b0382111561085b5761085b6107ff565b5060051b60200190565b6001600160a01b0381168114610879575f5ffd5b50565b5f82601f83011261088b575f5ffd5b813561089e61089982610843565b610813565b8082825260208201915060208360051b8601019250858311156108bf575f5ffd5b602085015b838110156108e55780356108d781610865565b8352602092830192016108c4565b5095945050505050565b803580151581146108fe575f5ffd5b919050565b5f60808284031215610913575f5ffd5b604051608081016001600160401b0381118282101715610935576109356107ff565b604052905080823561094681610865565b8152610954602084016108ef565b6020820152604083013561096781610865565b6040820152610978606084016108ef565b60608201525092915050565b5f82601f830112610993575f5ffd5b81356109a161089982610843565b8082825260208201915060208360051b8601019250858311156109c2575f5ffd5b602085015b838110156108e55780358352602092830192016109c7565b5f60808284031215610784575f5ffd5b5f5f5f5f5f5f5f5f6101a0898b031215610a07575f5ffd5b883560028110610a15575f5ffd5b975060208901356001600160401b03811115610a2f575f5ffd5b610a3b8b828c016107b8565b90985096505060408901356001600160401b03811115610a59575f5ffd5b610a658b828c0161087c565b955050610a758a60608b01610903565b935060e08901356001600160401b03811115610a8f575f5ffd5b610a9b8b828c01610984565b9350506101008901359150610ab48a6101208b016109df565b90509295985092959890939650565b5f8151808452602084019350602083015f5b82811015610af3578151865260209586019590910190600101610ad5565b5093949350505050565b602081525f610b0f6020830184610ac3565b9392505050565b5f5f60208385031215610b27575f5ffd5b82356001600160401b03811115610b3c575f5ffd5b8301601f81018513610b4c575f5ffd5b80356001600160401b03811115610b61575f5ffd5b8560208260071b8401011115610b75575f5ffd5b6020919091019590945092505050565b60208082526011908201527023a83b191d103737ba1031b932b0ba37b960791b604082015260600190565b634e487b7160e01b5f52602160045260245ffd5b81835281816020850137505f828201602090810191909152601f909101601f19169091010190565b5f8151808452602084019350602083015f5b82811015610af35781516001600160a01b0316865260209586019590910190600101610bfe565b5f610120820160028a10610c3b57610c3b610bb0565b8983526101206020840152879052610140600588901b83018101908301895f609e1936839003015b8b821015610d155786850361013f190184528235818112610c82575f5ffd5b8d0180358652602080820135908701526040808201359087015260608082013590870152608081013536829003601e19018112610cbd575f5ffd5b016020810190356001600160401b03811115610cd7575f5ffd5b803603821315610ce5575f5ffd5b60a06080880152610cfa60a088018284610bc4565b96505050602083019250602084019350600182019150610c63565b505050508281036040840152610d2b8188610bec565b86516001600160a01b03908116606086810191909152602089015115156080870152604089015190911660a0860152870151151560c0850152905082810360e0840152610d788186610ac3565b9150508261010083015298975050505050505050565b5f60208284031215610d9e575f5ffd5b81516001600160401b03811115610db3575f5ffd5b8201601f81018413610dc3575f5ffd5b8051610dd161089982610843565b8082825260208201915060208360051b850101925086831115610df2575f5ffd5b6020840193505b82841015610e14578351825260209384019390910190610df9565b9695505050505050565b5f60208284031215610e2e575f5ffd5b8135610b0f81610865565b6020808252818101527f475076323a2063616e6e6f74207472616e73666572206e617469766520455448604082015260600190565b634e487b7160e01b5f52603260045260245ffd5b602080825282518282018190525f918401906040840190835b81811015610f05578351805160048110610eb757610eb7610bb0565b84526020818101516001600160a01b0390811682870152604080840151908701526060808401518216908701526080928301511691850191909152939093019260a090920191600101610e9b565b509095945050505050565b5f60018201610f2d57634e487b7160e01b5f52601160045260245ffd5b506001019056fe5a28e9363bb942b639270062aa6bb295f434bcdfc42c97267bf003f272060dc9abee3b73373acd583a130924aad6dc38cfdc44ba0555ba94ce2ff63980ea0632a264697066735822122066e624c98072239ca28893e6d493e32a9f1875d7d8ef665481e24197a2fd12a364736f6c634300081c0033","linkReferences":{}},"methodIdentifiers":{"batchSwapWithFee(uint8,(bytes32,uint256,uint256,uint256,bytes)[],address[],(address,bool,address,bool),int256[],uint256,(address,address,uint256,bytes32))":"4817a286","transferFromAccounts((address,address,uint256,bytes32)[])":"7d10d11f"},"id":2}