{"abi":[{"type":"function","name":"getStorageAt","inputs":[{"name":"offset","type":"uint256","internalType":"uint256"},{"name":"length","type":"uint256","internalType":"uint256"}],"outputs":[{"name":"","type":"bytes","internalType":"bytes"}],"stateMutability":"view"},{"type":"function","name":"simulateDelegatecall","inputs":[{"name":"targetContract","type":"address","internalType":"address"},{"name":"calldataPayload","type":"bytes","internalType":"bytes"}],"outputs":[{"name":"response","type":"bytes","internalType":"bytes"}],"stateMutability":"nonpayable"},{"type":"function","name":"simulateDelegatecallInternal","inputs":[{"name":"targetContract","type":"address","internalType":"address"},{"name":"calldataPayload","type":"bytes","internalType":"bytes"}],"outputs":[{"name":"response","type":"bytes","internalType":"bytes"}],"stateMutability":"nonpayable"}],"bytecode":{"object":"0x6080604052348015600e575f5ffd5b506104f98061001c5f395ff3fe608060405234801561000f575f5ffd5b506004361061003f575f3560e01c806343218e19146100435780635624b25b1461006c578063f84436bd1461007f575b5f5ffd5b6100566100513660046102d2565b610092565b60405161006391906103ce565b60405180910390f35b61005661007a3660046103e7565b610123565b61005661008d3660046102d2565b61019e565b60605f836001600160a01b0316836040516100ad919061041e565b5f60405180830381855af49150503d805f81146100e5576040519150601f19603f3d011682016040523d82523d5f602084013e6100ea565b606091505b5060405190935090915061011c906101089084908490602001610429565b6040516020818303038152906040526102b6565b5092915050565b60605f61013183602061045a565b6001600160401b03811115610148576101486102be565b6040519080825280601f01601f191660200182016040528015610172576020820181803683370190505b5090505f5b838110156101945784810154602080830284010152600101610177565b5090505b92915050565b60605f6343218e1960e01b84846040516024016101bc929190610471565b60408051601f198184030181529181526020820180516001600160e01b03166001600160e01b0319909416939093179092529051909150309061020090839061041e565b5f604051808303815f865af19150503d805f8114610239576040519150601f19603f3d011682016040523d82523d5f602084013e61023e565b606091505b509050809250505f8260018451610255919061049c565b81518110610265576102656104af565b602001015160f81c60f81b6001600160f81b031916600160f81b1490506102988360018551610294919061049c565b9052565b80156102a5575050610198565b6102ae836102b6565b505092915050565b805160208201fd5b634e487b7160e01b5f52604160045260245ffd5b5f5f604083850312156102e3575f5ffd5b82356001600160a01b03811681146102f9575f5ffd5b915060208301356001600160401b03811115610313575f5ffd5b8301601f81018513610323575f5ffd5b80356001600160401b0381111561033c5761033c6102be565b604051601f8201601f19908116603f011681016001600160401b038111828210171561036a5761036a6102be565b604052818152828201602001871015610381575f5ffd5b816020840160208301375f602083830101528093505050509250929050565b5f81518084528060208401602086015e5f602082860101526020601f19601f83011685010191505092915050565b602081525f6103e060208301846103a0565b9392505050565b5f5f604083850312156103f8575f5ffd5b50508035926020909101359150565b5f81518060208401855e5f93019283525090919050565b5f6103e08284610407565b5f6104348285610407565b92151560f81b83525050600101919050565b634e487b7160e01b5f52601160045260245ffd5b808202811582820484141761019857610198610446565b6001600160a01b03831681526040602082018190525f90610494908301846103a0565b949350505050565b8181038181111561019857610198610446565b634e487b7160e01b5f52603260045260245ffdfea2646970667358221220931f8eaf267b47c05b731564f8b38ee86b93c298a8c9de69629e58a59449ff9c64736f6c634300081c0033","linkReferences":{}},"methodIdentifiers":{"getStorageAt(uint256,uint256)":"5624b25b","simulateDelegatecall(address,bytes)":"f84436bd","simulateDelegatecallInternal(address,bytes)":"43218e19"},"id":18}