{"abi":[{"type":"constructor","inputs":[{"name":"symbol","type":"string","internalType":"string"}],"stateMutability":"nonpayable"},{"type":"function","name":"DOMAIN_SEPARATOR","inputs":[],"outputs":[{"name":"","type":"bytes32","internalType":"bytes32"}],"stateMutability":"view"},{"type":"function","name":"allowance","inputs":[{"name":"owner","type":"address","internalType":"address"},{"name":"spender","type":"address","internalType":"address"}],"outputs":[{"name":"","type":"uint256","internalType":"uint256"}],"stateMutability":"view"},{"type":"function","name":"approve","inputs":[{"name":"spender","type":"address","internalType":"address"},{"name":"amount","type":"uint256","internalType":"uint256"}],"outputs":[{"name":"","type":"bool","internalType":"bool"}],"stateMutability":"nonpayable"},{"type":"function","name":"balanceOf","inputs":[{"name":"account","type":"address","internalType":"address"}],"outputs":[{"name":"","type":"uint256","internalType":"uint256"}],"stateMutability":"view"},{"type":"function","name":"decimals","inputs":[],"outputs":[{"name":"","type":"uint8","internalType":"uint8"}],"stateMutability":"view"},{"type":"function","name":"decreaseAllowance","inputs":[{"name":"spender","type":"address","internalType":"address"},{"name":"subtractedValue","type":"uint256","internalType":"uint256"}],"outputs":[{"name":"","type":"bool","internalType":"bool"}],"stateMutability":"nonpayable"},{"type":"function","name":"increaseAllowance","inputs":[{"name":"spender","type":"address","internalType":"address"},{"name":"addedValue","type":"uint256","internalType":"uint256"}],"outputs":[{"name":"","type":"bool","internalType":"bool"}],"stateMutability":"nonpayable"},{"type":"function","name":"mint","inputs":[{"name":"to","type":"address","internalType":"address"},{"name":"amount","type":"uint256","internalType":"uint256"}],"outputs":[],"stateMutability":"nonpayable"},{"type":"function","name":"name","inputs":[],"outputs":[{"name":"","type":"string","internalType":"string"}],"stateMutability":"view"},{"type":"function","name":"nonces","inputs":[{"name":"owner","type":"address","internalType":"address"}],"outputs":[{"name":"","type":"uint256","internalType":"uint256"}],"stateMutability":"view"},{"type":"function","name":"permit","inputs":[{"name":"owner","type":"address","internalType":"address"},{"name":"spender","type":"address","internalType":"address"},{"name":"value","type":"uint256","internalType":"uint256"},{"name":"deadline","type":"uint256","internalType":"uint256"},{"name":"v","type":"uint8","internalType":"uint8"},{"name":"r","type":"bytes32","internalType":"bytes32"},{"name":"s","type":"bytes32","internalType":"bytes32"}],"outputs":[],"stateMutability":"nonpayable"},{"type":"function","name":"symbol","inputs":[],"outputs":[{"name":"","type":"string","internalType":"string"}],"stateMutability":"view"},{"type":"function","name":"totalSupply","inputs":[],"outputs":[{"name":"","type":"uint256","internalType":"uint256"}],"stateMutability":"view"},{"type":"function","name":"transfer","inputs":[{"name":"recipient","type":"address","internalType":"address"},{"name":"amount","type":"uint256","internalType":"uint256"}],"outputs":[{"name":"","type":"bool","internalType":"bool"}],"stateMutability":"nonpayable"},{"type":"function","name":"transferFrom","inputs":[{"name":"sender","type":"address","internalType":"address"},{"name":"recipient","type":"address","internalType":"address"},{"name":"amount","type":"uint256","internalType":"uint256"}],"outputs":[{"name":"","type":"bool","internalType":"bool"}],"stateMutability":"nonpayable"},{"type":"event","name":"Approval","inputs":[{"name":"owner","type":"address","indexed":true,"internalType":"address"},{"name":"spender","type":"address","indexed":true,"internalType":"address"},{"name":"value","type":"uint256","indexed":false,"internalType":"uint256"}],"anonymous":false},{"type":"event","name":"Transfer","inputs":[{"name":"from","type":"address","indexed":true,"internalType":"address"},{"name":"to","type":"address","indexed":true,"internalType":"address"},{"name":"value","type":"uint256","indexed":false,"internalType":"uint256"}],"anonymous":false}],"bytecode":{"object":"0x6101406040527f6e71edae12b1b97f4d1f60370fef10105fa2faae0126114a169c64845d6126c9610120523480156200003757600080fd5b506040516200141738038062001417833981810160405260208110156200005d57600080fd5b81019080805160405193929190846401000000008211156200007e57600080fd5b9083019060208201858111156200009457600080fd5b8251640100000000811182820188101715620000af57600080fd5b82525081516020918201929091019080838360005b83811015620000de578181015183820152602001620000c4565b50505050905090810190601f1680156200010c5780820380516001836020036101000a031916815260200191505b506040525050508080604051806040016040528060018152602001603160f81b815250838481600390805190602001906200014992919062000244565b5080516200015f90600490602084019062000244565b50506005805460ff1916601217905550815160208084019190912082519183019190912060c082905260e08190527f8b73c3c69bb8fe3d512ecc4cf759cc79239f7b179b0ffacaa9a75d522b39400f620001b8620001dc565b60a052620001c8818484620001e0565b6080526101005250620002f0945050505050565b4690565b6000838383620001ef620001dc565b3060405160200180868152602001858152602001848152602001838152602001826001600160a01b03168152602001955050505050506040516020818303038152906040528051906020012090509392505050565b828054600181600116156101000203166002900490600052602060002090601f0160209004810192826200027c5760008555620002c7565b82601f106200029757805160ff1916838001178555620002c7565b82800160010185558215620002c7579182015b82811115620002c7578251825591602001919060010190620002aa565b50620002d5929150620002d9565b5090565b5b80821115620002d55760008155600101620002da565b60805160a05160c05160e05161010051610120516110dd6200033a600039806106c5525080610b65525080610ba7525080610b86525080610b0c525080610b3c52506110dd6000f3fe608060405234801561001057600080fd5b50600436106100c55760003560e01c806306fdde03146100ca578063095ea7b31461014757806318160ddd1461018757806323b872dd146101a1578063313ce567146101d75780633644e515146101f557806339509351146101fd57806340c10f191461022957806370a08231146102575780637ecebe001461027d57806395d89b41146102a3578063a457c2d7146102ab578063a9059cbb146102d7578063d505accf14610303578063dd62ed3e14610354575b600080fd5b6100d2610382565b6040805160208082528351818301528351919283929083019185019080838360005b8381101561010c5781810151838201526020016100f4565b50505050905090810190601f1680156101395780820380516001836020036101000a031916815260200191505b509250505060405180910390f35b6101736004803603604081101561015d57600080fd5b506001600160a01b038135169060200135610419565b604080519115158252519081900360200190f35b61018f610436565b60408051918252519081900360200190f35b610173600480360360608110156101b757600080fd5b506001600160a01b0381358116916020810135909116906040013561043c565b6101df6104c3565b6040805160ff9092168252519081900360200190f35b61018f6104cc565b6101736004803603604081101561021357600080fd5b506001600160a01b0381351690602001356104db565b6102556004803603604081101561023f57600080fd5b506001600160a01b038135169060200135610529565b005b61018f6004803603602081101561026d57600080fd5b50356001600160a01b0316610537565b61018f6004803603602081101561029357600080fd5b50356001600160a01b0316610552565b6100d2610579565b610173600480360360408110156102c157600080fd5b506001600160a01b0381351690602001356105da565b610173600480360360408110156102ed57600080fd5b506001600160a01b038135169060200135610642565b610255600480360360e081101561031957600080fd5b506001600160a01b03813581169160208101359091169060408101359060608101359060ff6080820135169060a08101359060c00135610656565b61018f6004803603604081101561036a57600080fd5b506001600160a01b038135811691602001351661080d565b60038054604080516020601f600260001961010060018816150201909516949094049384018190048102820181019092528281526060939092909183018282801561040e5780601f106103e35761010080835404028352916020019161040e565b820191906000526020600020905b8154815290600101906020018083116103f157829003601f168201915b505050505090505b90565b600061042d610426610838565b848461083c565b50600192915050565b60025490565b6000610449848484610928565b6104b984610455610838565b6104b485604051806060016040528060288152602001610ff2602891396001600160a01b038a16600090815260016020526040812090610493610838565b6001600160a01b031681526020810191909152604001600020549190610a71565b61083c565b5060019392505050565b60055460ff1690565b60006104d6610b08565b905090565b600061042d6104e8610838565b846104b485600160006104f9610838565b6001600160a01b03908116825260208083019390935260409182016000908120918c168152925290205490610bd2565b6105338282610c31565b5050565b6001600160a01b031660009081526020819052604090205490565b6001600160a01b038116600090815260066020526040812061057390610d0f565b92915050565b60048054604080516020601f600260001961010060018816150201909516949094049384018190048102820181019092528281526060939092909183018282801561040e5780601f106103e35761010080835404028352916020019161040e565b600061042d6105e7610838565b846104b4856040518060600160405280602581526020016110836025913960016000610611610838565b6001600160a01b03908116825260208083019390935260409182016000908120918d16815292529020549190610a71565b600061042d61064f610838565b8484610928565b834211156106ab576040805162461bcd60e51b815260206004820152601d60248201527f45524332305065726d69743a206578706972656420646561646c696e65000000604482015290519081900360640190fd5b6001600160a01b03871660009081526006602052604081207f0000000000000000000000000000000000000000000000000000000000000000908990899089906106f490610d0f565b8960405160200180878152602001866001600160a01b03168152602001856001600160a01b031681526020018481526020018381526020018281526020019650505050505050604051602081830303815290604052805190602001209050600061075d82610d13565b9050600061076d82878787610d5f565b9050896001600160a01b0316816001600160a01b0316146107d5576040805162461bcd60e51b815260206004820152601e60248201527f45524332305065726d69743a20696e76616c6964207369676e61747572650000604482015290519081900360640190fd5b6001600160a01b038a1660009081526006602052604090206107f690610ece565b6108018a8a8a61083c565b50505050505050505050565b6001600160a01b03918216600090815260016020908152604080832093909416825291909152205490565b3390565b6001600160a01b0383166108815760405162461bcd60e51b815260040180806020018281038252602481526020018061105f6024913960400191505060405180910390fd5b6001600160a01b0382166108c65760405162461bcd60e51b8152600401808060200182810382526022815260200180610f666022913960400191505060405180910390fd5b6001600160a01b03808416600081815260016020908152604080832094871680845294825291829020859055815185815291517f8c5be1e5ebec7d5bd14f71427d1e84f3dd0314c0f7b2291e5b200ac8c7c3b9259281900390910190a3505050565b6001600160a01b03831661096d5760405162461bcd60e51b815260040180806020018281038252602581526020018061103a6025913960400191505060405180910390fd5b6001600160a01b0382166109b25760405162461bcd60e51b8152600401808060200182810382526023815260200180610f436023913960400191505060405180910390fd5b6109bd838383610ed7565b6109fa81604051806060016040528060268152602001610f88602691396001600160a01b0386166000908152602081905260409020549190610a71565b6001600160a01b038085166000908152602081905260408082209390935590841681522054610a299082610bd2565b6001600160a01b0380841660008181526020818152604091829020949094558051858152905191939287169260008051602061101a83398151915292918290030190a3505050565b60008184841115610b005760405162461bcd60e51b81526004018080602001828103825283818151815260200191508051906020019080838360005b83811015610ac5578181015183820152602001610aad565b50505050905090810190601f168015610af25780820380516001836020036101000a031916815260200191505b509250505060405180910390fd5b505050900390565b60007f0000000000000000000000000000000000000000000000000000000000000000610b33610edc565b1415610b6057507f0000000000000000000000000000000000000000000000000000000000000000610416565b610bcb7f00000000000000000000000000000000000000000000000000000000000000007f00000000000000000000000000000000000000000000000000000000000000007f0000000000000000000000000000000000000000000000000000000000000000610ee0565b9050610416565b600082820183811015610c2a576040805162461bcd60e51b815260206004820152601b60248201527a536166654d6174683a206164646974696f6e206f766572666c6f7760281b604482015290519081900360640190fd5b9392505050565b6001600160a01b038216610c8c576040805162461bcd60e51b815260206004820152601f60248201527f45524332303a206d696e7420746f20746865207a65726f206164647265737300604482015290519081900360640190fd5b610c9860008383610ed7565b600254610ca59082610bd2565b6002556001600160a01b038216600090815260208190526040902054610ccb9082610bd2565b6001600160a01b03831660008181526020818152604080832094909455835185815293519293919260008051602061101a8339815191529281900390910190a35050565b5490565b6000610d1d610b08565b82604051602001808061190160f01b81525060020183815260200182815260200192505050604051602081830303815290604052805190602001209050919050565b60006fa2a8918ca85bafe22016d0b997e4df60600160ff1b03821115610db65760405162461bcd60e51b8152600401808060200182810382526022815260200180610fae6022913960400191505060405180910390fd5b8360ff16601b1480610dcb57508360ff16601c145b610e065760405162461bcd60e51b8152600401808060200182810382526022815260200180610fd06022913960400191505060405180910390fd5b600060018686868660405160008152602001604052604051808581526020018460ff1681526020018381526020018281526020019450505050506020604051602081039080840390855afa158015610e62573d6000803e3d6000fd5b5050604051601f1901519150506001600160a01b038116610ec5576040805162461bcd60e51b815260206004820152601860248201527745434453413a20696e76616c6964207369676e617475726560401b604482015290519081900360640190fd5b95945050505050565b80546001019055565b505050565b4690565b6000838383610eed610edc565b3060405160200180868152602001858152602001848152602001838152602001826001600160a01b0316815260200195505050505050604051602081830303815290604052805190602001209050939250505056fe45524332303a207472616e7366657220746f20746865207a65726f206164647265737345524332303a20617070726f766520746f20746865207a65726f206164647265737345524332303a207472616e7366657220616d6f756e7420657863656564732062616c616e636545434453413a20696e76616c6964207369676e6174757265202773272076616c756545434453413a20696e76616c6964207369676e6174757265202776272076616c756545524332303a207472616e7366657220616d6f756e74206578636565647320616c6c6f77616e6365ddf252ad1be2c89b69c2b068fc378daa952ba7f163c4a11628f55a4df523b3ef45524332303a207472616e736665722066726f6d20746865207a65726f206164647265737345524332303a20617070726f76652066726f6d20746865207a65726f206164647265737345524332303a2064656372656173656420616c6c6f77616e63652062656c6f77207a65726fa264697066735822122058cdd8c2dd70b01d7b842be660c0fd1f75416cbd6b8706c73a0ad2354fb6e45e64736f6c63430007060033","linkReferences":{}},"methodIdentifiers":{"DOMAIN_SEPARATOR()":"3644e515","allowance(address,address)":"dd62ed3e","approve(address,uint256)":"095ea7b3","balanceOf(address)":"70a08231","decimals()":"313ce567","decreaseAllowance(address,uint256)":"a457c2d7","increaseAllowance(address,uint256)":"39509351","mint(address,uint256)":"40c10f19","name()":"06fdde03","nonces(address)":"7ecebe00","permit(address,address,uint256,uint256,uint8,bytes32,bytes32)":"d505accf","symbol()":"95d89b41","totalSupply()":"18160ddd","transfer(address,uint256)":"a9059cbb","transferFrom(address,address,uint256)":"23b872dd"},"id":0}