{"abi":[{"type":"function","name":"addSolver","inputs":[{"name":"solver","type":"address","internalType":"address"}],"outputs":[],"stateMutability":"nonpayable"},{"type":"function","name":"getStorageAt","inputs":[{"name":"offset","type":"uint256","internalType":"uint256"},{"name":"length","type":"uint256","internalType":"uint256"}],"outputs":[{"name":"","type":"bytes","internalType":"bytes"}],"stateMutability":"view"},{"type":"function","name":"initializeManager","inputs":[{"name":"manager_","type":"address","internalType":"address"}],"outputs":[],"stateMutability":"nonpayable"},{"type":"function","name":"isSolver","inputs":[{"name":"prospectiveSolver","type":"address","internalType":"address"}],"outputs":[{"name":"","type":"bool","internalType":"bool"}],"stateMutability":"view"},{"type":"function","name":"manager","inputs":[],"outputs":[{"name":"","type":"address","internalType":"address"}],"stateMutability":"view"},{"type":"function","name":"removeSolver","inputs":[{"name":"solver","type":"address","internalType":"address"}],"outputs":[],"stateMutability":"nonpayable"},{"type":"function","name":"setManager","inputs":[{"name":"manager_","type":"address","internalType":"address"}],"outputs":[],"stateMutability":"nonpayable"},{"type":"function","name":"simulateDelegatecall","inputs":[{"name":"targetContract","type":"address","internalType":"address"},{"name":"calldataPayload","type":"bytes","internalType":"bytes"}],"outputs":[{"name":"response","type":"bytes","internalType":"bytes"}],"stateMutability":"nonpayable"},{"type":"function","name":"simulateDelegatecallInternal","inputs":[{"name":"targetContract","type":"address","internalType":"address"},{"name":"calldataPayload","type":"bytes","internalType":"bytes"}],"outputs":[{"name":"response","type":"bytes","internalType":"bytes"}],"stateMutability":"nonpayable"},{"type":"event","name":"ManagerChanged","inputs":[{"name":"newManager","type":"address","indexed":false,"internalType":"address"},{"name":"oldManager","type":"address","indexed":false,"internalType":"address"}],"anonymous":false},{"type":"event","name":"SolverAdded","inputs":[{"name":"solver","type":"address","indexed":false,"internalType":"address"}],"anonymous":false},{"type":"event","name":"SolverRemoved","inputs":[{"name":"solver","type":"address","indexed":false,"internalType":"address"}],"anonymous":false}],"bytecode":{"object":"0x6080604052348015600e575f5ffd5b5061096a8061001c5f395ff3fe608060405234801561000f575f5ffd5b5060043610610081575f3560e01c806302cc250d1461008557806343218e19146100c5578063481c6a75146100e55780635624b25b1461010a5780637f7120fe1461011d5780638fd57b9214610132578063d0ebdbe714610145578063ec58f4b814610158578063f84436bd1461016b575b5f5ffd5b6100b06100933660046106a3565b6001600160a01b03165f9081526001602052604090205460ff1690565b60405190151581526020015b60405180910390f35b6100d86100d33660046106d7565b61017e565b6040516100bc91906107c6565b5f546100fd906201000090046001600160a01b031681565b6040516100bc91906107d8565b6100d86101183660046107ec565b61020f565b61013061012b3660046106a3565b61028a565b005b6101306101403660046106a3565b610375565b6101306101533660046106a3565b6103fe565b6101306101663660046106a3565b6104e5565b6100d86101793660046106d7565b610568565b60605f836001600160a01b0316836040516101999190610823565b5f60405180830381855af49150503d805f81146101d1576040519150601f19603f3d011682016040523d82523d5f602084013e6101d6565b606091505b50604051909350909150610208906101f4908490849060200161082e565b604051602081830303815290604052610680565b5092915050565b60605f61021d83602061085f565b6001600160401b03811115610234576102346106c3565b6040519080825280601f01601f19166020018201604052801561025e576020820181803683370190505b5090505f5b838110156102805784810154602080830284010152600101610263565b5090505b92915050565b5f54610100900460ff168061029e5750303b155b806102ab57505f5460ff16155b6102f95760405162461bcd60e51b815260206004820152601a602482015279125b9a5d1a585b1a5e98589b194e881a5b9a5d1a585b1a5e995960321b60448201526064015b60405180910390fd5b5f54610100900460ff16158015610319575f805461ffff19166101011790555b5f805462010000600160b01b031916620100006001600160a01b038516021781556040515f5160206109155f395f51905f529161035891859190610876565b60405180910390a18015610371575f805461ff00191690555b5050565b5f546201000090046001600160a01b031633146103a45760405162461bcd60e51b81526004016102f090610890565b6001600160a01b0381165f9081526001602052604090819020805460ff19169055517f640e18a2587e1d83e4fdabf70257d0a800ca4b2c1aaad1dfc485a4ad8bbbd6c6906103f39083906107d8565b60405180910390a150565b5f546201000090046001600160a01b031633148061044b5750336104407fb53127684a568b3173ae13b9f8a6016e243e63b6e8ee1178d6a717850b5d61035490565b6001600160a01b0316145b61048e5760405162461bcd60e51b815260206004820152601460248201527311d41d8c8e881b9bdd08185d5d1a1bdc9a5e995960621b60448201526064016102f0565b5f80546001600160a01b038381166201000090810262010000600160b01b03198416179093556040519290910416905f5160206109155f395f51905f52906104d99084908490610876565b60405180910390a15050565b5f546201000090046001600160a01b031633146105145760405162461bcd60e51b81526004016102f090610890565b6001600160a01b0381165f90815260016020819052604091829020805460ff19169091179055517f41f9d09dd5159251f8a8e482bbe097b7c01a5e6f70c5a0ddb494906464fc9dd7906103f39083906107d8565b60605f6343218e1960e01b84846040516024016105869291906108c2565b60408051601f198184030181529181526020820180516001600160e01b03166001600160e01b031990941693909317909252905190915030906105ca908390610823565b5f604051808303815f865af19150503d805f8114610603576040519150601f19603f3d011682016040523d82523d5f602084013e610608565b606091505b509050809250505f826001845161061f91906108ed565b8151811061062f5761062f610900565b602001015160f81c60f81b6001600160f81b031916600160f81b149050610662836001855161065e91906108ed565b9052565b801561066f575050610284565b61067883610680565b505092915050565b805160208201fd5b80356001600160a01b038116811461069e575f5ffd5b919050565b5f602082840312156106b3575f5ffd5b6106bc82610688565b9392505050565b634e487b7160e01b5f52604160045260245ffd5b5f5f604083850312156106e8575f5ffd5b6106f183610688565b915060208301356001600160401b0381111561070b575f5ffd5b8301601f8101851361071b575f5ffd5b80356001600160401b03811115610734576107346106c3565b604051601f8201601f19908116603f011681016001600160401b0381118282101715610762576107626106c3565b604052818152828201602001871015610779575f5ffd5b816020840160208301375f602083830101528093505050509250929050565b5f81518084528060208401602086015e5f602082860101526020601f19601f83011685010191505092915050565b602081525f6106bc6020830184610798565b6001600160a01b0391909116815260200190565b5f5f604083850312156107fd575f5ffd5b50508035926020909101359150565b5f81518060208401855e5f93019283525090919050565b5f6106bc828461080c565b5f610839828561080c565b92151560f81b83525050600101919050565b634e487b7160e01b5f52601160045260245ffd5b80820281158282048414176102845761028461084b565b6001600160a01b0392831681529116602082015260400190565b60208082526018908201527723a83b191d1031b0b63632b9103737ba1036b0b730b3b2b960411b604082015260600190565b6001600160a01b03831681526040602082018190525f906108e590830184610798565b949350505050565b818103818111156102845761028461084b565b634e487b7160e01b5f52603260045260245ffdfe605c2dbf762e5f7d60a546d42e7205dcb1b011ebc62a61736a57c9089d3a4350a2646970667358221220b53bff8c5e2bfaba57156432c4910924c7d4307c2f03eef75a7b1a97f1d0019764736f6c634300081c0033","linkReferences":{}},"methodIdentifiers":{"addSolver(address)":"ec58f4b8","getStorageAt(uint256,uint256)":"5624b25b","initializeManager(address)":"7f7120fe","isSolver(address)":"02cc250d","manager()":"481c6a75","removeSolver(address)":"8fd57b92","setManager(address)":"d0ebdbe7","simulateDelegatecall(address,bytes)":"f84436bd","simulateDelegatecallInternal(address,bytes)":"43218e19"},"id":0}