{"abi":[{"type":"function","name":"transfer","inputs":[{"name":"token","type":"address","internalType":"contract IERC20"},{"name":"to","type":"address","internalType":"address"},{"name":"value","type":"uint256","internalType":"uint256"}],"outputs":[],"stateMutability":"nonpayable"},{"type":"function","name":"transferFrom","inputs":[{"name":"token","type":"address","internalType":"contract IERC20"},{"name":"from","type":"address","internalType":"address"},{"name":"to","type":"address","internalType":"address"},{"name":"value","type":"uint256","internalType":"uint256"}],"outputs":[],"stateMutability":"nonpayable"}],"bytecode":{"object":"0x6080604052348015600e575f5ffd5b506103388061001c5f395ff3fe608060405234801561000f575f5ffd5b5060043610610034575f3560e01c806315dacbea14610038578063beabacc81461004d575b5f5ffd5b61004b610046366004610276565b610060565b005b61004b61005b3660046102c4565b61007b565b6100756001600160a01b038516848484610094565b50505050565b61008f6001600160a01b0384168383610134565b505050565b6040516323b872dd60e01b8082526001600160a01b0385811660048401528416602483015260448201839052905f80606483828a5af16100d6573d5f5f3e3d5ffd5b506100e0856101bc565b61012d5760405162461bcd60e51b8152602060048201526019602482015278475076323a206661696c6564207472616e7366657246726f6d60381b60448201526064015b60405180910390fd5b5050505050565b60405163a9059cbb60e01b8082526001600160a01b038416600483015260248201839052905f8060448382895af161016e573d5f5f3e3d5ffd5b50610178846101bc565b6100755760405162461bcd60e51b815260206004820152601560248201527423a83b191d103330b4b632b2103a3930b739b332b960591b6044820152606401610124565b5f6101de565b62461bcd60e51b5f52602060045280602452508060445260645ffd5b3d801561021d576020811461024e576102187f475076323a206d616c666f726d6564207472616e7366657220726573756c7400601f6101c2565b610259565b823b610245576102457311d41d8c8e881b9bdd08184818dbdb9d1c9858dd60621b60146101c2565b60019150610259565b3d5f5f3e5f51151591505b50919050565b6001600160a01b0381168114610273575f5ffd5b50565b5f5f5f5f60808587031215610289575f5ffd5b84356102948161025f565b935060208501356102a48161025f565b925060408501356102b48161025f565b9396929550929360600135925050565b5f5f5f606084860312156102d6575f5ffd5b83356102e18161025f565b925060208401356102f18161025f565b92959294505050604091909101359056fea2646970667358221220cf7406186fe49c889ab52c5bbd4abc72e73a5924f5f8b474575b71e5febd752364736f6c634300081c0033","linkReferences":{}},"methodIdentifiers":{"transfer(address,address,uint256)":"beabacc8","transferFrom(address,address,address,uint256)":"15dacbea"},"id":36}