{"abi":[{"type":"function","name":"allowance","inputs":[{"name":"owner","type":"address","internalType":"address"},{"name":"spender","type":"address","internalType":"address"}],"outputs":[{"name":"","type":"uint256","internalType":"uint256"}],"stateMutability":"view"},{"type":"function","name":"approve","inputs":[{"name":"spender","type":"address","internalType":"address"},{"name":"amount","type":"uint256","internalType":"uint256"}],"outputs":[{"name":"","type":"bool","internalType":"bool"}],"stateMutability":"nonpayable"},{"type":"function","name":"balanceOf","inputs":[{"name":"account","type":"address","internalType":"address"}],"outputs":[{"name":"","type":"uint256","internalType":"uint256"}],"stateMutability":"view"},{"type":"function","name":"computeAddress2","inputs":[{"name":"salt","type":"uint256","internalType":"uint256"}],"outputs":[{"name":"child","type":"address","internalType":"address"}],"stateMutability":"pure"},{"type":"function","name":"decimals","inputs":[],"outputs":[{"name":"","type":"uint8","internalType":"uint8"}],"stateMutability":"view"},{"type":"function","name":"free","inputs":[{"name":"value","type":"uint256","internalType":"uint256"}],"outputs":[{"name":"","type":"uint256","internalType":"uint256"}],"stateMutability":"nonpayable"},{"type":"function","name":"freeFrom","inputs":[{"name":"from","type":"address","internalType":"address"},{"name":"value","type":"uint256","internalType":"uint256"}],"outputs":[{"name":"","type":"uint256","internalType":"uint256"}],"stateMutability":"nonpayable"},{"type":"function","name":"freeFromUpTo","inputs":[{"name":"from","type":"address","internalType":"address"},{"name":"value","type":"uint256","internalType":"uint256"}],"outputs":[{"name":"","type":"uint256","internalType":"uint256"}],"stateMutability":"nonpayable"},{"type":"function","name":"freeUpTo","inputs":[{"name":"value","type":"uint256","internalType":"uint256"}],"outputs":[{"name":"","type":"uint256","internalType":"uint256"}],"stateMutability":"nonpayable"},{"type":"function","name":"mint","inputs":[{"name":"value","type":"uint256","internalType":"uint256"}],"outputs":[],"stateMutability":"nonpayable"},{"type":"function","name":"name","inputs":[],"outputs":[{"name":"","type":"string","internalType":"string"}],"stateMutability":"view"},{"type":"function","name":"symbol","inputs":[],"outputs":[{"name":"","type":"string","internalType":"string"}],"stateMutability":"view"},{"type":"function","name":"totalBurned","inputs":[],"outputs":[{"name":"","type":"uint256","internalType":"uint256"}],"stateMutability":"view"},{"type":"function","name":"totalMinted","inputs":[],"outputs":[{"name":"","type":"uint256","internalType":"uint256"}],"stateMutability":"view"},{"type":"function","name":"totalSupply","inputs":[],"outputs":[{"name":"","type":"uint256","internalType":"uint256"}],"stateMutability":"view"},{"type":"function","name":"transfer","inputs":[{"name":"recipient","type":"address","internalType":"address"},{"name":"amount","type":"uint256","internalType":"uint256"}],"outputs":[{"name":"","type":"bool","internalType":"bool"}],"stateMutability":"nonpayable"},{"type":"function","name":"transferFrom","inputs":[{"name":"sender","type":"address","internalType":"address"},{"name":"recipient","type":"address","internalType":"address"},{"name":"amount","type":"uint256","internalType":"uint256"}],"outputs":[{"name":"","type":"bool","internalType":"bool"}],"stateMutability":"nonpayable"},{"type":"event","name":"Approval","inputs":[{"name":"owner","type":"address","indexed":true,"internalType":"address"},{"name":"spender","type":"address","indexed":true,"internalType":"address"},{"name":"value","type":"uint256","indexed":false,"internalType":"uint256"}],"anonymous":false},{"type":"event","name":"Transfer","inputs":[{"name":"from","type":"address","indexed":true,"internalType":"address"},{"name":"to","type":"address","indexed":true,"internalType":"address"},{"name":"value","type":"uint256","indexed":false,"internalType":"uint256"}],"anonymous":false}],"bytecode":{"object":"0x608060405234801561001057600080fd5b50610c63806100206000396000f3fe608060405234801561001057600080fd5b50600436106100db5760003560e01c806306fdde03146100e0578063079d229f1461015d578063095ea7b31461019b57806318160ddd146101db57806323b872dd146101e3578063313ce567146102195780635f2e2b45146102375780636366b9361461026357806370a082311461028057806395d89b41146102a6578063a0712d68146102ae578063a2309ff8146102cd578063a9059cbb146102d5578063b0ac19a014610301578063d89135cd1461033a578063d8ccd0f314610342578063dd62ed3e1461035f575b600080fd5b6100e861038d565b6040805160208082528351818301528351919283929083019185019080838360005b8381101561012257818101518382015260200161010a565b50505050905090810190601f16801561014f5780820380516001836020036101000a031916815260200191505b509250505060405180910390f35b6101896004803603604081101561017357600080fd5b506001600160a01b0381351690602001356103bb565b60408051918252519081900360200190f35b6101c7600480360360408110156101b157600080fd5b506001600160a01b0381351690602001356103ec565b604080519115158252519081900360200190f35b610189610402565b6101c7600480360360608110156101f957600080fd5b506001600160a01b0381358116916020810135909116906040013561040c565b610221610480565b6040805160ff9092168252519081900360200190f35b6101896004803603604081101561024d57600080fd5b506001600160a01b038135169060200135610485565b6101896004803603602081101561027957600080fd5b50356104a6565b6101896004803603602081101561029657600080fd5b50356001600160a01b03166104c3565b6100e86104de565b6102cb600480360360208110156102c457600080fd5b50356104fd565b005b6101896106d1565b6101c7600480360360408110156102eb57600080fd5b506001600160a01b0381351690602001356106d7565b61031e6004803603602081101561031757600080fd5b50356106e4565b604080516001600160a01b039092168252519081900360200190f35b610189610731565b6101896004803603602081101561035857600080fd5b5035610737565b6101896004803603604081101561037557600080fd5b506001600160a01b0381358116916020013516610756565b60405180604001604052806012815260200171086d0d240a8ded6cadc40c4f24062d2dcc6d60731b81525081565b60006103e5836103e06103d6856103d1886104c3565b610781565b6103d18733610756565b610485565b9392505050565b60006103f9338484610797565b50600192915050565b6003546002540390565b60006104198484846107f9565b6001600160a01b038416600090815260016020908152604080832033845290915290205460ff81901c61047557610475853361047086604051806060016040528060288152602001610bc2602891398691906108ad565b610797565b506001949350505050565b600081565b600081156104a0576104978383610944565b6104a0826109aa565b50919050565b60006104bd6104b8836103d1336104c3565b610737565b92915050565b6001600160a01b031660009081526020819052604090205490565b6040518060400160405280600381526020016243484960e81b81525081565b6002547f746d4946c0e9f43f4dee607b0ef1fa1c3318585733ff6000526015600bf30000600052602082045b801561069c5781601e600080f55060018201601e600080f55060028201601e600080f55060038201601e600080f55060048201601e600080f55060058201601e600080f55060068201601e600080f55060078201601e600080f55060088201601e600080f55060098201601e600080f550600a8201601e600080f550600b8201601e600080f550600c8201601e600080f550600d8201601e600080f550600e8201601e600080f550600f8201601e600080f55060108201601e600080f55060118201601e600080f55060128201601e600080f55060138201601e600080f55060148201601e600080f55060158201601e600080f55060168201601e600080f55060178201601e600080f55060188201601e600080f55060198201601e600080f550601a8201601e600080f550601b8201601e600080f550601c8201601e600080f550601d8201601e600080f550601e8201601e600080f550601f8201601e600080f5506020919091019060001901610529565b50601f82165b80156106c05781601e600080f55060019190910190600019016106a2565b506106cb3383610a1a565b60025550565b60025481565b60006103f93384846107f9565b6040516001733fffffffffffedae4fc582f02c8467e13c438179605a1b031981526015810191909152600080516020610ba28339815191526035820152605590206001600160a01b031690565b60035481565b60008115610752576107493383610a81565b610752826109aa565b5090565b6001600160a01b03918216600090815260016020908152604080832093909416825291909152205490565b600081831061079057816103e5565b5090919050565b6001600160a01b03808416600081815260016020908152604080832094871680845294825291829020859055815185815291517f8c5be1e5ebec7d5bd14f71427d1e84f3dd0314c0f7b2291e5b200ac8c7c3b9259281900390910190a3505050565b61083681604051806060016040528060268152602001610b7c602691396001600160a01b03861660009081526020819052604090205491906108ad565b6001600160a01b0380851660009081526020819052604080822093909355908416815220546108659082610b01565b6001600160a01b03808416600081815260208181526040918290209490945580518581529051919392871692600080516020610c0e83398151915292918290030190a3505050565b6000818484111561093c5760405162461bcd60e51b81526004018080602001828103825283818151815260200191508051906020019080838360005b838110156109015781810151838201526020016108e9565b50505050905090810190601f16801561092e5780820380516001836020036101000a031916815260200191505b509250505060405180910390fd5b505050900390565b61094e8282610a81565b6001600160a01b038216600090815260016020908152604080832033845290915290205460ff81901c6109a5576109a5833361047085604051806060016040528060248152602001610bea602491398691906108ad565b505050565b600354818101806003556040516001733fffffffffffedae4fc582f02c8467e13c438179605a1b03198152600080516020610ba28339815191526035820152601581015b82841015610a13578381526000806000806000605587205af1506001840193506109ee565b5050505050565b6001600160a01b038216600090815260208190526040902054610a3d9082610b01565b6001600160a01b038316600081815260208181526040808320949094558351858152935192939192600080516020610c0e8339815191529281900390910190a35050565b610abe81604051806060016040528060228152602001610b5a602291396001600160a01b03851660009081526020819052604090205491906108ad565b6001600160a01b03831660008181526020818152604080832094909455835185815293519193600080516020610c0e833981519152929081900390910190a35050565b6000828201838110156103e5576040805162461bcd60e51b815260206004820152601b60248201527a536166654d6174683a206164646974696f6e206f766572666c6f7760281b604482015290519081900360640190fdfe45524332303a206275726e20616d6f756e7420657863656564732062616c616e636545524332303a207472616e7366657220616d6f756e7420657863656564732062616c616e63653c1644c68e5d6cb380c36d1bf847fdbc0c7ac28030025a2fc5e63cce23c1634845524332303a207472616e7366657220616d6f756e74206578636565647320616c6c6f77616e636545524332303a206275726e20616d6f756e74206578636565647320616c6c6f77616e6365ddf252ad1be2c89b69c2b068fc378daa952ba7f163c4a11628f55a4df523b3efa2646970667358221220dc00e9f9d7f3e885cfeeca4f28321136c3fdf7545a6c3b04812d1f9ea53bdcd764736f6c63430007060033","linkReferences":{}},"methodIdentifiers":{"allowance(address,address)":"dd62ed3e","approve(address,uint256)":"095ea7b3","balanceOf(address)":"70a08231","computeAddress2(uint256)":"b0ac19a0","decimals()":"313ce567","free(uint256)":"d8ccd0f3","freeFrom(address,uint256)":"5f2e2b45","freeFromUpTo(address,uint256)":"079d229f","freeUpTo(uint256)":"6366b936","mint(uint256)":"a0712d68","name()":"06fdde03","symbol()":"95d89b41","totalBurned()":"d89135cd","totalMinted()":"a2309ff8","totalSupply()":"18160ddd","transfer(address,uint256)":"a9059cbb","transferFrom(address,address,uint256)":"23b872dd"},"id":1}