{"abi":[{"type":"function","name":"extractOrderUidParamsTest","inputs":[{"name":"orderUid","type":"bytes","internalType":"bytes"}],"outputs":[{"name":"orderDigest","type":"bytes32","internalType":"bytes32"},{"name":"owner","type":"address","internalType":"address"},{"name":"validTo","type":"uint32","internalType":"uint32"}],"stateMutability":"pure"},{"type":"function","name":"hashTest","inputs":[{"name":"order","type":"tuple","internalType":"struct GPv2Order.Data","components":[{"name":"sellToken","type":"address","internalType":"contract IERC20"},{"name":"buyToken","type":"address","internalType":"contract IERC20"},{"name":"receiver","type":"address","internalType":"address"},{"name":"sellAmount","type":"uint256","internalType":"uint256"},{"name":"buyAmount","type":"uint256","internalType":"uint256"},{"name":"validTo","type":"uint32","internalType":"uint32"},{"name":"appData","type":"bytes32","internalType":"bytes32"},{"name":"feeAmount","type":"uint256","internalType":"uint256"},{"name":"kind","type":"bytes32","internalType":"bytes32"},{"name":"partiallyFillable","type":"bool","internalType":"bool"},{"name":"sellTokenBalance","type":"bytes32","internalType":"bytes32"},{"name":"buyTokenBalance","type":"bytes32","internalType":"bytes32"}]},{"name":"domainSeparator","type":"bytes32","internalType":"bytes32"}],"outputs":[{"name":"orderDigest","type":"bytes32","internalType":"bytes32"}],"stateMutability":"pure"},{"type":"function","name":"packOrderUidParamsTest","inputs":[{"name":"bufferLength","type":"uint256","internalType":"uint256"},{"name":"orderDigest","type":"bytes32","internalType":"bytes32"},{"name":"owner","type":"address","internalType":"address"},{"name":"validTo","type":"uint32","internalType":"uint32"}],"outputs":[{"name":"orderUid","type":"bytes","internalType":"bytes"}],"stateMutability":"pure"},{"type":"function","name":"typeHashTest","inputs":[],"outputs":[{"name":"","type":"bytes32","internalType":"bytes32"}],"stateMutability":"pure"}],"bytecode":{"object":"0x6080604052348015600e575f5ffd5b506104f88061001c5f395ff3fe608060405234801561000f575f5ffd5b506004361061004a575f3560e01c80631164d4e71461004e5780631af5a7aa1461007757806391f84bb214610094578063feb6545f146100d0575b5f5ffd5b61006161005c366004610292565b61011d565b60405161006e91906102d7565b60405180910390f35b5f5160206104a35f395f51905f525b60405190815260200161006e565b6100a76100a236600461030c565b610178565b604080519384526001600160a01b03909216602084015263ffffffff169082015260600161006e565b6100866100de3660046103d0565b601f199190910180515f5160206104a35f395f51905f5282526101a08220915260405161190160f01b8152600281019290925260228201526042902090565b6060846001600160401b0381111561013757610137610378565b6040519080825280601f01601f191660200182016040528015610161576020820181803683370190505b50905061017081858585610192565b949350505050565b5f5f5f61018585856101f6565b9250925092509250925092565b60388451146101e45760405162461bcd60e51b8152602060048201526019602482015278475076323a2075696420627566666572206f766572666c6f7760381b60448201526064015b60405180910390fd5b60388401526034830152602090910152565b5f80806038841461023d5760405162461bcd60e51b815260206004820152601160248201527011d41d8c8e881a5b9d985b1a59081d5a59607a1b60448201526064016101db565b5050823593602084013560601c936034013560e01c92509050565b6001600160a01b038116811461026c575f5ffd5b50565b803561027a81610258565b919050565b803563ffffffff8116811461027a575f5ffd5b5f5f5f5f608085870312156102a5575f5ffd5b843593506020850135925060408501356102be81610258565b91506102cc6060860161027f565b905092959194509250565b602081525f82518060208401528060208501604085015e5f604082850101526040601f19601f83011684010191505092915050565b5f5f6020838503121561031d575f5ffd5b82356001600160401b03811115610332575f5ffd5b8301601f81018513610342575f5ffd5b80356001600160401b03811115610357575f5ffd5b856020828401011115610368575f5ffd5b6020919091019590945092505050565b634e487b7160e01b5f52604160045260245ffd5b60405161018081016001600160401b03811182821017156103bb57634e487b7160e01b5f52604160045260245ffd5b60405290565b8035801515811461027a575f5ffd5b5f5f8284036101a08112156103e3575f5ffd5b6101808112156103f1575f5ffd5b506103fa61038c565b6104038461026f565b81526104116020850161026f565b60208201526104226040850161026f565b6040820152606084810135908201526080808501359082015261044760a0850161027f565b60a082015260c0848101359082015260e08085013590820152610100808501359082015261047861012085016103c1565b6101208201526101408481013590820152610160808501359082015294610180909301359350505056fed5a25ba2e97094ad7d83dc28a6572da797d6b3e7fc6663bd93efb789fc17e489a2646970667358221220603e10650f8a5d18d27e42297aa8e8639cbefa6769a78a232ef8c7403934a67164736f6c634300081c0033","linkReferences":{}},"methodIdentifiers":{"extractOrderUidParamsTest(bytes)":"91f84bb2","hashTest((address,address,address,uint256,uint256,uint32,bytes32,uint256,bytes32,bool,bytes32,bytes32),bytes32)":"feb6545f","packOrderUidParamsTest(uint256,bytes32,address,uint32)":"1164d4e7","typeHashTest()":"1af5a7aa"},"id":33}