{"abi":[{"type":"constructor","inputs":[{"name":"authenticator_","type":"address","internalType":"contract GPv2Authentication"},{"name":"vault","type":"address","internalType":"contract IVault"}],"stateMutability":"nonpayable"},{"type":"receive","stateMutability":"payable"},{"type":"function","name":"authenticator","inputs":[],"outputs":[{"name":"","type":"address","internalType":"contract GPv2Authentication"}],"stateMutability":"view"},{"type":"function","name":"computeTradeExecutionMemoryTest","inputs":[],"outputs":[{"name":"mem","type":"uint256","internalType":"uint256"}],"stateMutability":"nonpayable"},{"type":"function","name":"computeTradeExecutionsTest","inputs":[{"name":"tokens","type":"address[]","internalType":"contract IERC20[]"},{"name":"clearingPrices","type":"uint256[]","internalType":"uint256[]"},{"name":"trades","type":"tuple[]","internalType":"struct GPv2Trade.Data[]","components":[{"name":"sellTokenIndex","type":"uint256","internalType":"uint256"},{"name":"buyTokenIndex","type":"uint256","internalType":"uint256"},{"name":"receiver","type":"address","internalType":"address"},{"name":"sellAmount","type":"uint256","internalType":"uint256"},{"name":"buyAmount","type":"uint256","internalType":"uint256"},{"name":"validTo","type":"uint32","internalType":"uint32"},{"name":"appData","type":"bytes32","internalType":"bytes32"},{"name":"feeAmount","type":"uint256","internalType":"uint256"},{"name":"flags","type":"uint256","internalType":"uint256"},{"name":"executedAmount","type":"uint256","internalType":"uint256"},{"name":"signature","type":"bytes","internalType":"bytes"}]}],"outputs":[{"name":"inTransfers","type":"tuple[]","internalType":"struct GPv2Transfer.Data[]","components":[{"name":"account","type":"address","internalType":"address"},{"name":"token","type":"address","internalType":"contract IERC20"},{"name":"amount","type":"uint256","internalType":"uint256"},{"name":"balance","type":"bytes32","internalType":"bytes32"}]},{"name":"outTransfers","type":"tuple[]","internalType":"struct GPv2Transfer.Data[]","components":[{"name":"account","type":"address","internalType":"address"},{"name":"token","type":"address","internalType":"contract IERC20"},{"name":"amount","type":"uint256","internalType":"uint256"},{"name":"balance","type":"bytes32","internalType":"bytes32"}]}],"stateMutability":"nonpayable"},{"type":"function","name":"domainSeparator","inputs":[],"outputs":[{"name":"","type":"bytes32","internalType":"bytes32"}],"stateMutability":"view"},{"type":"function","name":"executeInteractionsTest","inputs":[{"name":"interactions","type":"tuple[]","internalType":"struct GPv2Interaction.Data[]","components":[{"name":"target","type":"address","internalType":"address"},{"name":"value","type":"uint256","internalType":"uint256"},{"name":"callData","type":"bytes","internalType":"bytes"}]}],"outputs":[],"stateMutability":"nonpayable"},{"type":"function","name":"filledAmount","inputs":[{"name":"","type":"bytes","internalType":"bytes"}],"outputs":[{"name":"","type":"uint256","internalType":"uint256"}],"stateMutability":"view"},{"type":"function","name":"freeFilledAmountStorage","inputs":[{"name":"orderUids","type":"bytes[]","internalType":"bytes[]"}],"outputs":[],"stateMutability":"nonpayable"},{"type":"function","name":"freeFilledAmountStorageTest","inputs":[{"name":"orderUids","type":"bytes[]","internalType":"bytes[]"}],"outputs":[],"stateMutability":"nonpayable"},{"type":"function","name":"freePreSignatureStorage","inputs":[{"name":"orderUids","type":"bytes[]","internalType":"bytes[]"}],"outputs":[],"stateMutability":"nonpayable"},{"type":"function","name":"freePreSignatureStorageTest","inputs":[{"name":"orderUids","type":"bytes[]","internalType":"bytes[]"}],"outputs":[],"stateMutability":"nonpayable"},{"type":"function","name":"getStorageAt","inputs":[{"name":"offset","type":"uint256","internalType":"uint256"},{"name":"length","type":"uint256","internalType":"uint256"}],"outputs":[{"name":"","type":"bytes","internalType":"bytes"}],"stateMutability":"view"},{"type":"function","name":"invalidateOrder","inputs":[{"name":"orderUid","type":"bytes","internalType":"bytes"}],"outputs":[],"stateMutability":"nonpayable"},{"type":"function","name":"preSignature","inputs":[{"name":"","type":"bytes","internalType":"bytes"}],"outputs":[{"name":"","type":"uint256","internalType":"uint256"}],"stateMutability":"view"},{"type":"function","name":"setFilledAmount","inputs":[{"name":"orderUid","type":"bytes","internalType":"bytes"},{"name":"amount","type":"uint256","internalType":"uint256"}],"outputs":[],"stateMutability":"nonpayable"},{"type":"function","name":"setPreSignature","inputs":[{"name":"orderUid","type":"bytes","internalType":"bytes"},{"name":"signed","type":"bool","internalType":"bool"}],"outputs":[],"stateMutability":"nonpayable"},{"type":"function","name":"settle","inputs":[{"name":"tokens","type":"address[]","internalType":"contract IERC20[]"},{"name":"clearingPrices","type":"uint256[]","internalType":"uint256[]"},{"name":"trades","type":"tuple[]","internalType":"struct GPv2Trade.Data[]","components":[{"name":"sellTokenIndex","type":"uint256","internalType":"uint256"},{"name":"buyTokenIndex","type":"uint256","internalType":"uint256"},{"name":"receiver","type":"address","internalType":"address"},{"name":"sellAmount","type":"uint256","internalType":"uint256"},{"name":"buyAmount","type":"uint256","internalType":"uint256"},{"name":"validTo","type":"uint32","internalType":"uint32"},{"name":"appData","type":"bytes32","internalType":"bytes32"},{"name":"feeAmount","type":"uint256","internalType":"uint256"},{"name":"flags","type":"uint256","internalType":"uint256"},{"name":"executedAmount","type":"uint256","internalType":"uint256"},{"name":"signature","type":"bytes","internalType":"bytes"}]},{"name":"interactions","type":"tuple[][3]","internalType":"struct GPv2Interaction.Data[][3]","components":[{"name":"target","type":"address","internalType":"address"},{"name":"value","type":"uint256","internalType":"uint256"},{"name":"callData","type":"bytes","internalType":"bytes"}]}],"outputs":[],"stateMutability":"nonpayable"},{"type":"function","name":"simulateDelegatecall","inputs":[{"name":"targetContract","type":"address","internalType":"address"},{"name":"calldataPayload","type":"bytes","internalType":"bytes"}],"outputs":[{"name":"response","type":"bytes","internalType":"bytes"}],"stateMutability":"nonpayable"},{"type":"function","name":"simulateDelegatecallInternal","inputs":[{"name":"targetContract","type":"address","internalType":"address"},{"name":"calldataPayload","type":"bytes","internalType":"bytes"}],"outputs":[{"name":"response","type":"bytes","internalType":"bytes"}],"stateMutability":"nonpayable"},{"type":"function","name":"swap","inputs":[{"name":"swaps","type":"tuple[]","internalType":"struct IVault.BatchSwapStep[]","components":[{"name":"poolId","type":"bytes32","internalType":"bytes32"},{"name":"assetInIndex","type":"uint256","internalType":"uint256"},{"name":"assetOutIndex","type":"uint256","internalType":"uint256"},{"name":"amount","type":"uint256","internalType":"uint256"},{"name":"userData","type":"bytes","internalType":"bytes"}]},{"name":"tokens","type":"address[]","internalType":"contract IERC20[]"},{"name":"trade","type":"tuple","internalType":"struct GPv2Trade.Data","components":[{"name":"sellTokenIndex","type":"uint256","internalType":"uint256"},{"name":"buyTokenIndex","type":"uint256","internalType":"uint256"},{"name":"receiver","type":"address","internalType":"address"},{"name":"sellAmount","type":"uint256","internalType":"uint256"},{"name":"buyAmount","type":"uint256","internalType":"uint256"},{"name":"validTo","type":"uint32","internalType":"uint32"},{"name":"appData","type":"bytes32","internalType":"bytes32"},{"name":"feeAmount","type":"uint256","internalType":"uint256"},{"name":"flags","type":"uint256","internalType":"uint256"},{"name":"executedAmount","type":"uint256","internalType":"uint256"},{"name":"signature","type":"bytes","internalType":"bytes"}]}],"outputs":[],"stateMutability":"nonpayable"},{"type":"function","name":"vault","inputs":[],"outputs":[{"name":"","type":"address","internalType":"contract IVault"}],"stateMutability":"view"},{"type":"function","name":"vaultRelayer","inputs":[],"outputs":[{"name":"","type":"address","internalType":"contract GPv2VaultRelayer"}],"stateMutability":"view"},{"type":"event","name":"Interaction","inputs":[{"name":"target","type":"address","indexed":true,"internalType":"address"},{"name":"value","type":"uint256","indexed":false,"internalType":"uint256"},{"name":"selector","type":"bytes4","indexed":false,"internalType":"bytes4"}],"anonymous":false},{"type":"event","name":"OrderInvalidated","inputs":[{"name":"owner","type":"address","indexed":true,"internalType":"address"},{"name":"orderUid","type":"bytes","indexed":false,"internalType":"bytes"}],"anonymous":false},{"type":"event","name":"PreSignature","inputs":[{"name":"owner","type":"address","indexed":true,"internalType":"address"},{"name":"orderUid","type":"bytes","indexed":false,"internalType":"bytes"},{"name":"signed","type":"bool","indexed":false,"internalType":"bool"}],"anonymous":false},{"type":"event","name":"Settlement","inputs":[{"name":"solver","type":"address","indexed":true,"internalType":"address"}],"anonymous":false},{"type":"event","name":"Trade","inputs":[{"name":"owner","type":"address","indexed":true,"internalType":"address"},{"name":"sellToken","type":"address","indexed":false,"internalType":"contract IERC20"},{"name":"buyToken","type":"address","indexed":false,"internalType":"contract IERC20"},{"name":"sellAmount","type":"uint256","indexed":false,"internalType":"uint256"},{"name":"buyAmount","type":"uint256","indexed":false,"internalType":"uint256"},{"name":"feeAmount","type":"uint256","indexed":false,"internalType":"uint256"},{"name":"orderUid","type":"bytes","indexed":false,"internalType":"bytes"}],"anonymous":false}],"bytecode":{"object":"0x610100604052348015610010575f5ffd5b506040516148ee3803806148ee83398101604081905261002f91610160565b604080517f8b73c3c69bb8fe3d512ecc4cf759cc79239f7b179b0ffacaa9a75d522b39400f60208201527f6c85c0337eba1661327f94f3bf46c8a7f9311a563f4d5c948362567f5d8ed60c918101919091527ff9446b8e937d86f0bc87cac73923491692b123ca5f8761908494703758206adf606082015246608082018190523060a0830152839183919060c00160408051601f19818403018152908290528051602090910120608052600180556001600160a01b0380851660a052831660c0528291506100fc9061013c565b6001600160a01b039091168152602001604051809103905ff080158015610125573d5f5f3e3d5ffd5b506001600160a01b031660e0525061019892505050565b61104e806138a083390190565b6001600160a01b038116811461015d575f5ffd5b50565b5f5f60408385031215610171575f5ffd5b825161017c81610149565b602084015190925061018d81610149565b809150509250929050565b60805160a05160c05160e0516136a46101fc5f395f81816102da015281816105bb01528181610c7c015261126401525f8181610425015261064001525f8181610177015281816104e4015261090c01525f81816103d30152611f0e01526136a45ff3fe6080604052600436106100fc575f3560e01c80630b33f6dc1461010757806313d79a0b1461012857806315337bc0146101475780632335c76b146101665780632479fb6e146101af57806325cd84f3146101f45780634309838a1461022157806343218e19146102405780635624b25b1461026c578063606556021461028b578063845a101f146102aa5780639b552cc2146102c95780639c5cf459146102fc578063a2a7d51b1461031b578063cd54ef511461033a578063d08d33d11461034e578063ec6cb13f14610384578063ed9f35ce146103a3578063f698da25146103c2578063f84436bd146103f5578063fbfa77cf14610414575f5ffd5b3661010357005b5f5ffd5b348015610112575f5ffd5b5061012661012136600461281a565b610447565b005b348015610133575f5ffd5b50610126610142366004612858565b61049d565b348015610152575f5ffd5b5061012661016136600461295f565b610697565b348015610171575f5ffd5b506101997f000000000000000000000000000000000000000000000000000000000000000081565b6040516101a69190612991565b60405180910390f35b3480156101ba575f5ffd5b506101e66101c9366004612a54565b805160208183018101805160028252928201919093012091525481565b6040519081526020016101a6565b3480156101ff575f5ffd5b5061021361020e366004612a85565b61076c565b6040516101a6929190612b97565b34801561022c575f5ffd5b5061012661023b36600461281a565b61078c565b34801561024b575f5ffd5b5061025f61025a366004612bd2565b61079a565b6040516101a69190612c4c565b348015610277575f5ffd5b5061025f610286366004612c5e565b61082b565b348015610296575f5ffd5b506101266102a5366004612c7e565b6108a6565b3480156102b5575f5ffd5b506101266102c4366004612cc5565b6108ce565b3480156102d4575f5ffd5b506101997f000000000000000000000000000000000000000000000000000000000000000081565b348015610307575f5ffd5b5061012661031636600461281a565b610f40565b348015610326575f5ffd5b5061012661033536600461281a565b610f65565b348015610345575f5ffd5b506101e6610f8f565b348015610359575f5ffd5b506101e6610368366004612a54565b80516020818301810180515f8252928201919093012091525481565b34801561038f575f5ffd5b5061012661039e366004612d6f565b610fd8565b3480156103ae575f5ffd5b506101266103bd36600461281a565b6110e6565b3480156103cd575f5ffd5b506101e67f000000000000000000000000000000000000000000000000000000000000000081565b348015610400575f5ffd5b5061025f61040f366004612bd2565b611111565b34801561041f575f5ffd5b506101997f000000000000000000000000000000000000000000000000000000000000000081565b60405163a2a7d51b60e01b8152309063a2a7d51b9061046c9085908590600401612e2a565b5f604051808303815f87803b158015610483575f5ffd5b505af1158015610495573d5f5f3e3d5ffd5b505050505050565b6002600154036104c85760405162461bcd60e51b81526004016104bf90612e8f565b60405180910390fd5b60026001556040516302cc250d60e01b81526001600160a01b037f000000000000000000000000000000000000000000000000000000000000000016906302cc250d90610519903390600401612991565b602060405180830381865afa158015610534573d5f5f3e3d5ffd5b505050506040513d601f19601f820116820180604052508101906105589190612ec6565b6105745760405162461bcd60e51b81526004016104bf90612ee1565b61058f815f5b60200281019061058a9190612f21565b611229565b5f5f61059f898989898989611362565b604051637d10d11f60e01b815291935091506001600160a01b037f00000000000000000000000000000000000000000000000000000000000000001690637d10d11f906105f0908590600401612f66565b5f604051808303815f87803b158015610607575f5ffd5b505af1158015610619573d5f5f3e3d5ffd5b505050506106338360016003811061057a5761057a612f0d565b6106666001600160a01b037f000000000000000000000000000000000000000000000000000000000000000016826114e5565b61067183600261057a565b60405133905f51602061362f5f395f51905f52905f90a250506001805550505050505050565b5f6106a28383611764565b509150506001600160a01b03811633146106fe5760405162461bcd60e51b815260206004820152601f60248201527f475076323a2063616c6c657220646f6573206e6f74206f776e206f726465720060448201526064016104bf565b5f1960028484604051610712929190612f78565b908152602001604051809103902081905550806001600160a01b03167f875b6cb035bbd4ac6500fabc6d1e4ca5bdc58a3e2b424ccb5c24cdbebeb009a9848460405161075f929190612f87565b60405180910390a2505050565b60608061077d888888888888611362565b90999098509650505050505050565b6107968282611229565b5050565b60605f836001600160a01b0316836040516107b59190612fb1565b5f60405180830381855af49150503d805f81146107ed576040519150601f19603f3d011682016040523d82523d5f602084013e6107f2565b606091505b50604051909350909150610824906108109084908490602001612fbc565b6040516020818303038152906040526117c6565b5092915050565b60605f610839836020612fed565b6001600160401b03811115610850576108506129a5565b6040519080825280601f01601f19166020018201604052801561087a576020820181803683370190505b5090505f5b8381101561089c578481015460208083028401015260010161087f565b5090505b92915050565b80600284846040516108b9929190612f78565b90815260405190819003602001902055505050565b6002600154036108f05760405162461bcd60e51b81526004016104bf90612e8f565b60026001556040516302cc250d60e01b81526001600160a01b037f000000000000000000000000000000000000000000000000000000000000000016906302cc250d90610941903390600401612991565b602060405180830381865afa15801561095c573d5f5f3e3d5ffd5b505050506040513d601f19601f820116820180604052508101906109809190612ec6565b61099c5760405162461bcd60e51b81526004016104bf90612ee1565b5f6109a56117ce565b80519091506109b6828686866117fb565b5f5f51602061360f5f395f51905f52826101000151146109d75760016109d9565b5f5b604080516080810182525f808252602082018181528284018281526060808501848152958a01516001600160a01b0390811686526101408a01515f51602061364f5f395f51905f52908114909452908a015116905261016087015114909252919250866001600160401b03811115610a5357610a536129a5565b604051908082528060200260200182016040528015610a7c578160200160208202803683370190505b50610100850151909150610120870135907f0c4d888d74c0118b6b7e14c1f4c4b767f24454879a703be6fda34e9111cb988b01610b64578460800151811015610afd5760405162461bcd60e51b8152602060048201526013602482015272475076323a206c696d697420746f6f206c6f7760681b60448201526064016104bf565b610b0a856060015161187d565b82885f013581518110610b1f57610b1f612f0d565b602002602001018181525050610b348161187d565b610b3d90613004565b82886020013581518110610b5357610b53612f0d565b602002602001018181525050610c12565b8460600151811115610baf5760405162461bcd60e51b815260206004820152601460248201527308ea0ec647440d8d2dad2e840e8dede40d0d2ced60631b60448201526064016104bf565b610bb88161187d565b82885f013581518110610bcd57610bcd612f0d565b602002602001018181525050610be6856080015161187d565b610bef90613004565b82886020013581518110610c0557610c05612f0d565b6020026020010181815250505b610c1a61271a565b8660400151815f01906001600160a01b031690816001600160a01b031681525050855f015181602001906001600160a01b031690816001600160a01b0316815250508560e001518160400181815250508561014001518160600181815250505f7f00000000000000000000000000000000000000000000000000000000000000006001600160a01b0316634817a286878f8f8f8f8b8b8f60a001518b6040518a63ffffffff1660e01b8152600401610cda999897969594939291906130a0565b5f604051808303815f875af1158015610cf5573d5f5f3e3d5ffd5b505050506040513d5f823e601f3d908101601f19168201604052610d1c91908101906131f6565b90505f886020015190505f610d4c838c5f013581518110610d3f57610d3f612f0d565b60200260200101516118d5565b90505f610d7e848d6020013581518110610d6857610d68612f0d565b6020026020010151610d7990613004565b6118d5565b9050600283604051610d909190612fb1565b9081526020016040518091039020545f14610dbd5760405162461bcd60e51b81526004016104bf9061329c565b5f51602061360f5f395f51905f528a610100015103610e535789606001518214610e295760405162461bcd60e51b815260206004820152601f60248201527f475076323a2073656c6c20616d6f756e74206e6f74207265737065637465640060448201526064016104bf565b8960600151600284604051610e3e9190612fb1565b90815260405190819003602001902055610ecc565b89608001518114610ea65760405162461bcd60e51b815260206004820152601e60248201527f475076323a2062757920616d6f756e74206e6f7420726573706563746564000060448201526064016104bf565b8960800151600284604051610ebb9190612fb1565b908152604051908190036020019020555b8a604001516001600160a01b03165f5160206135af5f395f51905f528b5f01518c6020015185858f60e0015189604051610f0b969594939291906132c8565b60405180910390a260405133905f51602061362f5f395f51905f52905f90a25050600180555050505050505050505050505050565b6040516376cf9ae760e11b8152309063ed9f35ce9061046c9085908590600401612e2a565b303314610f845760405162461bcd60e51b81526004016104bf90613314565b6107965f838361191f565b5f610f98612750565b610fa061271a565b610fa861271a565b604051835163ffffffff421660a0909101529350610fcb836001805f86866119e1565b8360405103935050505090565b5f610fe38484611764565b509150506001600160a01b038116331461103c5760405162461bcd60e51b815260206004820152601a60248201527923a83b191d1031b0b73737ba10383932b9b4b3b71037b93232b960311b60448201526064016104bf565b8115611078575f5160206135ef5f395f51905f525f1c5f8585604051611063929190612f78565b9081526040519081900360200190205561109b565b5f5f858560405161108a929190612f78565b908152604051908190036020019020555b806001600160a01b03167f01bf7c8b0ca55deecbea89d7e58295b7ffbf685fd0d96801034ba8c6ffe1c68d8585856040516110d893929190613346565b60405180910390a250505050565b3033146111055760405162461bcd60e51b81526004016104bf90613314565b6107966002838361191f565b60605f6343218e1960e01b848460405160240161112f92919061336b565b60408051601f198184030181529181526020820180516001600160e01b03166001600160e01b03199094169390931790925290519091503090611173908390612fb1565b5f604051808303815f865af19150503d805f81146111ac576040519150601f19603f3d011682016040523d82523d5f602084013e6111b1565b606091505b509050809250505f82600184516111c8919061338e565b815181106111d8576111d8612f0d565b602001015160f81c60f81b6001600160f81b031916600160f81b14905061120b8360018551611207919061338e565b9052565b80156112185750506108a0565b611221836117c6565b505092915050565b5f5b8181101561135d573683838381811061124657611246612f0d565b905060200281019061125891906133a1565b90506001600160a01b037f00000000000000000000000000000000000000000000000000000000000000001661129160208301836133bf565b6001600160a01b0316036112e55760405162461bcd60e51b815260206004820152601b60248201527a23a83b191d103337b93134b23232b71034b73a32b930b1ba34b7b760291b60448201526064016104bf565b6112ee81611cd6565b6112fb60208201826133bf565b6001600160a01b03167fed99827efb37016f2275f98c4bcf71c7551c75d59e9b450f79fa32e60be672c2826020013561133384611d19565b604080519283526001600160e01b031990911660208301520160405180910390a25060010161122b565b505050565b6060805f61136e6117ce565b9050836001600160401b03811115611388576113886129a5565b6040519080825280602002602001820160405280156113c157816020015b6113ae61271a565b8152602001906001900390816113a65790505b509250836001600160401b038111156113dc576113dc6129a5565b60405190808252806020026020018201604052801561141557816020015b61140261271a565b8152602001906001900390816113fa5790505b5091505f5b848110156114d8573686868381811061143557611435612f0d565b905060200281019061144791906133da565b9050611455838c8c846117fb565b6114cf838a8a843581811061146c5761146c612f0d565b905060200201358b8b856020013581811061148957611489612f0d565b905060200201358461012001358987815181106114a8576114a8612f0d565b60200260200101518988815181106114c2576114c2612f0d565b60200260200101516119e1565b5060010161141a565b5050965096945050505050565b5f81516001600160401b038111156114ff576114ff6129a5565b60405190808252806020026020018201604052801561155657816020015b6040805160a0810182525f808252602080830182905292820181905260608201819052608082015282525f1990920191018161151d5790505b5090505f805b83518110156116fa575f84828151811061157857611578612f0d565b6020026020010151905073eeeeeeeeeeeeeeeeeeeeeeeeeeeeeeeeeeeeeeee6001600160a01b031681602001516001600160a01b031603611653575f51602061364f5f395f51905f528160600151036116135760405162461bcd60e51b815260206004820152601e60248201527f475076323a20756e737570706f7274656420696e7465726e616c20455448000060448201526064016104bf565b805160408083015190516001600160a01b039092169181156108fc0291905f818181858888f1935050505015801561164d573d5f5f3e3d5ffd5b506116f1565b5f5160206135cf5f395f51905f528160600151036116915780516040820151602083015161168c926001600160a01b0390911691611d42565b6116f1565b5f848461169d816133ef565b9550815181106116af576116af612f0d565b6020908102919091018101515f8152838201516001600160a01b0390811692820192909252604080850151908201523060608201528351909116608090910152505b5060010161155c565b50801561175e578082526040516303a38fa160e21b81526001600160a01b03851690630e8e3e8490611730908590600401613407565b5f604051808303815f87803b158015611747575f5ffd5b505af1158015611759573d5f5f3e3d5ffd5b505050505b50505050565b5f8080603884146117ab5760405162461bcd60e51b815260206004820152601160248201527011d41d8c8e881a5b9d985b1a59081d5a59607a1b60448201526064016104bf565b5050823593602084013560601c936034013560e01c92509050565b805160208201fd5b6117d6612750565b6040805160388082526060820190925290602082018180368337505050602082015290565b83515f61180a83868685611dca565b90505f806118268484611821610140890189613495565b611ed0565b9150915061184982828660a001518b60200151611fcd909392919063ffffffff16565b6001600160a01b0381166040890152611862848261202c565b6001600160a01b031660609098019790975250505050505050565b5f6001600160ff1b038211156118d15760405162461bcd60e51b815260206004820152601960248201527853616665436173743a20696e74323536206f766572666c6f7760381b60448201526064016104bf565b5090565b5f5f8212156118d15760405162461bcd60e51b815260206004820152601660248201527553616665436173743a206e6f7420706f73697469766560501b60448201526064016104bf565b5f5b8181101561175e57365f84848481811061193d5761193d612f0d565b905060200281019061194f9190613495565b915091505f61195e8383611764565b92505050428163ffffffff16106119b15760405162461bcd60e51b815260206004820152601760248201527611d41d8c8e881bdc99195c881cdd1a5b1b081d985b1a59604a1b60448201526064016104bf565b5f8784846040516119c3929190612f78565b90815260405190819003602001902055505060019091019050611921565b8551602087015160a08201514263ffffffff9091161015611a3a5760405162461bcd60e51b815260206004820152601360248201527211d41d8c8e881bdc99195c88195e1c1a5c9959606a1b60448201526064016104bf565b6080820151611a499087612050565b6060830151611a589089612050565b1015611aa65760405162461bcd60e51b815260206004820152601f60248201527f475076323a206c696d6974207072696365206e6f74207265737065637465640060448201526064016104bf565b5f5f5f5f5f51602061360f5f395f51905f5286610100015103611b775785610120015115611afd57889350611af68660600151611af0868960e0015161205090919063ffffffff16565b906120c4565b9150611b0c565b856060015193508560e0015191505b611b208a611b1a868e612050565b90612118565b9250611b4c84600287604051611b369190612fb1565b9081526040519081900360200190205490612197565b90508560600151811115611b725760405162461bcd60e51b81526004016104bf9061329c565b611c04565b85610120015115611bab57889250611ba48660800151611af0858960e0015161205090919063ffffffff16565b9150611bba565b856080015192508560e0015191505b611bc88b611af0858d612050565b9350611bde83600287604051611b369190612fb1565b90508560800151811115611c045760405162461bcd60e51b81526004016104bf9061329c565b611c0e8483612197565b935080600286604051611c219190612fb1565b9081526020016040518091039020819055508b604001516001600160a01b03165f5160206135af5f395f51905f52875f015188602001518787878b604051611c6e969594939291906132c8565b60405180910390a250506040808b01516001600160a01b039081168852855181166020808a0191909152888301949094526101408601516060988901529a8701518b16865282850151909a169185019190915297830197909752610160015191015250505050565b5f611ce460208301836133bf565b90506020820135365f611cfa6040860186613495565b91509150604051818382375f5f838387895af1610495573d5f5f3e3d5ffd5b5f3681611d296040850185613495565b909250905060048110611d3b57813592505b5050919050565b60405163a9059cbb60e01b8082526001600160a01b038416600483015260248201839052905f8060448382895af1611d7c573d5f5f3e3d5ffd5b50611d86846121f3565b61175e5760405162461bcd60e51b815260206004820152601560248201527423a83b191d103330b4b632b2103a3930b739b332b960591b60448201526064016104bf565b5f83838635818110611dde57611dde612f0d565b9050602002016020810190611df391906133bf565b6001600160a01b0316825283836020870135818110611e1457611e14612f0d565b9050602002016020810190611e2991906133bf565b6001600160a01b03166020830152611e4760608601604087016133bf565b6001600160a01b031660408301526060808601359083015260808086013590830152611e7960c0860160a087016134d7565b63ffffffff1660a083015260c0808601359083015260e08086013590830152611ea6610100860135612296565b61016087019190915261014086019190915290151561012085015261010090930152509392505050565b601f19840180517fd5a25ba2e97094ad7d83dc28a6572da797d6b3e7fc6663bd93efb789fc17e48982526101a08220915260405161190160f01b81527f000000000000000000000000000000000000000000000000000000000000000060028201526022810191909152604290205f80856003811115611f5257611f5261301e565b03611f6957611f62828585612399565b9050611fc4565b6001856003811115611f7d57611f7d61301e565b03611f8d57611f628285856123ad565b6002856003811115611fa157611fa161301e565b03611fb157611f6282858561240f565b611fc18285858960a001516124f9565b90505b94509492505050565b603884511461201a5760405162461bcd60e51b8152602060048201526019602482015278475076323a2075696420627566666572206f766572666c6f7760381b60448201526064016104bf565b60388401526034830152602090910152565b60408201515f906001600160a01b03166120475750806108a0565b50506040015190565b5f825f0361205f57505f6108a0565b5f61206a8385612fed565b905082612077858361350e565b146120bd5760405162461bcd60e51b8152602060048201526016602482015275536166654d6174683a206d756c206f766572666c6f7760501b60448201526064016104bf565b9392505050565b5f5f821161210e5760405162461bcd60e51b81526020600482015260176024820152760536166654d6174683a206469766973696f6e206279203604c1b60448201526064016104bf565b6120bd828461350e565b5f5f82116121685760405162461bcd60e51b815260206004820152601f60248201527f536166654d6174683a206365696c696e67206469766973696f6e20627920300060448201526064016104bf565b6121728284613521565b1561217e576001612180565b5f5b60ff1661218d838561350e565b6120bd9190613534565b5f806121a38385613534565b9050838110156120bd5760405162461bcd60e51b815260206004820152601b60248201527a536166654d6174683a206164646974696f6e206f766572666c6f7760281b60448201526064016104bf565b5f612215565b62461bcd60e51b5f52602060045280602452508060445260645ffd5b3d801561225457602081146122855761224f7f475076323a206d616c666f726d6564207472616e7366657220726573756c7400601f6121f9565b612290565b823b61227c5761227c7311d41d8c8e881b9bdd08184818dbdb9d1c9858dd60621b60146121f9565b60019150612290565b3d5f5f3e5f51151591505b50919050565b5f5f5f5f5f856001165f036122ba575f51602061360f5f395f51905f5294506122de565b7f6ed88e868af0a1983e3886d5f3e95a2fafbd6c3450bc229e27342283dc429ccc94505b6002861615159350600886165f03612305575f5160206135cf5f395f51905f529250612348565b856004165f03612337577fabee3b73373acd583a130924aad6dc38cfdc44ba0555ba94ce2ff63980ea06329250612348565b5f51602061364f5f395f51905f5292505b856010165f03612367575f5160206135cf5f395f51905f529150612378565b5f51602061364f5f395f51905f5291505b600586901c600381111561238e5761238e61301e565b905091939590929450565b5f6123a58484846125ff565b949350505050565b6040517b0ca2ba3432b932bab69029b4b3b732b21026b2b9b9b0b3b29d05199960211b6020820152603c81018490525f908190605c016040516020818303038152906040528051906020012090506124068185856125ff565b95945050505050565b813560601c365f6124238460148188613547565b604051630b135d3f60e11b8082529294509092506001600160a01b03851690631626ba7e9061245a908a908790879060040161356e565b602060405180830381865afa158015612475573d5f5f3e3d5ffd5b505050506040513d601f19601f820116820180604052508101906124999190613587565b6001600160e01b031916146124f05760405162461bcd60e51b815260206004820152601f60248201527f475076323a20696e76616c69642065697031323731207369676e61747572650060448201526064016104bf565b50509392505050565b5f601483146125495760405162461bcd60e51b815260206004820152601c60248201527b475076323a206d616c666f726d6564207072657369676e617475726560201b60448201526064016104bf565b506040805160388082526060828101909352853590921c915f919060208201818036833701905050905061257f81878486611fcd565b5f5160206135ef5f395f51905f525f1c5f8260405161259e9190612fb1565b908152602001604051809103902054146125f65760405162461bcd60e51b815260206004820152601960248201527811d41d8c8e881bdc99195c881b9bdd081c1c995cda59db9959603a1b60448201526064016104bf565b50949350505050565b5f604182146126505760405162461bcd60e51b815260206004820152601f60248201527f475076323a206d616c666f726d6564206563647361207369676e61747572650060448201526064016104bf565b604080515f815260208082018084528790528583013560f81c92820183905285356060830181905290860135608083018190529092909160019060a0016020604051602081039080840390855afa1580156126ad573d5f5f3e3d5ffd5b5050604051601f1901519450506001600160a01b0384166127105760405162461bcd60e51b815260206004820152601d60248201527f475076323a20696e76616c6964206563647361207369676e617475726500000060448201526064016104bf565b5050509392505050565b60405180608001604052805f6001600160a01b031681526020015f6001600160a01b031681526020015f81526020015f81525090565b60408051610200810182525f6080820181815260a0830182905260c0830182905260e08301829052610100830182905261012083018290526101408301829052610160830182905261018083018290526101a083018290526101c083018290526101e0830182905282526060602083018190529282018190529181019190915290565b5f5f83601f8401126127e3575f5ffd5b5081356001600160401b038111156127f9575f5ffd5b6020830191508360208260051b8501011115612813575f5ffd5b9250929050565b5f5f6020838503121561282b575f5ffd5b82356001600160401b03811115612840575f5ffd5b61284c858286016127d3565b90969095509350505050565b5f5f5f5f5f5f5f6080888a03121561286e575f5ffd5b87356001600160401b03811115612883575f5ffd5b61288f8a828b016127d3565b90985096505060208801356001600160401b038111156128ad575f5ffd5b6128b98a828b016127d3565b90965094505060408801356001600160401b038111156128d7575f5ffd5b6128e38a828b016127d3565b90945092505060608801356001600160401b03811115612901575f5ffd5b8801606081018a1015612912575f5ffd5b8091505092959891949750929550565b5f5f83601f840112612932575f5ffd5b5081356001600160401b03811115612948575f5ffd5b602083019150836020828501011115612813575f5ffd5b5f5f60208385031215612970575f5ffd5b82356001600160401b03811115612985575f5ffd5b61284c85828601612922565b6001600160a01b0391909116815260200190565b634e487b7160e01b5f52604160045260245ffd5b604051601f8201601f191681016001600160401b03811182821017156129e1576129e16129a5565b604052919050565b5f82601f8301126129f8575f5ffd5b81356001600160401b03811115612a1157612a116129a5565b612a24601f8201601f19166020016129b9565b818152846020838601011115612a38575f5ffd5b816020850160208301375f918101602001919091529392505050565b5f60208284031215612a64575f5ffd5b81356001600160401b03811115612a79575f5ffd5b6123a5848285016129e9565b5f5f5f5f5f5f60608789031215612a9a575f5ffd5b86356001600160401b03811115612aaf575f5ffd5b612abb89828a016127d3565b90975095505060208701356001600160401b03811115612ad9575f5ffd5b612ae589828a016127d3565b90955093505060408701356001600160401b03811115612b03575f5ffd5b612b0f89828a016127d3565b979a9699509497509295939492505050565b80516001600160a01b0390811683526020808301519091169083015260408082015190830152606090810151910152565b5f8151808452602084019350602083015f5b82811015612b8d57612b77868351612b21565b6080959095019460209190910190600101612b64565b5093949350505050565b604081525f612ba96040830185612b52565b82810360208401526124068185612b52565b6001600160a01b0381168114612bcf575f5ffd5b50565b5f5f60408385031215612be3575f5ffd5b8235612bee81612bbb565b915060208301356001600160401b03811115612c08575f5ffd5b612c14858286016129e9565b9150509250929050565b5f81518084528060208401602086015e5f602082860101526020601f19601f83011685010191505092915050565b602081525f6120bd6020830184612c1e565b5f5f60408385031215612c6f575f5ffd5b50508035926020909101359150565b5f5f5f60408486031215612c90575f5ffd5b83356001600160401b03811115612ca5575f5ffd5b612cb186828701612922565b909790965060209590950135949350505050565b5f5f5f5f5f60608688031215612cd9575f5ffd5b85356001600160401b03811115612cee575f5ffd5b612cfa888289016127d3565b90965094505060208601356001600160401b03811115612d18575f5ffd5b612d24888289016127d3565b90945092505060408601356001600160401b03811115612d42575f5ffd5b86016101608189031215612d54575f5ffd5b809150509295509295909350565b8015158114612bcf575f5ffd5b5f5f5f60408486031215612d81575f5ffd5b83356001600160401b03811115612d96575f5ffd5b612da286828701612922565b9094509250506020840135612db681612d62565b809150509250925092565b81835281816020850137505f828201602090810191909152601f909101601f19169091010190565b5f5f8335601e19843603018112612dfe575f5ffd5b83016020810192503590506001600160401b03811115612e1c575f5ffd5b803603821315612813575f5ffd5b602080825281018290525f6040600584901b8301810190830185835b86811015612e8357858403603f19018352612e618289612de9565b612e6c868284612dc1565b955050506020928301929190910190600101612e46565b50919695505050505050565b6020808252601f908201527f5265656e7472616e637947756172643a207265656e7472616e742063616c6c00604082015260600190565b5f60208284031215612ed6575f5ffd5b81516120bd81612d62565b60208082526012908201527123a83b191d103737ba10309039b7b63b32b960711b604082015260600190565b634e487b7160e01b5f52603260045260245ffd5b5f5f8335601e19843603018112612f36575f5ffd5b8301803591506001600160401b03821115612f4f575f5ffd5b6020019150600581901b3603821315612813575f5ffd5b602081525f6120bd6020830184612b52565b818382375f9101908152919050565b602081525f6123a5602083018486612dc1565b5f81518060208401855e5f93019283525090919050565b5f6120bd8284612f9a565b5f612fc78285612f9a565b92151560f81b83525050600101919050565b634e487b7160e01b5f52601160045260245ffd5b80820281158282048414176108a0576108a0612fd9565b5f600160ff1b820161301857613018612fd9565b505f0390565b634e487b7160e01b5f52602160045260245ffd5b8183526020830192505f815f5b84811015612b8d57813561305281612bbb565b6001600160a01b03168652602095860195919091019060010161303f565b5f8151808452602084019350602083015f5b82811015612b8d578151865260209586019590910190600101613082565b5f6101a0820160028c106130b6576130b661301e565b8b83526101a060208401528990526101c060058a901b830181019083018b5f609e1936839003015b8d821015613160578685036101bf1901845282358181126130fd575f5ffd5b8f018035865260208082013590870152604080820135908701526060808201359087015261312e6080820182612de9565b915060a0608088015261314560a088018383612dc1565b965050506020830192506020840193506001820191506130de565b50505050828103604084015261317781898b613032565b87516001600160a01b0390811660608681019190915260208a01511515608087015260408a015190911660a0860152880151151560c0850152905082810360e08401526131c48187613070565b9150506131da61010083018563ffffffff169052565b6131e8610120830184612b21565b9a9950505050505050505050565b5f60208284031215613206575f5ffd5b81516001600160401b0381111561321b575f5ffd5b8201601f8101841361322b575f5ffd5b80516001600160401b03811115613244576132446129a5565b8060051b613254602082016129b9565b9182526020818401810192908101908784111561326f575f5ffd5b6020850194505b83851015613291578451825260209485019490910190613276565b979650505050505050565b60208082526012908201527111d41d8c8e881bdc99195c88199a5b1b195960721b604082015260600190565b6001600160a01b0387811682528616602082015260408101859052606081018490526080810183905260c060a082018190525f9061330890830184612c1e565b98975050505050505050565b60208082526018908201527723a83b191d103737ba1030b71034b73a32b930b1ba34b7b760411b604082015260600190565b604081525f613359604083018587612dc1565b90508215156020830152949350505050565b6001600160a01b03831681526040602082018190525f906123a590830184612c1e565b818103818111156108a0576108a0612fd9565b5f8235605e198336030181126133b5575f5ffd5b9190910192915050565b5f602082840312156133cf575f5ffd5b81356120bd81612bbb565b5f823561015e198336030181126133b5575f5ffd5b5f6001820161340057613400612fd9565b5060010190565b602080825282518282018190525f918401906040840190835b8181101561348a57835180516004811061343c5761343c61301e565b84526020818101516001600160a01b0390811682870152604080840151908701526060808401518216908701526080928301511691850191909152939093019260a090920191600101613420565b509095945050505050565b5f5f8335601e198436030181126134aa575f5ffd5b8301803591506001600160401b038211156134c3575f5ffd5b602001915036819003821315612813575f5ffd5b5f602082840312156134e7575f5ffd5b813563ffffffff811681146120bd575f5ffd5b634e487b7160e01b5f52601260045260245ffd5b5f8261351c5761351c6134fa565b500490565b5f8261352f5761352f6134fa565b500690565b808201808211156108a0576108a0612fd9565b5f5f85851115613555575f5ffd5b83861115613561575f5ffd5b5050820193919092039150565b838152604060208201525f612406604083018486612dc1565b5f60208284031215613597575f5ffd5b81516001600160e01b0319811681146120bd575f5ffdfea07a543ab8a018198e99ca0184c93fe9050a79400a0a723441f84de1d972cc175a28e9363bb942b639270062aa6bb295f434bcdfc42c97267bf003f272060dc9f59c009283ff87aa78203fc4d9c2df025ee851130fb69cc3e068941f6b5e2d6ff3b277728b3fee749481eb3e0b3b48980dbbab78658fc419025cb16eee34677540338ce1a7c49204f0099533b1e9a7ee0a3d261f84974ab7af36105b8c4e9db44ac99ace14ee0a5ef932dc609df0943ab7ac16b7583634612f8dc35a4289a6cea2646970667358221220203bc12241153d140eed4a8c47aea2ea7df5117ba39d39bc3ec19f3a4a61c6a864736f6c634300081c003360c060405234801561000f575f5ffd5b5060405161104e38038061104e83398101604081905261002e91610043565b336080526001600160a01b031660a052610070565b5f60208284031215610053575f5ffd5b81516001600160a01b0381168114610069575f5ffd5b9392505050565b60805160a051610faa6100a45f395f818160e00152818161017201526101fa01525f8181608301526101b00152610faa5ff3fe608060405234801561000f575f5ffd5b5060043610610034575f3560e01c80634817a286146100385780637d10d11f14610061575b5f5ffd5b61004b6100463660046109ef565b610076565b6040516100589190610afd565b60405180910390f35b61007461006f366004610b16565b6101a5565b005b6060336001600160a01b037f000000000000000000000000000000000000000000000000000000000000000016146100c95760405162461bcd60e51b81526004016100c090610b85565b60405180910390fd5b60405163945bcec960e01b81526001600160a01b037f0000000000000000000000000000000000000000000000000000000000000000169063945bcec990610121908c908c908c908c908c908c908c90600401610c25565b5f604051808303815f875af115801561013c573d5f5f3e3d5ffd5b505050506040513d5f823e601f3d908101601f191682016040526101639190810190610d8e565b90506101996001600160a01b037f0000000000000000000000000000000000000000000000000000000000000000168333610226565b98975050505050505050565b336001600160a01b037f000000000000000000000000000000000000000000000000000000000000000016146101ed5760405162461bcd60e51b81526004016100c090610b85565b6102226001600160a01b037f000000000000000000000000000000000000000000000000000000000000000016838333610408565b5050565b73eeeeeeeeeeeeeeeeeeeeeeeeeeeeeeeeeeeeeeee61024b6040840160208501610e1e565b6001600160a01b0316036102715760405162461bcd60e51b81526004016100c090610e39565b5f516020610f355f395f51905f528260600135036102c4576102bf6102996020840184610e1e565b82604085018035906102ae9060208801610e1e565b6001600160a01b031692919061064c565b505050565b6040805160018082528183019092525f91816020015b6102e261078a565b8152602001906001900390816102da5790505090505f815f8151811061030a5761030a610e6e565b602002602001015190505f516020610f555f395f51905f52846060013514610333576002610336565b60035b8190600381111561034957610349610bb0565b9081600381111561035c5761035c610bb0565b90525061036f6040850160208601610e1e565b6001600160a01b03166020808301919091526040808601359083015261039790850185610e1e565b6001600160a01b03908116606083015283811660808301526040516303a38fa160e21b815290861690630e8e3e84906103d4908590600401610e82565b5f604051808303815f87803b1580156103eb575f5ffd5b505af11580156103fd573d5f5f3e3d5ffd5b505050505050505050565b5f826001600160401b03811115610421576104216107ff565b60405190808252806020026020018201604052801561045a57816020015b61044761078a565b81526020019060019003908161043f5790505b5090505f805b848110156105e0573686868381811061047b5761047b610e6e565b60800291909101915073eeeeeeeeeeeeeeeeeeeeeeeeeeeeeeeeeeeeeeee90506104ab6040830160208401610e1e565b6001600160a01b0316036104d15760405162461bcd60e51b81526004016100c090610e39565b5f516020610f355f395f51905f528160600135036105135761050e6104f96020830183610e1e565b86604084018035906102ae9060208701610e1e565b6105d7565b5f848461051f81610f10565b95508151811061053157610531610e6e565b602002602001015190505f516020610f555f395f51905f5282606001351461055a57600161055d565b60035b8190600381111561057057610570610bb0565b9081600381111561058357610583610bb0565b9052506105966040830160208401610e1e565b6001600160a01b0316602080830191909152604080840135908301526105be90830183610e1e565b6001600160a01b03908116606083015286166080909101525b50600101610460565b508015610644578082526040516303a38fa160e21b81526001600160a01b03871690630e8e3e8490610616908590600401610e82565b5f604051808303815f87803b15801561062d575f5ffd5b505af115801561063f573d5f5f3e3d5ffd5b505050505b505050505050565b6040516323b872dd60e01b8082526001600160a01b0385811660048401528416602483015260448201839052905f80606483828a5af161068e573d5f5f3e3d5ffd5b50610698856106e7565b6106e05760405162461bcd60e51b8152602060048201526019602482015278475076323a206661696c6564207472616e7366657246726f6d60381b60448201526064016100c0565b5050505050565b5f610709565b62461bcd60e51b5f52602060045280602452508060445260645ffd5b3d80156107485760208114610779576107437f475076323a206d616c666f726d6564207472616e7366657220726573756c7400601f6106ed565b610784565b823b610770576107707311d41d8c8e881b9bdd08184818dbdb9d1c9858dd60621b60146106ed565b60019150610784565b3d5f5f3e5f51151591505b50919050565b6040805160a08101909152805f81525f60208201819052604082018190526060820181905260809091015290565b5f5f83601f8401126107c8575f5ffd5b5081356001600160401b038111156107de575f5ffd5b6020830191508360208260051b85010111156107f8575f5ffd5b9250929050565b634e487b7160e01b5f52604160045260245ffd5b604051601f8201601f191681016001600160401b038111828210171561083b5761083b6107ff565b604052919050565b5f6001600160401b0382111561085b5761085b6107ff565b5060051b60200190565b6001600160a01b0381168114610879575f5ffd5b50565b5f82601f83011261088b575f5ffd5b813561089e61089982610843565b610813565b8082825260208201915060208360051b8601019250858311156108bf575f5ffd5b602085015b838110156108e55780356108d781610865565b8352602092830192016108c4565b5095945050505050565b803580151581146108fe575f5ffd5b919050565b5f60808284031215610913575f5ffd5b604051608081016001600160401b0381118282101715610935576109356107ff565b604052905080823561094681610865565b8152610954602084016108ef565b6020820152604083013561096781610865565b6040820152610978606084016108ef565b60608201525092915050565b5f82601f830112610993575f5ffd5b81356109a161089982610843565b8082825260208201915060208360051b8601019250858311156109c2575f5ffd5b602085015b838110156108e55780358352602092830192016109c7565b5f60808284031215610784575f5ffd5b5f5f5f5f5f5f5f5f6101a0898b031215610a07575f5ffd5b883560028110610a15575f5ffd5b975060208901356001600160401b03811115610a2f575f5ffd5b610a3b8b828c016107b8565b90985096505060408901356001600160401b03811115610a59575f5ffd5b610a658b828c0161087c565b955050610a758a60608b01610903565b935060e08901356001600160401b03811115610a8f575f5ffd5b610a9b8b828c01610984565b9350506101008901359150610ab48a6101208b016109df565b90509295985092959890939650565b5f8151808452602084019350602083015f5b82811015610af3578151865260209586019590910190600101610ad5565b5093949350505050565b602081525f610b0f6020830184610ac3565b9392505050565b5f5f60208385031215610b27575f5ffd5b82356001600160401b03811115610b3c575f5ffd5b8301601f81018513610b4c575f5ffd5b80356001600160401b03811115610b61575f5ffd5b8560208260071b8401011115610b75575f5ffd5b6020919091019590945092505050565b60208082526011908201527023a83b191d103737ba1031b932b0ba37b960791b604082015260600190565b634e487b7160e01b5f52602160045260245ffd5b81835281816020850137505f828201602090810191909152601f909101601f19169091010190565b5f8151808452602084019350602083015f5b82811015610af35781516001600160a01b0316865260209586019590910190600101610bfe565b5f610120820160028a10610c3b57610c3b610bb0565b8983526101206020840152879052610140600588901b83018101908301895f609e1936839003015b8b821015610d155786850361013f190184528235818112610c82575f5ffd5b8d0180358652602080820135908701526040808201359087015260608082013590870152608081013536829003601e19018112610cbd575f5ffd5b016020810190356001600160401b03811115610cd7575f5ffd5b803603821315610ce5575f5ffd5b60a06080880152610cfa60a088018284610bc4565b96505050602083019250602084019350600182019150610c63565b505050508281036040840152610d2b8188610bec565b86516001600160a01b03908116606086810191909152602089015115156080870152604089015190911660a0860152870151151560c0850152905082810360e0840152610d788186610ac3565b9150508261010083015298975050505050505050565b5f60208284031215610d9e575f5ffd5b81516001600160401b03811115610db3575f5ffd5b8201601f81018413610dc3575f5ffd5b8051610dd161089982610843565b8082825260208201915060208360051b850101925086831115610df2575f5ffd5b6020840193505b82841015610e14578351825260209384019390910190610df9565b9695505050505050565b5f60208284031215610e2e575f5ffd5b8135610b0f81610865565b6020808252818101527f475076323a2063616e6e6f74207472616e73666572206e617469766520455448604082015260600190565b634e487b7160e01b5f52603260045260245ffd5b602080825282518282018190525f918401906040840190835b81811015610f05578351805160048110610eb757610eb7610bb0565b84526020818101516001600160a01b0390811682870152604080840151908701526060808401518216908701526080928301511691850191909152939093019260a090920191600101610e9b565b509095945050505050565b5f60018201610f2d57634e487b7160e01b5f52601160045260245ffd5b506001019056fe5a28e9363bb942b639270062aa6bb295f434bcdfc42c97267bf003f272060dc9abee3b73373acd583a130924aad6dc38cfdc44ba0555ba94ce2ff63980ea0632a264697066735822122066e624c98072239ca28893e6d493e32a9f1875d7d8ef665481e24197a2fd12a364736f6c634300081c0033","linkReferences":{}},"methodIdentifiers":{"authenticator()":"2335c76b","computeTradeExecutionMemoryTest()":"cd54ef51","computeTradeExecutionsTest(address[],uint256[],(uint256,uint256,address,uint256,uint256,uint32,bytes32,uint256,uint256,uint256,bytes)[])":"25cd84f3","domainSeparator()":"f698da25","executeInteractionsTest((address,uint256,bytes)[])":"4309838a","filledAmount(bytes)":"2479fb6e","freeFilledAmountStorage(bytes[])":"ed9f35ce","freeFilledAmountStorageTest(bytes[])":"9c5cf459","freePreSignatureStorage(bytes[])":"a2a7d51b","freePreSignatureStorageTest(bytes[])":"0b33f6dc","getStorageAt(uint256,uint256)":"5624b25b","invalidateOrder(bytes)":"15337bc0","preSignature(bytes)":"d08d33d1","setFilledAmount(bytes,uint256)":"60655602","setPreSignature(bytes,bool)":"ec6cb13f","settle(address[],uint256[],(uint256,uint256,address,uint256,uint256,uint32,bytes32,uint256,uint256,uint256,bytes)[],(address,uint256,bytes)[][3])":"13d79a0b","simulateDelegatecall(address,bytes)":"f84436bd","simulateDelegatecallInternal(address,bytes)":"43218e19","swap((bytes32,uint256,uint256,uint256,bytes)[],address[],(uint256,uint256,address,uint256,uint256,uint32,bytes32,uint256,uint256,uint256,bytes))":"845a101f","vault()":"fbfa77cf","vaultRelayer()":"9b552cc2"},"id":46}