{"abi":[{"type":"function","name":"areSolvers","inputs":[{"name":"prospectiveSolvers","type":"address[]","internalType":"address[]"}],"outputs":[{"name":"","type":"bool","internalType":"bool"}],"stateMutability":"view"}],"bytecode":{"object":"0x6080604052348015600e575f5ffd5b506101ac8061001c5f395ff3fe608060405234801561000f575f5ffd5b5060043610610029575f3560e01c8063bcb494bd1461002d575b5f5ffd5b61004061003b3660046100c6565b610054565b604051901515815260200160405180910390f35b5f805b828110156100ba5760015f85858481811061007457610074610135565b90506020020160208101906100899190610149565b6001600160a01b0316815260208101919091526040015f205460ff166100b2575f9150506100c0565b600101610057565b50600190505b92915050565b5f5f602083850312156100d7575f5ffd5b82356001600160401b038111156100ec575f5ffd5b8301601f810185136100fc575f5ffd5b80356001600160401b03811115610111575f5ffd5b8560208260051b8401011115610125575f5ffd5b6020919091019590945092505050565b634e487b7160e01b5f52603260045260245ffd5b5f60208284031215610159575f5ffd5b81356001600160a01b038116811461016f575f5ffd5b939250505056fea2646970667358221220256b3f2363f1c4b6fa475cdbd9e17205aa5095ea8be071e4c95e8c1b16b7486464736f6c634300081c0033","linkReferences":{}},"methodIdentifiers":{"areSolvers(address[])":"bcb494bd"},"id":21}