{"abi":[{"type":"function","name":"domainSeparator","inputs":[],"outputs":[{"name":"","type":"bytes32","internalType":"bytes32"}],"stateMutability":"view"},{"type":"function","name":"preSignature","inputs":[{"name":"","type":"bytes","internalType":"bytes"}],"outputs":[{"name":"","type":"uint256","internalType":"uint256"}],"stateMutability":"view"},{"type":"function","name":"recoverOrderFromTradeTest","inputs":[{"name":"tokens","type":"address[]","internalType":"contract IERC20[]"},{"name":"trade","type":"tuple","internalType":"struct GPv2Trade.Data","components":[{"name":"sellTokenIndex","type":"uint256","internalType":"uint256"},{"name":"buyTokenIndex","type":"uint256","internalType":"uint256"},{"name":"receiver","type":"address","internalType":"address"},{"name":"sellAmount","type":"uint256","internalType":"uint256"},{"name":"buyAmount","type":"uint256","internalType":"uint256"},{"name":"validTo","type":"uint32","internalType":"uint32"},{"name":"appData","type":"bytes32","internalType":"bytes32"},{"name":"feeAmount","type":"uint256","internalType":"uint256"},{"name":"flags","type":"uint256","internalType":"uint256"},{"name":"executedAmount","type":"uint256","internalType":"uint256"},{"name":"signature","type":"bytes","internalType":"bytes"}]}],"outputs":[{"name":"recoveredOrder","type":"tuple","internalType":"struct GPv2Signing.RecoveredOrder","components":[{"name":"data","type":"tuple","internalType":"struct GPv2Order.Data","components":[{"name":"sellToken","type":"address","internalType":"contract IERC20"},{"name":"buyToken","type":"address","internalType":"contract IERC20"},{"name":"receiver","type":"address","internalType":"address"},{"name":"sellAmount","type":"uint256","internalType":"uint256"},{"name":"buyAmount","type":"uint256","internalType":"uint256"},{"name":"validTo","type":"uint32","internalType":"uint32"},{"name":"appData","type":"bytes32","internalType":"bytes32"},{"name":"feeAmount","type":"uint256","internalType":"uint256"},{"name":"kind","type":"bytes32","internalType":"bytes32"},{"name":"partiallyFillable","type":"bool","internalType":"bool"},{"name":"sellTokenBalance","type":"bytes32","internalType":"bytes32"},{"name":"buyTokenBalance","type":"bytes32","internalType":"bytes32"}]},{"name":"uid","type":"bytes","internalType":"bytes"},{"name":"owner","type":"address","internalType":"address"},{"name":"receiver","type":"address","internalType":"address"}]}],"stateMutability":"view"},{"type":"function","name":"recoverOrderSignerTest","inputs":[{"name":"order","type":"tuple","internalType":"struct GPv2Order.Data","components":[{"name":"sellToken","type":"address","internalType":"contract IERC20"},{"name":"buyToken","type":"address","internalType":"contract IERC20"},{"name":"receiver","type":"address","internalType":"address"},{"name":"sellAmount","type":"uint256","internalType":"uint256"},{"name":"buyAmount","type":"uint256","internalType":"uint256"},{"name":"validTo","type":"uint32","internalType":"uint32"},{"name":"appData","type":"bytes32","internalType":"bytes32"},{"name":"feeAmount","type":"uint256","internalType":"uint256"},{"name":"kind","type":"bytes32","internalType":"bytes32"},{"name":"partiallyFillable","type":"bool","internalType":"bool"},{"name":"sellTokenBalance","type":"bytes32","internalType":"bytes32"},{"name":"buyTokenBalance","type":"bytes32","internalType":"bytes32"}]},{"name":"signature","type":"tuple","internalType":"struct Sign.Signature","components":[{"name":"scheme","type":"uint8","internalType":"enum GPv2Signing.Scheme"},{"name":"data","type":"bytes","internalType":"bytes"}]}],"outputs":[{"name":"owner","type":"address","internalType":"address"}],"stateMutability":"view"},{"type":"function","name":"setPreSignature","inputs":[{"name":"orderUid","type":"bytes","internalType":"bytes"},{"name":"signed","type":"bool","internalType":"bool"}],"outputs":[],"stateMutability":"nonpayable"},{"type":"event","name":"PreSignature","inputs":[{"name":"owner","type":"address","indexed":true,"internalType":"address"},{"name":"orderUid","type":"bytes","indexed":false,"internalType":"bytes"},{"name":"signed","type":"bool","indexed":false,"internalType":"bool"}],"anonymous":false}],"bytecode":{"object":"0x60a060405234801561000f575f5ffd5b50604080517f8b73c3c69bb8fe3d512ecc4cf759cc79239f7b179b0ffacaa9a75d522b39400f60208201527f6c85c0337eba1661327f94f3bf46c8a7f9311a563f4d5c948362567f5d8ed60c918101919091527ff9446b8e937d86f0bc87cac73923491692b123ca5f8761908494703758206adf606082015246608082018190523060a08301529060c00160408051601f198184030181529190528051602090910120608052506080516112116100d45f395f818160ff015261036d01526112115ff3fe608060405234801561000f575f5ffd5b5060043610610055575f3560e01c80633909ce2314610059578063b82440e914610082578063d08d33d1146100ad578063ec6cb13f146100e5578063f698da25146100fa575b5f5ffd5b61006c610067366004610b44565b610121565b6040516100799190610c14565b60405180910390f35b610095610090366004610dde565b610146565b6040516001600160a01b039091168152602001610079565b6100d76100bb366004610ed3565b80516020818301810180515f8252928201919093012091525481565b604051908152602001610079565b6100f86100f3366004610f65565b610172565b005b6100d77f000000000000000000000000000000000000000000000000000000000000000081565b610129610aaa565b610131610285565b905061013f818585856102b2565b9392505050565b5f61016a836101586020850185610fdf565b6101656020860186610ffd565b61032f565b949350505050565b5f61017d848461042c565b509150506001600160a01b03811633146101db5760405162461bcd60e51b815260206004820152601a60248201527923a83b191d1031b0b73737ba10383932b9b4b3b71037b93232b960311b60448201526064015b60405180910390fd5b8115610217575f51602061119c5f395f51905f525f1c5f8585604051610202929190611046565b9081526040519081900360200190205561023a565b5f5f8585604051610229929190611046565b908152604051908190036020019020555b806001600160a01b03167f01bf7c8b0ca55deecbea89d7e58295b7ffbf685fd0d96801034ba8c6ffe1c68d8585856040516102779392919061107d565b60405180910390a250505050565b61028d610aaa565b6040805160388082526060820190925290602082018180368337505050602082015290565b83515f6102c18386868561048e565b90505f806102d88484610165610140890189610ffd565b915091506102fb82828660a001518b60200151610594909392919063ffffffff16565b6001600160a01b038116604089015261031484826105f3565b6001600160a01b031660609098019790975250505050505050565b601f19840180517fd5a25ba2e97094ad7d83dc28a6572da797d6b3e7fc6663bd93efb789fc17e48982526101a08220915260405161190160f01b81527f000000000000000000000000000000000000000000000000000000000000000060028201526022810191909152604290205f808560038111156103b1576103b16110a2565b036103c8576103c182858561061b565b9050610423565b60018560038111156103dc576103dc6110a2565b036103ec576103c1828585610627565b6002856003811115610400576104006110a2565b03610410576103c1828585610689565b6104208285858960a00151610773565b90505b94509492505050565b5f8080603884146104735760405162461bcd60e51b815260206004820152601160248201527011d41d8c8e881a5b9d985b1a59081d5a59607a1b60448201526064016101d2565b5050823593602084013560601c936034013560e01c92509050565b5f838386358181106104a2576104a26110b6565b90506020020160208101906104b791906110ca565b6001600160a01b03168252838360208701358181106104d8576104d86110b6565b90506020020160208101906104ed91906110ca565b6001600160a01b0316602083015261050b60608601604087016110ca565b6001600160a01b03166040830152606080860135908301526080808601359083015261053d60c0860160a087016110e5565b63ffffffff1660a083015260c0808601359083015260e0808601359083015261056a610100860135610879565b61016087019190915261014086019190915290151561012085015261010090930152509392505050565b60388451146105e15760405162461bcd60e51b8152602060048201526019602482015278475076323a2075696420627566666572206f766572666c6f7760381b60448201526064016101d2565b60388401526034830152602090910152565b60408201515f906001600160a01b031661060e575080610615565b5060408201515b92915050565b5f61016a84848461098f565b6040517b0ca2ba3432b932bab69029b4b3b732b21026b2b9b9b0b3b29d05199960211b6020820152603c81018490525f908190605c0160405160208183030381529060405280519060200120905061068081858561098f565b95945050505050565b813560601c365f61069d84601481886110fe565b604051630b135d3f60e11b8082529294509092506001600160a01b03851690631626ba7e906106d4908a9087908790600401611125565b602060405180830381865afa1580156106ef573d5f5f3e3d5ffd5b505050506040513d601f19601f82011682018060405250810190610713919061113e565b6001600160e01b0319161461076a5760405162461bcd60e51b815260206004820152601f60248201527f475076323a20696e76616c69642065697031323731207369676e61747572650060448201526064016101d2565b50509392505050565b5f601483146107c35760405162461bcd60e51b815260206004820152601c60248201527b475076323a206d616c666f726d6564207072657369676e617475726560201b60448201526064016101d2565b506040805160388082526060828101909352853590921c915f91906020820181803683370190505090506107f981878486610594565b5f51602061119c5f395f51905f525f1c5f826040516108189190611165565b908152602001604051809103902054146108705760405162461bcd60e51b815260206004820152601960248201527811d41d8c8e881bdc99195c881b9bdd081c1c995cda59db9959603a1b60448201526064016101d2565b50949350505050565b5f5f5f5f5f856001165f036108b0577ff3b277728b3fee749481eb3e0b3b48980dbbab78658fc419025cb16eee34677594506108d4565b7f6ed88e868af0a1983e3886d5f3e95a2fafbd6c3450bc229e27342283dc429ccc94505b6002861615159350600886165f036108fb575f51602061117c5f395f51905f52925061093e565b856004165f0361092d577fabee3b73373acd583a130924aad6dc38cfdc44ba0555ba94ce2ff63980ea0632925061093e565b5f5160206111bc5f395f51905f5292505b856010165f0361095d575f51602061117c5f395f51905f52915061096e565b5f5160206111bc5f395f51905f5291505b600586901c6003811115610984576109846110a2565b905091939590929450565b5f604182146109e05760405162461bcd60e51b815260206004820152601f60248201527f475076323a206d616c666f726d6564206563647361207369676e61747572650060448201526064016101d2565b604080515f815260208082018084528790528583013560f81c92820183905285356060830181905290860135608083018190529092909160019060a0016020604051602081039080840390855afa158015610a3d573d5f5f3e3d5ffd5b5050604051601f1901519450506001600160a01b038416610aa05760405162461bcd60e51b815260206004820152601d60248201527f475076323a20696e76616c6964206563647361207369676e617475726500000060448201526064016101d2565b5050509392505050565b60408051610200810182525f6080820181815260a0830182905260c0830182905260e08301829052610100830182905261012083018290526101408301829052610160830182905261018083018290526101a083018290526101c083018290526101e0830182905282526060602083018190529282018190529181019190915290565b5f6101608284031215610b3e575f5ffd5b50919050565b5f5f5f60408486031215610b56575f5ffd5b83356001600160401b03811115610b6b575f5ffd5b8401601f81018613610b7b575f5ffd5b80356001600160401b03811115610b90575f5ffd5b8660208260051b8401011115610ba4575f5ffd5b6020918201945092508401356001600160401b03811115610bc3575f5ffd5b610bcf86828701610b2d565b9150509250925092565b6001600160a01b03169052565b5f81518084528060208401602086015e5f602082860101526020601f19601f83011685010191505092915050565b602081525f8251610c29602084018251610bd9565b6020810151610c3b6040850182610bd9565b506040810151610c4e6060850182610bd9565b5060608101516080840152608081015160a084015260a0810151610c7a60c085018263ffffffff169052565b5060c081015160e084015260e0810151610100840152610100810151610120840152610120810151610cb161014085018215159052565b506101408101516101608401526101608101516101808401525060208301516101e06101a0840152610ce7610200840182610be6565b90506040840151610cfc6101c0850182610bd9565b506060840151610d106101e0850182610bd9565b509392505050565b634e487b7160e01b5f52604160045260245ffd5b60405161018081016001600160401b0381118282101715610d4f57610d4f610d18565b60405290565b604051601f8201601f191681016001600160401b0381118282101715610d7d57610d7d610d18565b604052919050565b6001600160a01b0381168114610d99575f5ffd5b50565b8035610da781610d85565b919050565b803563ffffffff81168114610da7575f5ffd5b80358015158114610da7575f5ffd5b5f60408284031215610b3e575f5ffd5b5f5f8284036101a0811215610df1575f5ffd5b610180811215610dff575f5ffd5b50610e08610d2c565b610e1184610d9c565b8152610e1f60208501610d9c565b6020820152610e3060408501610d9c565b60408201526060848101359082015260808085013590820152610e5560a08501610dac565b60a082015260c0848101359082015260e080850135908201526101008085013590820152610e866101208501610dbf565b6101208201526101408481013590820152610160808501359082015291506101808301356001600160401b03811115610ebd575f5ffd5b610ec985828601610dce565b9150509250929050565b5f60208284031215610ee3575f5ffd5b81356001600160401b03811115610ef8575f5ffd5b8201601f81018413610f08575f5ffd5b80356001600160401b03811115610f2157610f21610d18565b610f34601f8201601f1916602001610d55565b818152856020838501011115610f48575f5ffd5b816020840160208301375f91810160200191909152949350505050565b5f5f5f60408486031215610f77575f5ffd5b83356001600160401b03811115610f8c575f5ffd5b8401601f81018613610f9c575f5ffd5b80356001600160401b03811115610fb1575f5ffd5b866020828401011115610fc2575f5ffd5b602091820194509250610fd6908501610dbf565b90509250925092565b5f60208284031215610fef575f5ffd5b81356004811061013f575f5ffd5b5f5f8335601e19843603018112611012575f5ffd5b8301803591506001600160401b0382111561102b575f5ffd5b60200191503681900382131561103f575f5ffd5b9250929050565b818382375f9101908152919050565b81835281816020850137505f828201602090810191909152601f909101601f19169091010190565b604081525f611090604083018587611055565b90508215156020830152949350505050565b634e487b7160e01b5f52602160045260245ffd5b634e487b7160e01b5f52603260045260245ffd5b5f602082840312156110da575f5ffd5b813561013f81610d85565b5f602082840312156110f5575f5ffd5b61013f82610dac565b5f5f8585111561110c575f5ffd5b83861115611118575f5ffd5b5050820193919092039150565b838152604060208201525f610680604083018486611055565b5f6020828403121561114e575f5ffd5b81516001600160e01b03198116811461013f575f5ffd5b5f82518060208501845e5f92019182525091905056fe5a28e9363bb942b639270062aa6bb295f434bcdfc42c97267bf003f272060dc9f59c009283ff87aa78203fc4d9c2df025ee851130fb69cc3e068941f6b5e2d6f4ac99ace14ee0a5ef932dc609df0943ab7ac16b7583634612f8dc35a4289a6cea2646970667358221220a8f9f848815a3191d6c2d21c051efc05fe3d89da5f03933d2a09096523c43ddf64736f6c634300081c0033","linkReferences":{}},"methodIdentifiers":{"domainSeparator()":"f698da25","preSignature(bytes)":"d08d33d1","recoverOrderFromTradeTest(address[],(uint256,uint256,address,uint256,uint256,uint32,bytes32,uint256,uint256,uint256,bytes))":"3909ce23","recoverOrderSignerTest((address,address,address,uint256,uint256,uint32,bytes32,uint256,bytes32,bool,bytes32,bytes32),(uint8,bytes))":"b82440e9","setPreSignature(bytes,bool)":"ec6cb13f"},"id":57}