{"abi":[{"type":"constructor","inputs":[{"name":"_usdc","type":"address","internalType":"address"},{"name":"_HyperlaneMailbox","type":"address","internalType":"address"}],"stateMutability":"nonpayable"},{"type":"receive","stateMutability":"payable"},{"type":"function","name":"admin","inputs":[],"outputs":[{"name":"","type":"address","internalType":"address"}],"stateMutability":"view"},{"type":"function","name":"cancelOrder","inputs":[{"name":"_orderId","type":"uint256","internalType":"uint256"}],"outputs":[],"stateMutability":"nonpayable"},{"type":"function","name":"getUserOrders","inputs":[{"name":"_user","type":"address","internalType":"address"}],"outputs":[{"name":"","type":"uint256[]","internalType":"uint256[]"}],"stateMutability":"view"},{"type":"function","name":"orderCounter","inputs":[],"outputs":[{"name":"","type":"uint256","internalType":"uint256"}],"stateMutability":"view"},{"type":"function","name":"orders","inputs":[{"name":"","type":"uint256","internalType":"uint256"}],"outputs":[{"name":"id","type":"uint256","internalType":"uint256"},{"name":"buyer","type":"address","internalType":"address"},{"name":"ethAmount","type":"uint256","internalType":"uint256"},{"name":"usdcPrice","type":"uint256","internalType":"uint256"},{"name":"status","type":"uint8","internalType":"enum MictaOrderBook.OrderStatus"}],"stateMutability":"view"},{"type":"function","name":"placeBuyOrder","inputs":[{"name":"_ethAmount","type":"uint256","internalType":"uint256"},{"name":"_usdcPrice","type":"uint256","internalType":"uint256"},{"name":"orderHash","type":"bytes","internalType":"bytes"}],"outputs":[{"name":"","type":"uint256","internalType":"uint256"}],"stateMutability":"nonpayable"},{"type":"function","name":"usdc","inputs":[],"outputs":[{"name":"","type":"address","internalType":"contract IERC20"}],"stateMutability":"view"},{"type":"function","name":"userOrders","inputs":[{"name":"","type":"address","internalType":"address"},{"name":"","type":"uint256","internalType":"uint256"}],"outputs":[{"name":"","type":"uint256","internalType":"uint256"}],"stateMutability":"view"},{"type":"event","name":"OrderCancelled","inputs":[{"name":"orderId","type":"uint256","indexed":true,"internalType":"uint256"}],"anonymous":false},{"type":"event","name":"OrderFilled","inputs":[{"name":"orderId","type":"uint256","indexed":true,"internalType":"uint256"},{"name":"seller","type":"address","indexed":true,"internalType":"address"},{"name":"ethAmount","type":"uint256","indexed":false,"internalType":"uint256"},{"name":"totalUSDC","type":"uint256","indexed":false,"internalType":"uint256"}],"anonymous":false},{"type":"event","name":"OrderPlaced","inputs":[{"name":"orderId","type":"uint256","indexed":true,"internalType":"uint256"},{"name":"buyer","type":"address","indexed":true,"internalType":"address"},{"name":"ethAmount","type":"uint256","indexed":false,"internalType":"uint256"},{"name":"usdcPrice","type":"uint256","indexed":false,"internalType":"uint256"}],"anonymous":false}],"bytecode":{"object":"0x60806040525f5f553480156011575f5ffd5b50604051610bd1380380610bd1833981016040819052602e916082565b600180546001600160a01b039384166001600160a01b031991821617909155600280548216331790556003805492909316911617905560ae565b80516001600160a01b0381168114607d575f5ffd5b919050565b5f5f604083850312156092575f5ffd5b6099836068565b915060a5602084016068565b90509250929050565b610b16806100bb5f395ff3fe60806040526004361061006d575f3560e01c806308cd4e80146100c35780633e413bee146100f5578063514fcac71461012c57806363c69f081461014d578063856652e914610179578063a85c38ef14610198578063b789bf52146101ff578063f851a44014610213575f5ffd5b366100bf5760405162461bcd60e51b815260206004820181905260248201527f44697265637420455448207472616e7366657273206e6f7420616c6c6f77656460448201526064015b60405180910390fd5b5f5ffd5b3480156100ce575f5ffd5b506100e26100dd3660046107f9565b610232565b6040519081526020015b60405180910390f35b348015610100575f5ffd5b50600154610114906001600160a01b031681565b6040516001600160a01b0390911681526020016100ec565b348015610137575f5ffd5b5061014b6101463660046108bb565b6104d9565b005b348015610158575f5ffd5b5061016c6101673660046108ed565b61069b565b6040516100ec919061090d565b348015610184575f5ffd5b506100e261019336600461094f565b610704565b3480156101a3575f5ffd5b506101ee6101b23660046108bb565b600460208190525f91825260409091208054600182015460028301546003840154939094015491936001600160a01b0390911692909160ff1685565b6040516100ec95949392919061098b565b34801561020a575f5ffd5b506100e25f5481565b34801561021e575f5ffd5b50600254610114906001600160a01b031681565b5f5f841161028e5760405162461bcd60e51b8152602060048201526024808201527f45544820616d6f756e74206d7573742062652067726561746572207468616e206044820152637a65726f60e01b60648201526084016100b6565b5f83116102e95760405162461bcd60e51b8152602060048201526024808201527f55534443207072696365206d7573742062652067726561746572207468616e206044820152637a65726f60e01b60648201526084016100b6565b5f6102f484866109ef565b6001546040516323b872dd60e01b8152336004820152306024820152604481018390529192506001600160a01b0316906323b872dd906064016020604051808303815f875af1158015610349573d5f5f3e3d5ffd5b505050506040513d601f19601f8201168201806040525081019061036d9190610a0c565b6103b05760405162461bcd60e51b81526020600482015260146024820152731554d110c81d1c985b9cd9995c8819985a5b195960621b60448201526064016100b6565b5f805490806103be83610a2b565b90915550506040805160a0810182525f80548252336020830152918101879052606081018690529060808201525f80548152600460208181526040928390208451815590840151600180830180546001600160a01b0319166001600160a01b039093169290921790915592840151600282015560608401516003820155608084015191810180549193909160ff191690838181111561045f5761045f610977565b021790555050335f8181526005602090815260408083208354815460018101835591855283852090910155915482518a81529182018990529293507f59827a9898740dc87f0e01c9f27ae034611bb083f06d7eb3efaef27336e3c4dd910160405180910390a36104ce8361072f565b50505f549392505050565b5f81815260046020526040902060018101546001600160a01b031633146105335760405162461bcd60e51b815260206004820152600e60248201526d2737ba103cb7bab91037b93232b960911b60448201526064016100b6565b5f600482015460ff16600181111561054d5761054d610977565b1461058d5760405162461bcd60e51b815260206004820152601060248201526f4f72646572206e6f742061637469766560801b60448201526064016100b6565b5f816003015482600201546105a291906109ef565b600180549084015460405163a9059cbb60e01b81526001600160a01b03918216600482015260248101849052929350169063a9059cbb906044016020604051808303815f875af11580156105f8573d5f5f3e3d5ffd5b505050506040513d601f19601f8201168201806040525081019061061c9190610a0c565b61065d5760405162461bcd60e51b81526020600482015260126024820152711554d110c81c99599d5b990819985a5b195960721b60448201526064016100b6565b60048201805460ff1916600117905560405183907f61b9399f2f0f32ca39ce8d7be32caed5ec22fe07a6daba3a467ed479ec606582905f90a2505050565b6001600160a01b0381165f908152600560209081526040918290208054835181840281018401909452808452606093928301828280156106f857602002820191905f5260205f20905b8154815260200190600101908083116106e4575b50505050509050919050565b6005602052815f5260405f20818154811061071d575f80fd5b905f5260205f20015f91509150505481565b5f3382604051602001610743929190610a71565b60408051601f198184030181529082905260035463fa31de0160e01b83529092506001600160a01b03169063fa31de0190349061079f9062066eee90736c13643b3927c57db92c790e4e3e7ee81e13f78c908790600401610a9c565b60206040518083038185885af11580156107bb573d5f5f3e3d5ffd5b50505050506040513d601f19601f820116820180604052508101906107e09190610ac9565b505050565b634e487b7160e01b5f52604160045260245ffd5b5f5f5f6060848603121561080b575f5ffd5b833592506020840135915060408401356001600160401b0381111561082e575f5ffd5b8401601f8101861361083e575f5ffd5b80356001600160401b03811115610857576108576107e5565b604051601f8201601f19908116603f011681016001600160401b0381118282101715610885576108856107e5565b60405281815282820160200188101561089c575f5ffd5b816020840160208301375f602083830101528093505050509250925092565b5f602082840312156108cb575f5ffd5b5035919050565b80356001600160a01b03811681146108e8575f5ffd5b919050565b5f602082840312156108fd575f5ffd5b610906826108d2565b9392505050565b602080825282518282018190525f918401906040840190835b81811015610944578351835260209384019390920191600101610926565b509095945050505050565b5f5f60408385031215610960575f5ffd5b610969836108d2565b946020939093013593505050565b634e487b7160e01b5f52602160045260245ffd5b8581526001600160a01b0385166020820152604081018490526060810183905260a08101600283106109cb57634e487b7160e01b5f52602160045260245ffd5b8260808301529695505050505050565b634e487b7160e01b5f52601160045260245ffd5b8082028115828204841417610a0657610a066109db565b92915050565b5f60208284031215610a1c575f5ffd5b81518015158114610906575f5ffd5b5f60018201610a3c57610a3c6109db565b5060010190565b5f81518084528060208401602086015e5f602082860101526020601f19601f83011685010191505092915050565b6001600160a01b03831681526040602082018190525f90610a9490830184610a43565b949350505050565b63ffffffff84168152826020820152606060408201525f610ac06060830184610a43565b95945050505050565b5f60208284031215610ad9575f5ffd5b505191905056fea264697066735822122054c7a9e0a7bcbbd0587c095c31414d9059c324bae3e0d76785ba21fd114f9cb364736f6c634300081c0033","linkReferences":{}},"methodIdentifiers":{"admin()":"f851a440","cancelOrder(uint256)":"514fcac7","getUserOrders(address)":"63c69f08","orderCounter()":"b789bf52","orders(uint256)":"a85c38ef","placeBuyOrder(uint256,uint256,bytes)":"08cd4e80","usdc()":"3e413bee","userOrders(address,uint256)":"856652e9"},"id":20}