{"abi":[{"type":"receive","stateMutability":"payable"},{"type":"function","name":"fastTransferFromAccountTest","inputs":[{"name":"vault","type":"address","internalType":"contract IVault"},{"name":"transfer","type":"tuple","internalType":"struct GPv2Transfer.Data","components":[{"name":"account","type":"address","internalType":"address"},{"name":"token","type":"address","internalType":"contract IERC20"},{"name":"amount","type":"uint256","internalType":"uint256"},{"name":"balance","type":"bytes32","internalType":"bytes32"}]},{"name":"recipient","type":"address","internalType":"address"}],"outputs":[],"stateMutability":"nonpayable"},{"type":"function","name":"transferFromAccountsTest","inputs":[{"name":"vault","type":"address","internalType":"contract IVault"},{"name":"transfers","type":"tuple[]","internalType":"struct GPv2Transfer.Data[]","components":[{"name":"account","type":"address","internalType":"address"},{"name":"token","type":"address","internalType":"contract IERC20"},{"name":"amount","type":"uint256","internalType":"uint256"},{"name":"balance","type":"bytes32","internalType":"bytes32"}]},{"name":"recipient","type":"address","internalType":"address"}],"outputs":[],"stateMutability":"nonpayable"},{"type":"function","name":"transferToAccountsTest","inputs":[{"name":"vault","type":"address","internalType":"contract IVault"},{"name":"transfers","type":"tuple[]","internalType":"struct GPv2Transfer.Data[]","components":[{"name":"account","type":"address","internalType":"address"},{"name":"token","type":"address","internalType":"contract IERC20"},{"name":"amount","type":"uint256","internalType":"uint256"},{"name":"balance","type":"bytes32","internalType":"bytes32"}]}],"outputs":[],"stateMutability":"nonpayable"}],"bytecode":{"object":"0x6080604052348015600e575f5ffd5b50610d8a8061001c5f395ff3fe608060405260043610610036575f3560e01c8063344628f4146100415780638186257d14610062578063fcf015b414610081575f5ffd5b3661003d57005b5f5ffd5b34801561004c575f5ffd5b5061006061005b366004610978565b6100a0565b005b34801561006d575f5ffd5b5061006061007c366004610a78565b6100b2565b34801561008c575f5ffd5b5061006061009b366004610b86565b6100c0565b6100ac848484846100d0565b50505050565b6100bc828261032e565b5050565b6100cb8383836105a1565b505050565b5f826001600160401b038111156100e9576100e9610a0c565b60405190808252806020026020018201604052801561012257816020015b61010f610933565b8152602001906001900390816101075790505b5090505f805b848110156102c2573686868381811061014357610143610bd7565b60800291909101915073eeeeeeeeeeeeeeeeeeeeeeeeeeeeeeeeeeeeeeee90506101736040830160208401610beb565b6001600160a01b0316036101a25760405162461bcd60e51b815260040161019990610c0d565b60405180910390fd5b5f516020610d155f395f51905f528160600135036101f5576101f06101ca6020830183610beb565b86604084018035906101df9060208701610beb565b6001600160a01b031692919061076d565b6102b9565b5f848461020181610c42565b95508151811061021357610213610bd7565b602002602001015190505f516020610d355f395f51905f5282606001351461023c57600161023f565b60035b8190600381111561025257610252610c66565b9081600381111561026557610265610c66565b9052506102786040830160208401610beb565b6001600160a01b0316602080830191909152604080840135908301526102a090830183610beb565b6001600160a01b03908116606083015286166080909101525b50600101610128565b508015610326578082526040516303a38fa160e21b81526001600160a01b03871690630e8e3e84906102f8908590600401610c7a565b5f604051808303815f87803b15801561030f575f5ffd5b505af1158015610321573d5f5f3e3d5ffd5b505050505b505050505050565b5f81516001600160401b0381111561034857610348610a0c565b60405190808252806020026020018201604052801561038157816020015b61036e610933565b8152602001906001900390816103665790505b5090505f805b8351811015610538575f8482815181106103a3576103a3610bd7565b6020026020010151905073eeeeeeeeeeeeeeeeeeeeeeeeeeeeeeeeeeeeeeee6001600160a01b031681602001516001600160a01b031603610491577f4ac99ace14ee0a5ef932dc609df0943ab7ac16b7583634612f8dc35a4289a6ce8160600151036104515760405162461bcd60e51b815260206004820152601e60248201527f475076323a20756e737570706f7274656420696e7465726e616c2045544800006044820152606401610199565b805160408083015190516001600160a01b039092169181156108fc0291905f818181858888f1935050505015801561048b573d5f5f3e3d5ffd5b5061052f565b5f516020610d155f395f51905f528160600151036104cf578051604082015160208301516104ca926001600160a01b0390911691610808565b61052f565b5f84846104db81610c42565b9550815181106104ed576104ed610bd7565b6020908102919091018101515f8152838201516001600160a01b0390811692820192909252604080850151908201523060608201528351909116608090910152505b50600101610387565b5080156100ac578082526040516303a38fa160e21b81526001600160a01b03851690630e8e3e849061056e908590600401610c7a565b5f604051808303815f87803b158015610585575f5ffd5b505af1158015610597573d5f5f3e3d5ffd5b5050505050505050565b73eeeeeeeeeeeeeeeeeeeeeeeeeeeeeeeeeeeeeeee6105c66040840160208501610beb565b6001600160a01b0316036105ec5760405162461bcd60e51b815260040161019990610c0d565b5f516020610d155f395f51905f52826060013503610629576100cb6106146020840184610beb565b82604085018035906101df9060208801610beb565b6040805160018082528183019092525f91816020015b610647610933565b81526020019060019003908161063f5790505090505f815f8151811061066f5761066f610bd7565b602002602001015190505f516020610d355f395f51905f5284606001351461069857600261069b565b60035b819060038111156106ae576106ae610c66565b908160038111156106c1576106c1610c66565b9052506106d46040850160208601610beb565b6001600160a01b0316602080830191909152604080860135908301526106fc90850185610beb565b6001600160a01b03908116606083015283811660808301526040516303a38fa160e21b815290861690630e8e3e8490610739908590600401610c7a565b5f604051808303815f87803b158015610750575f5ffd5b505af1158015610762573d5f5f3e3d5ffd5b505050505050505050565b6040516323b872dd60e01b8082526001600160a01b0385811660048401528416602483015260448201839052905f80606483828a5af16107af573d5f5f3e3d5ffd5b506107b985610890565b6108015760405162461bcd60e51b8152602060048201526019602482015278475076323a206661696c6564207472616e7366657246726f6d60381b6044820152606401610199565b5050505050565b60405163a9059cbb60e01b8082526001600160a01b038416600483015260248201839052905f8060448382895af1610842573d5f5f3e3d5ffd5b5061084c84610890565b6100ac5760405162461bcd60e51b815260206004820152601560248201527423a83b191d103330b4b632b2103a3930b739b332b960591b6044820152606401610199565b5f6108b2565b62461bcd60e51b5f52602060045280602452508060445260645ffd5b3d80156108f15760208114610922576108ec7f475076323a206d616c666f726d6564207472616e7366657220726573756c7400601f610896565b61092d565b823b610919576109197311d41d8c8e881b9bdd08184818dbdb9d1c9858dd60621b6014610896565b6001915061092d565b3d5f5f3e5f51151591505b50919050565b6040805160a08101909152805f81525f60208201819052604082018190526060820181905260809091015290565b6001600160a01b0381168114610975575f5ffd5b50565b5f5f5f5f6060858703121561098b575f5ffd5b843561099681610961565b935060208501356001600160401b038111156109b0575f5ffd5b8501601f810187136109c0575f5ffd5b80356001600160401b038111156109d5575f5ffd5b8760208260071b84010111156109e9575f5ffd5b602091909101935091506040850135610a0181610961565b939692955090935050565b634e487b7160e01b5f52604160045260245ffd5b604051608081016001600160401b0381118282101715610a4257610a42610a0c565b60405290565b604051601f8201601f191681016001600160401b0381118282101715610a7057610a70610a0c565b604052919050565b5f5f60408385031215610a89575f5ffd5b8235610a9481610961565b915060208301356001600160401b03811115610aae575f5ffd5b8301601f81018513610abe575f5ffd5b80356001600160401b03811115610ad757610ad7610a0c565b610ae660208260051b01610a48565b8082825260208201915060208360071b850101925087831115610b07575f5ffd5b6020840193505b82841015610b785760808489031215610b25575f5ffd5b610b2d610a20565b8435610b3881610961565b81526020850135610b4881610961565b80602083015250604085013560408201526060850135606082015280835250602082019150608084019350610b0e565b809450505050509250929050565b5f5f5f83850360c0811215610b99575f5ffd5b8435610ba481610961565b93506080601f1982011215610bb7575f5ffd5b5060208401915060a0840135610bcc81610961565b809150509250925092565b634e487b7160e01b5f52603260045260245ffd5b5f60208284031215610bfb575f5ffd5b8135610c0681610961565b9392505050565b6020808252818101527f475076323a2063616e6e6f74207472616e73666572206e617469766520455448604082015260600190565b5f60018201610c5f57634e487b7160e01b5f52601160045260245ffd5b5060010190565b634e487b7160e01b5f52602160045260245ffd5b602080825282518282018190525f918401906040840190835b81811015610d09578351805160048110610cbb57634e487b7160e01b5f52602160045260245ffd5b84526020818101516001600160a01b0390811682870152604080840151908701526060808401518216908701526080928301511691850191909152939093019260a090920191600101610c93565b50909594505050505056fe5a28e9363bb942b639270062aa6bb295f434bcdfc42c97267bf003f272060dc9abee3b73373acd583a130924aad6dc38cfdc44ba0555ba94ce2ff63980ea0632a2646970667358221220a8f455e177a404c4e0aee8ef8445a051da9b144c7045be9f2789743db94109c264736f6c634300081c0033","linkReferences":{}},"methodIdentifiers":{"fastTransferFromAccountTest(address,(address,address,uint256,bytes32),address)":"fcf015b4","transferFromAccountsTest(address,(address,address,uint256,bytes32)[],address)":"344628f4","transferToAccountsTest(address,(address,address,uint256,bytes32)[])":"8186257d"},"id":65}