{"abi":[{"type":"constructor","inputs":[{"name":"settlement","type":"address","internalType":"contract GPv2Settlement"},{"name":"sellToken_","type":"address","internalType":"contract IERC20"},{"name":"buyToken_","type":"address","internalType":"contract IERC20"},{"name":"validTo_","type":"uint32","internalType":"uint32"},{"name":"totalSellAmount_","type":"uint256","internalType":"uint256"},{"name":"totalFeeAmount_","type":"uint256","internalType":"uint256"}],"stateMutability":"nonpayable"},{"type":"function","name":"APPDATA","inputs":[],"outputs":[{"name":"","type":"bytes32","internalType":"bytes32"}],"stateMutability":"view"},{"type":"function","name":"buyToken","inputs":[],"outputs":[{"name":"","type":"address","internalType":"contract IERC20"}],"stateMutability":"view"},{"type":"function","name":"close","inputs":[],"outputs":[],"stateMutability":"nonpayable"},{"type":"function","name":"domainSeparator","inputs":[],"outputs":[{"name":"","type":"bytes32","internalType":"bytes32"}],"stateMutability":"view"},{"type":"function","name":"isValidSignature","inputs":[{"name":"hash","type":"bytes32","internalType":"bytes32"},{"name":"signature","type":"bytes","internalType":"bytes"}],"outputs":[{"name":"magicValue","type":"bytes4","internalType":"bytes4"}],"stateMutability":"view"},{"type":"function","name":"orderForSellAmount","inputs":[{"name":"sellAmount","type":"uint256","internalType":"uint256"}],"outputs":[{"name":"order","type":"tuple","internalType":"struct GPv2Order.Data","components":[{"name":"sellToken","type":"address","internalType":"contract IERC20"},{"name":"buyToken","type":"address","internalType":"contract IERC20"},{"name":"receiver","type":"address","internalType":"address"},{"name":"sellAmount","type":"uint256","internalType":"uint256"},{"name":"buyAmount","type":"uint256","internalType":"uint256"},{"name":"validTo","type":"uint32","internalType":"uint32"},{"name":"appData","type":"bytes32","internalType":"bytes32"},{"name":"feeAmount","type":"uint256","internalType":"uint256"},{"name":"kind","type":"bytes32","internalType":"bytes32"},{"name":"partiallyFillable","type":"bool","internalType":"bool"},{"name":"sellTokenBalance","type":"bytes32","internalType":"bytes32"},{"name":"buyTokenBalance","type":"bytes32","internalType":"bytes32"}]}],"stateMutability":"view"},{"type":"function","name":"owner","inputs":[],"outputs":[{"name":"","type":"address","internalType":"address"}],"stateMutability":"view"},{"type":"function","name":"sellToken","inputs":[],"outputs":[{"name":"","type":"address","internalType":"contract IERC20"}],"stateMutability":"view"},{"type":"function","name":"totalFeeAmount","inputs":[],"outputs":[{"name":"","type":"uint256","internalType":"uint256"}],"stateMutability":"view"},{"type":"function","name":"totalSellAmount","inputs":[],"outputs":[{"name":"","type":"uint256","internalType":"uint256"}],"stateMutability":"view"},{"type":"function","name":"validTo","inputs":[],"outputs":[{"name":"","type":"uint32","internalType":"uint32"}],"stateMutability":"view"},{"type":"function","name":"withdraw","inputs":[{"name":"amount","type":"uint256","internalType":"uint256"}],"outputs":[],"stateMutability":"nonpayable"}],"bytecode":{"object":"0x610160604052348015610010575f5ffd5b5060405161113238038061113283398101604081905261002f916101c3565b336080526040805163f698da2560e01b815290516001600160a01b0388169163f698da259160048083019260209291908290030181865afa158015610076573d5f5f3e3d5ffd5b505050506040513d601f19601f8201168201806040525081019061009a919061023a565b60a0526001600160a01b0380861660c081905285821660e05263ffffffff85166101405261010084905261012083905260408051634daa966160e11b81529051919263095ea7b392908a1691639b552cc29160048083019260209291908290030181865afa15801561010e573d5f5f3e3d5ffd5b505050506040513d601f19601f820116820180604052508101906101329190610251565b6040516001600160e01b031960e084901b1681526001600160a01b0390911660048201525f1960248201526044016020604051808303815f875af115801561017c573d5f5f3e3d5ffd5b505050506040513d601f19601f820116820180604052508101906101a09190610273565b50505050505050610292565b6001600160a01b03811681146101c0575f5ffd5b50565b5f5f5f5f5f5f60c087890312156101d8575f5ffd5b86516101e3816101ac565b60208801519096506101f4816101ac565b6040880151909550610205816101ac565b606088015190945063ffffffff8116811461021e575f5ffd5b608088015160a090980151969995985093969395939492505050565b5f6020828403121561024a575f5ffd5b5051919050565b5f60208284031215610261575f5ffd5b815161026c816101ac565b9392505050565b5f60208284031215610283575f5ffd5b8151801515811461026c575f5ffd5b60805160a05160c05160e051610100516101205161014051610dbc6103765f395f81816101eb015261060201525f81816101760152818161066701526107b501525f818161011b0152818161064101528181610794015281816107de01528181610894015281816108c401526108ef01525f81816101c4015261059901525f818161019d015281816103740152818161041f015281816104a80152818161057401526107ff01525f818161024701526102c901525f81816101420152818161032101528181610396015281816103c9015281816104ca01526105c10152610dbc5ff3fe608060405234801561000f575f5ffd5b50600436106100a2575f3560e01c80631626ba7e146100a6578063175598d3146100d75780632e1a7d4d146100f957806343d726d61461010e5780635dd8d06d146101165780638da5cb5b1461013d57806396521716146101715780639769f0b014610198578063a4821719146101bf578063a88780ef146101e6578063eb3582b714610222578063f698da2514610242575b5f5ffd5b6100b96100b4366004610b11565b610269565b6040516001600160e01b031990911681526020015b60405180910390f35b6100eb5f516020610d675f395f51905f5281565b6040519081526020016100ce565b61010c610107366004610bcb565b610316565b005b61010c6103be565b6100eb7f000000000000000000000000000000000000000000000000000000000000000081565b6101647f000000000000000000000000000000000000000000000000000000000000000081565b6040516100ce9190610bef565b6100eb7f000000000000000000000000000000000000000000000000000000000000000081565b6101647f000000000000000000000000000000000000000000000000000000000000000081565b6101647f000000000000000000000000000000000000000000000000000000000000000081565b61020d7f000000000000000000000000000000000000000000000000000000000000000081565b60405163ffffffff90911681526020016100ce565b610235610230366004610bcb565b6104ef565b6040516100ce9190610c03565b6100eb7f000000000000000000000000000000000000000000000000000000000000000081565b5f5f8280602001905181019061027f9190610cbc565b90505f61028b826104ef565b601f19810180517fd5a25ba2e97094ad7d83dc28a6572da797d6b3e7fc6663bd93efb789fc17e48982526101a08220915260405161190160f01b81527f0000000000000000000000000000000000000000000000000000000000000000600282015260228101919091526042902090915085900361030e57630b135d3f60e11b92505b505092915050565b336001600160a01b037f000000000000000000000000000000000000000000000000000000000000000016146103675760405162461bcd60e51b815260040161035e90610cd3565b60405180910390fd5b6103bb6001600160a01b037f0000000000000000000000000000000000000000000000000000000000000000167f0000000000000000000000000000000000000000000000000000000000000000836106fc565b50565b336001600160a01b037f000000000000000000000000000000000000000000000000000000000000000016146104065760405162461bcd60e51b815260040161035e90610cd3565b6040516370a0823160e01b81525f906001600160a01b037f000000000000000000000000000000000000000000000000000000000000000016906370a0823190610454903090600401610bef565b602060405180830381865afa15801561046f573d5f5f3e3d5ffd5b505050506040513d601f19601f820116820180604052508101906104939190610cbc565b905080156103bb576103bb6001600160a01b037f0000000000000000000000000000000000000000000000000000000000000000167f0000000000000000000000000000000000000000000000000000000000000000836106fc565b61056a6040518061018001604052805f6001600160a01b031681526020015f6001600160a01b031681526020015f6001600160a01b031681526020015f81526020015f81526020015f63ffffffff1681526020015f81526020015f81526020015f81526020015f151581526020015f81526020015f81525090565b6001600160a01b037f0000000000000000000000000000000000000000000000000000000000000000811682527f0000000000000000000000000000000000000000000000000000000000000000811660208301527f0000000000000000000000000000000000000000000000000000000000000000166040820152606081018290526105f68261078a565b608082015263ffffffff7f0000000000000000000000000000000000000000000000000000000000000000811660a08301525f516020610d675f395f51905f5260c0830152610695907f00000000000000000000000000000000000000000000000000000000000000009061068f907f000000000000000000000000000000000000000000000000000000000000000090869061093416565b906109aa565b60e08201527ff3b277728b3fee749481eb3e0b3b48980dbbab78658fc419025cb16eee3467756101008201525f6101208201527f5a28e9363bb942b639270062aa6bb295f434bcdfc42c97267bf003f272060dc96101408201819052610160820152919050565b60405163a9059cbb60e01b8082526001600160a01b038416600483015260248201839052905f8060448382895af1610736573d5f5f3e3d5ffd5b50610740846109fe565b6107845760405162461bcd60e51b815260206004820152601560248201527423a83b191d103330b4b632b2103a3930b739b332b960591b604482015260640161035e565b50505050565b5f8061088e6107d97f00000000000000000000000000000000000000000000000000000000000000007f0000000000000000000000000000000000000000000000000000000000000000610aa1565b61068f7f00000000000000000000000000000000000000000000000000000000000000007f00000000000000000000000000000000000000000000000000000000000000006001600160a01b03166370a08231306040518263ffffffff1660e01b81526004016108499190610bef565b602060405180830381865afa158015610864573d5f5f3e3d5ffd5b505050506040513d601f19601f820116820180604052508101906108889190610cbc565b90610934565b90505f817f0000000000000000000000000000000000000000000000000000000000000000116108be575f6108e8565b6108e8827f0000000000000000000000000000000000000000000000000000000000000000610d0a565b905061092c7f000000000000000000000000000000000000000000000000000000000000000061068f6109258461091f848a610aa1565b90610aa1565b8790610934565b949350505050565b5f825f0361094357505f6109a4565b5f61094e8385610d1d565b90508261095b8583610d34565b146109a15760405162461bcd60e51b8152602060048201526016602482015275536166654d6174683a206d756c206f766572666c6f7760501b604482015260640161035e565b90505b92915050565b5f5f82116109f45760405162461bcd60e51b81526020600482015260176024820152760536166654d6174683a206469766973696f6e206279203604c1b604482015260640161035e565b6109a18284610d34565b5f610a20565b62461bcd60e51b5f52602060045280602452508060445260645ffd5b3d8015610a5f5760208114610a9057610a5a7f475076323a206d616c666f726d6564207472616e7366657220726573756c7400601f610a04565b610a9b565b823b610a8757610a877311d41d8c8e881b9bdd08184818dbdb9d1c9858dd60621b6014610a04565b60019150610a9b565b3d5f5f3e5f51151591505b50919050565b5f80610aad8385610d53565b9050838110156109a15760405162461bcd60e51b815260206004820152601b60248201527a536166654d6174683a206164646974696f6e206f766572666c6f7760281b604482015260640161035e565b634e487b7160e01b5f52604160045260245ffd5b5f5f60408385031215610b22575f5ffd5b8235915060208301356001600160401b03811115610b3e575f5ffd5b8301601f81018513610b4e575f5ffd5b80356001600160401b03811115610b6757610b67610afd565b604051601f8201601f19908116603f011681016001600160401b0381118282101715610b9557610b95610afd565b604052818152828201602001871015610bac575f5ffd5b816020840160208301375f602083830101528093505050509250929050565b5f60208284031215610bdb575f5ffd5b5035919050565b6001600160a01b03169052565b6001600160a01b0391909116815260200190565b5f61018082019050610c16828451610be2565b6020830151610c286020840182610be2565b506040830151610c3b6040840182610be2565b50606083015160608301526080830151608083015260a0830151610c6760a084018263ffffffff169052565b5060c083015160c083015260e083015160e0830152610100830151610100830152610120830151610c9d61012084018215159052565b5061014083015161014083015261016083015161016083015292915050565b5f60208284031215610ccc575f5ffd5b5051919050565b6020808252600990820152683737ba1037bbb732b960b91b604082015260600190565b634e487b7160e01b5f52601160045260245ffd5b818103818111156109a4576109a4610cf6565b80820281158282048414176109a4576109a4610cf6565b5f82610d4e57634e487b7160e01b5f52601260045260245ffd5b500490565b808201808211156109a4576109a4610cf656fecfee8434d5246c71c4dc9e730e0cb573c063c628571ae7433b72c509840fa949a2646970667358221220d74934d7ded8ff51afa75de6c4d1e59c0ac0bcb883790fd417fbccf3afe7f90464736f6c634300081c0033","linkReferences":{}},"methodIdentifiers":{"APPDATA()":"175598d3","buyToken()":"a4821719","close()":"43d726d6","domainSeparator()":"f698da25","isValidSignature(bytes32,bytes)":"1626ba7e","orderForSellAmount(uint256)":"eb3582b7","owner()":"8da5cb5b","sellToken()":"9769f0b0","totalFeeAmount()":"96521716","totalSellAmount()":"5dd8d06d","validTo()":"a88780ef","withdraw(uint256)":"2e1a7d4d"},"id":92}