{"abi":[{"type":"function","name":"executeTest","inputs":[{"name":"interaction","type":"tuple","internalType":"struct GPv2Interaction.Data","components":[{"name":"target","type":"address","internalType":"address"},{"name":"value","type":"uint256","internalType":"uint256"},{"name":"callData","type":"bytes","internalType":"bytes"}]}],"outputs":[],"stateMutability":"nonpayable"},{"type":"function","name":"selectorTest","inputs":[{"name":"interaction","type":"tuple","internalType":"struct GPv2Interaction.Data","components":[{"name":"target","type":"address","internalType":"address"},{"name":"value","type":"uint256","internalType":"uint256"},{"name":"callData","type":"bytes","internalType":"bytes"}]}],"outputs":[{"name":"","type":"bytes4","internalType":"bytes4"}],"stateMutability":"pure"}],"bytecode":{"object":"0x6080604052348015600e575f5ffd5b506101ef8061001c5f395ff3fe608060405234801561000f575f5ffd5b5060043610610034575f3560e01c80637d787b4014610038578063c3b9aeb814610068575b5f5ffd5b61004b61004636600461010d565b61007d565b6040516001600160e01b0319909116815260200160405180910390f35b61007b61007636600461010d565b61008d565b005b5f61008782610099565b92915050565b610096816100c2565b50565b5f36816100a9604085018561014a565b9092509050600481106100bb57813592505b5050919050565b5f6100d06020830183610193565b90506020820135365f6100e6604086018661014a565b91509150604051818382375f5f838387895af1610105573d5f5f3e3d5ffd5b505050505050565b5f6020828403121561011d575f5ffd5b81356001600160401b03811115610132575f5ffd5b820160608185031215610143575f5ffd5b9392505050565b5f5f8335601e1984360301811261015f575f5ffd5b8301803591506001600160401b03821115610178575f5ffd5b60200191503681900382131561018c575f5ffd5b9250929050565b5f602082840312156101a3575f5ffd5b81356001600160a01b0381168114610143575f5ffdfea26469706673582212203bdb75a0c85c368a141fdea0f564fd8601de38783bef934f32e8e6a3c1f54e7964736f6c634300081c0033","linkReferences":{}},"methodIdentifiers":{"executeTest((address,uint256,bytes))":"c3b9aeb8","selectorTest((address,uint256,bytes))":"7d787b40"},"id":30}