{"abi":[{"type":"constructor","inputs":[{"name":"authenticator_","type":"address","internalType":"contract GPv2Authentication"},{"name":"vault_","type":"address","internalType":"contract IVault"}],"stateMutability":"nonpayable"},{"type":"receive","stateMutability":"payable"},{"type":"function","name":"authenticator","inputs":[],"outputs":[{"name":"","type":"address","internalType":"contract GPv2Authentication"}],"stateMutability":"view"},{"type":"function","name":"domainSeparator","inputs":[],"outputs":[{"name":"","type":"bytes32","internalType":"bytes32"}],"stateMutability":"view"},{"type":"function","name":"filledAmount","inputs":[{"name":"","type":"bytes","internalType":"bytes"}],"outputs":[{"name":"","type":"uint256","internalType":"uint256"}],"stateMutability":"view"},{"type":"function","name":"freeFilledAmountStorage","inputs":[{"name":"orderUids","type":"bytes[]","internalType":"bytes[]"}],"outputs":[],"stateMutability":"nonpayable"},{"type":"function","name":"freePreSignatureStorage","inputs":[{"name":"orderUids","type":"bytes[]","internalType":"bytes[]"}],"outputs":[],"stateMutability":"nonpayable"},{"type":"function","name":"getStorageAt","inputs":[{"name":"offset","type":"uint256","internalType":"uint256"},{"name":"length","type":"uint256","internalType":"uint256"}],"outputs":[{"name":"","type":"bytes","internalType":"bytes"}],"stateMutability":"view"},{"type":"function","name":"invalidateOrder","inputs":[{"name":"orderUid","type":"bytes","internalType":"bytes"}],"outputs":[],"stateMutability":"nonpayable"},{"type":"function","name":"preSignature","inputs":[{"name":"","type":"bytes","internalType":"bytes"}],"outputs":[{"name":"","type":"uint256","internalType":"uint256"}],"stateMutability":"view"},{"type":"function","name":"setPreSignature","inputs":[{"name":"orderUid","type":"bytes","internalType":"bytes"},{"name":"signed","type":"bool","internalType":"bool"}],"outputs":[],"stateMutability":"nonpayable"},{"type":"function","name":"settle","inputs":[{"name":"tokens","type":"address[]","internalType":"contract IERC20[]"},{"name":"clearingPrices","type":"uint256[]","internalType":"uint256[]"},{"name":"trades","type":"tuple[]","internalType":"struct GPv2Trade.Data[]","components":[{"name":"sellTokenIndex","type":"uint256","internalType":"uint256"},{"name":"buyTokenIndex","type":"uint256","internalType":"uint256"},{"name":"receiver","type":"address","internalType":"address"},{"name":"sellAmount","type":"uint256","internalType":"uint256"},{"name":"buyAmount","type":"uint256","internalType":"uint256"},{"name":"validTo","type":"uint32","internalType":"uint32"},{"name":"appData","type":"bytes32","internalType":"bytes32"},{"name":"feeAmount","type":"uint256","internalType":"uint256"},{"name":"flags","type":"uint256","internalType":"uint256"},{"name":"executedAmount","type":"uint256","internalType":"uint256"},{"name":"signature","type":"bytes","internalType":"bytes"}]},{"name":"interactions","type":"tuple[][3]","internalType":"struct GPv2Interaction.Data[][3]","components":[{"name":"target","type":"address","internalType":"address"},{"name":"value","type":"uint256","internalType":"uint256"},{"name":"callData","type":"bytes","internalType":"bytes"}]}],"outputs":[],"stateMutability":"nonpayable"},{"type":"function","name":"simulateDelegatecall","inputs":[{"name":"targetContract","type":"address","internalType":"address"},{"name":"calldataPayload","type":"bytes","internalType":"bytes"}],"outputs":[{"name":"response","type":"bytes","internalType":"bytes"}],"stateMutability":"nonpayable"},{"type":"function","name":"simulateDelegatecallInternal","inputs":[{"name":"targetContract","type":"address","internalType":"address"},{"name":"calldataPayload","type":"bytes","internalType":"bytes"}],"outputs":[{"name":"response","type":"bytes","internalType":"bytes"}],"stateMutability":"nonpayable"},{"type":"function","name":"swap","inputs":[{"name":"swaps","type":"tuple[]","internalType":"struct IVault.BatchSwapStep[]","components":[{"name":"poolId","type":"bytes32","internalType":"bytes32"},{"name":"assetInIndex","type":"uint256","internalType":"uint256"},{"name":"assetOutIndex","type":"uint256","internalType":"uint256"},{"name":"amount","type":"uint256","internalType":"uint256"},{"name":"userData","type":"bytes","internalType":"bytes"}]},{"name":"tokens","type":"address[]","internalType":"contract IERC20[]"},{"name":"trade","type":"tuple","internalType":"struct GPv2Trade.Data","components":[{"name":"sellTokenIndex","type":"uint256","internalType":"uint256"},{"name":"buyTokenIndex","type":"uint256","internalType":"uint256"},{"name":"receiver","type":"address","internalType":"address"},{"name":"sellAmount","type":"uint256","internalType":"uint256"},{"name":"buyAmount","type":"uint256","internalType":"uint256"},{"name":"validTo","type":"uint32","internalType":"uint32"},{"name":"appData","type":"bytes32","internalType":"bytes32"},{"name":"feeAmount","type":"uint256","internalType":"uint256"},{"name":"flags","type":"uint256","internalType":"uint256"},{"name":"executedAmount","type":"uint256","internalType":"uint256"},{"name":"signature","type":"bytes","internalType":"bytes"}]}],"outputs":[],"stateMutability":"nonpayable"},{"type":"function","name":"vault","inputs":[],"outputs":[{"name":"","type":"address","internalType":"contract IVault"}],"stateMutability":"view"},{"type":"function","name":"vaultRelayer","inputs":[],"outputs":[{"name":"","type":"address","internalType":"contract GPv2VaultRelayer"}],"stateMutability":"view"},{"type":"event","name":"Interaction","inputs":[{"name":"target","type":"address","indexed":true,"internalType":"address"},{"name":"value","type":"uint256","indexed":false,"internalType":"uint256"},{"name":"selector","type":"bytes4","indexed":false,"internalType":"bytes4"}],"anonymous":false},{"type":"event","name":"OrderInvalidated","inputs":[{"name":"owner","type":"address","indexed":true,"internalType":"address"},{"name":"orderUid","type":"bytes","indexed":false,"internalType":"bytes"}],"anonymous":false},{"type":"event","name":"PreSignature","inputs":[{"name":"owner","type":"address","indexed":true,"internalType":"address"},{"name":"orderUid","type":"bytes","indexed":false,"internalType":"bytes"},{"name":"signed","type":"bool","indexed":false,"internalType":"bool"}],"anonymous":false},{"type":"event","name":"Settlement","inputs":[{"name":"solver","type":"address","indexed":true,"internalType":"address"}],"anonymous":false},{"type":"event","name":"Trade","inputs":[{"name":"owner","type":"address","indexed":true,"internalType":"address"},{"name":"sellToken","type":"address","indexed":false,"internalType":"contract IERC20"},{"name":"buyToken","type":"address","indexed":false,"internalType":"contract IERC20"},{"name":"sellAmount","type":"uint256","indexed":false,"internalType":"uint256"},{"name":"buyAmount","type":"uint256","indexed":false,"internalType":"uint256"},{"name":"feeAmount","type":"uint256","indexed":false,"internalType":"uint256"},{"name":"orderUid","type":"bytes","indexed":false,"internalType":"bytes"}],"anonymous":false}],"bytecode":{"object":"0x610100604052348015610010575f5ffd5b5060405161454838038061454883398101604081905261002f9161015a565b604080517f8b73c3c69bb8fe3d512ecc4cf759cc79239f7b179b0ffacaa9a75d522b39400f60208201527f6c85c0337eba1661327f94f3bf46c8a7f9311a563f4d5c948362567f5d8ed60c918101919091527ff9446b8e937d86f0bc87cac73923491692b123ca5f8761908494703758206adf606082015246608082018190523060a08301529060c00160408051601f19818403018152908290528051602090910120608052600180556001600160a01b0380851660a052831660c0528291506100f890610136565b6001600160a01b039091168152602001604051809103905ff080158015610121573d5f5f3e3d5ffd5b506001600160a01b031660e052506101929050565b61104e806134fa83390190565b6001600160a01b0381168114610157575f5ffd5b50565b5f5f6040838503121561016b575f5ffd5b825161017681610143565b602084015190925061018781610143565b809150509250929050565b60805160a05160c05160e0516133046101f65f395f818161020e0152818161046601528181610ad1015261104f01525f818161032601526104eb01525f81816101160152818161038f015261076101525f81816102d40152611d7901526133045ff3fe6080604052600436106100ba575f3560e01c806313d79a0b146100c557806315337bc0146100e65780632335c76b146101055780632479fb6e1461014e57806343218e19146101935780635624b25b146101bf578063845a101f146101de5780639b552cc2146101fd578063a2a7d51b14610230578063d08d33d11461024f578063ec6cb13f14610285578063ed9f35ce146102a4578063f698da25146102c3578063f84436bd146102f6578063fbfa77cf14610315575f5ffd5b366100c157005b5f5ffd5b3480156100d0575f5ffd5b506100e46100df366004612602565b610348565b005b3480156100f1575f5ffd5b506100e4610100366004612709565b610542565b348015610110575f5ffd5b506101387f000000000000000000000000000000000000000000000000000000000000000081565b6040516101459190612747565b60405180910390f35b348015610159575f5ffd5b5061018561016836600461280a565b805160208183018101805160028252928201919093012091525481565b604051908152602001610145565b34801561019e575f5ffd5b506101b26101ad366004612852565b610617565b60405161014591906128cc565b3480156101ca575f5ffd5b506101b26101d93660046128de565b6106a8565b3480156101e9575f5ffd5b506100e46101f83660046128fe565b610723565b348015610208575f5ffd5b506101387f000000000000000000000000000000000000000000000000000000000000000081565b34801561023b575f5ffd5b506100e461024a36600461299b565b610d95565b34801561025a575f5ffd5b5061018561026936600461280a565b80516020818301810180515f8252928201919093012091525481565b348015610290575f5ffd5b506100e461029f3660046129da565b610dc3565b3480156102af575f5ffd5b506100e46102be36600461299b565b610ed1565b3480156102ce575f5ffd5b506101857f000000000000000000000000000000000000000000000000000000000000000081565b348015610301575f5ffd5b506101b2610310366004612852565b610efc565b348015610320575f5ffd5b506101387f000000000000000000000000000000000000000000000000000000000000000081565b6002600154036103735760405162461bcd60e51b815260040161036a90612a2c565b60405180910390fd5b60026001556040516302cc250d60e01b81526001600160a01b037f000000000000000000000000000000000000000000000000000000000000000016906302cc250d906103c4903390600401612747565b602060405180830381865afa1580156103df573d5f5f3e3d5ffd5b505050506040513d601f19601f820116820180604052508101906104039190612a63565b61041f5760405162461bcd60e51b815260040161036a90612a7e565b61043a815f5b6020028101906104359190612abe565b611014565b5f5f61044a89898989898961114d565b604051637d10d11f60e01b815291935091506001600160a01b037f00000000000000000000000000000000000000000000000000000000000000001690637d10d11f9061049b908590600401612b34565b5f604051808303815f87803b1580156104b2575f5ffd5b505af11580156104c4573d5f5f3e3d5ffd5b505050506104de8360016003811061042557610425612aaa565b6105116001600160a01b037f000000000000000000000000000000000000000000000000000000000000000016826112d0565b61051c836002610425565b60405133905f51602061328f5f395f51905f52905f90a250506001805550505050505050565b5f61054d838361154f565b509150506001600160a01b03811633146105a95760405162461bcd60e51b815260206004820152601f60248201527f475076323a2063616c6c657220646f6573206e6f74206f776e206f7264657200604482015260640161036a565b5f19600284846040516105bd929190612b81565b908152602001604051809103902081905550806001600160a01b03167f875b6cb035bbd4ac6500fabc6d1e4ca5bdc58a3e2b424ccb5c24cdbebeb009a9848460405161060a929190612bb8565b60405180910390a2505050565b60605f836001600160a01b0316836040516106329190612be2565b5f60405180830381855af49150503d805f811461066a576040519150601f19603f3d011682016040523d82523d5f602084013e61066f565b606091505b506040519093509091506106a19061068d9084908490602001612bed565b6040516020818303038152906040526115b1565b5092915050565b60605f6106b6836020612c1e565b6001600160401b038111156106cd576106cd61275b565b6040519080825280601f01601f1916602001820160405280156106f7576020820181803683370190505b5090505f5b8381101561071957848101546020808302840101526001016106fc565b5090505b92915050565b6002600154036107455760405162461bcd60e51b815260040161036a90612a2c565b60026001556040516302cc250d60e01b81526001600160a01b037f000000000000000000000000000000000000000000000000000000000000000016906302cc250d90610796903390600401612747565b602060405180830381865afa1580156107b1573d5f5f3e3d5ffd5b505050506040513d601f19601f820116820180604052508101906107d59190612a63565b6107f15760405162461bcd60e51b815260040161036a90612a7e565b5f6107fa6115b9565b805190915061080b8286868661165e565b5f5f51602061326f5f395f51905f528261010001511461082c57600161082e565b5f5b604080516080810182525f808252602082018181528284018281526060808501848152958a01516001600160a01b0390811686526101408a01515f5160206132af5f395f51905f52908114909452908a015116905261016087015114909252919250866001600160401b038111156108a8576108a861275b565b6040519080825280602002602001820160405280156108d1578160200160208202803683370190505b50610100850151909150610120870135907f0c4d888d74c0118b6b7e14c1f4c4b767f24454879a703be6fda34e9111cb988b016109b95784608001518110156109525760405162461bcd60e51b8152602060048201526013602482015272475076323a206c696d697420746f6f206c6f7760681b604482015260640161036a565b61095f85606001516116e0565b82885f01358151811061097457610974612aaa565b602002602001018181525050610989816116e0565b61099290612c35565b828860200135815181106109a8576109a8612aaa565b602002602001018181525050610a67565b8460600151811115610a045760405162461bcd60e51b815260206004820152601460248201527308ea0ec647440d8d2dad2e840e8dede40d0d2ced60631b604482015260640161036a565b610a0d816116e0565b82885f013581518110610a2257610a22612aaa565b602002602001018181525050610a3b85608001516116e0565b610a4490612c35565b82886020013581518110610a5a57610a5a612aaa565b6020026020010181815250505b610a6f612585565b8660400151815f01906001600160a01b031690816001600160a01b031681525050855f015181602001906001600160a01b031690816001600160a01b0316815250508560e001518160400181815250508561014001518160600181815250505f7f00000000000000000000000000000000000000000000000000000000000000006001600160a01b0316634817a286878f8f8f8f8b8b8f60a001518b6040518a63ffffffff1660e01b8152600401610b2f99989796959493929190612cdb565b5f604051808303815f875af1158015610b4a573d5f5f3e3d5ffd5b505050506040513d5f823e601f3d908101601f19168201604052610b719190810190612e61565b90505f886020015190505f610ba1838c5f013581518110610b9457610b94612aaa565b6020026020010151611738565b90505f610bd3848d6020013581518110610bbd57610bbd612aaa565b6020026020010151610bce90612c35565b611738565b9050600283604051610be59190612be2565b9081526020016040518091039020545f14610c125760405162461bcd60e51b815260040161036a90612f07565b5f51602061326f5f395f51905f528a610100015103610ca85789606001518214610c7e5760405162461bcd60e51b815260206004820152601f60248201527f475076323a2073656c6c20616d6f756e74206e6f742072657370656374656400604482015260640161036a565b8960600151600284604051610c939190612be2565b90815260405190819003602001902055610d21565b89608001518114610cfb5760405162461bcd60e51b815260206004820152601e60248201527f475076323a2062757920616d6f756e74206e6f74207265737065637465640000604482015260640161036a565b8960800151600284604051610d109190612be2565b908152604051908190036020019020555b8a604001516001600160a01b03165f51602061320f5f395f51905f528b5f01518c6020015185858f60e0015189604051610d6096959493929190612f33565b60405180910390a260405133905f51602061328f5f395f51905f52905f90a25050600180555050505050505050505050505050565b303314610db45760405162461bcd60e51b815260040161036a90612f7f565b610dbf5f8383611782565b5050565b5f610dce848461154f565b509150506001600160a01b0381163314610e275760405162461bcd60e51b815260206004820152601a60248201527923a83b191d1031b0b73737ba10383932b9b4b3b71037b93232b960311b604482015260640161036a565b8115610e63575f51602061324f5f395f51905f525f1c5f8585604051610e4e929190612b81565b90815260405190819003602001902055610e86565b5f5f8585604051610e75929190612b81565b908152604051908190036020019020555b806001600160a01b03167f01bf7c8b0ca55deecbea89d7e58295b7ffbf685fd0d96801034ba8c6ffe1c68d858585604051610ec393929190612fb1565b60405180910390a250505050565b303314610ef05760405162461bcd60e51b815260040161036a90612f7f565b610dbf60028383611782565b60605f6343218e1960e01b8484604051602401610f1a929190612fd6565b60408051601f198184030181529181526020820180516001600160e01b03166001600160e01b03199094169390931790925290519091503090610f5e908390612be2565b5f604051808303815f865af19150503d805f8114610f97576040519150601f19603f3d011682016040523d82523d5f602084013e610f9c565b606091505b509050809250505f8260018451610fb39190612ff9565b81518110610fc357610fc3612aaa565b602001015160f81c60f81b6001600160f81b031916600160f81b149050610ff68360018551610ff29190612ff9565b9052565b801561100357505061071d565b61100c836115b1565b505092915050565b5f5b81811015611148573683838381811061103157611031612aaa565b9050602002810190611043919061300c565b90506001600160a01b037f00000000000000000000000000000000000000000000000000000000000000001661107c602083018361302a565b6001600160a01b0316036110d05760405162461bcd60e51b815260206004820152601b60248201527a23a83b191d103337b93134b23232b71034b73a32b930b1ba34b7b760291b604482015260640161036a565b6110d981611844565b6110e6602082018261302a565b6001600160a01b03167fed99827efb37016f2275f98c4bcf71c7551c75d59e9b450f79fa32e60be672c2826020013561111e8461188f565b604080519283526001600160e01b031990911660208301520160405180910390a250600101611016565b505050565b6060805f6111596115b9565b9050836001600160401b038111156111735761117361275b565b6040519080825280602002602001820160405280156111ac57816020015b611199612585565b8152602001906001900390816111915790505b509250836001600160401b038111156111c7576111c761275b565b60405190808252806020026020018201604052801561120057816020015b6111ed612585565b8152602001906001900390816111e55790505b5091505f5b848110156112c3573686868381811061122057611220612aaa565b90506020028101906112329190613045565b9050611240838c8c8461165e565b6112ba838a8a843581811061125757611257612aaa565b905060200201358b8b856020013581811061127457611274612aaa565b9050602002013584610120013589878151811061129357611293612aaa565b60200260200101518988815181106112ad576112ad612aaa565b60200260200101516118b8565b50600101611205565b5050965096945050505050565b5f81516001600160401b038111156112ea576112ea61275b565b60405190808252806020026020018201604052801561134157816020015b6040805160a0810182525f808252602080830182905292820181905260608201819052608082015282525f199092019101816113085790505b5090505f805b83518110156114e5575f84828151811061136357611363612aaa565b6020026020010151905073eeeeeeeeeeeeeeeeeeeeeeeeeeeeeeeeeeeeeeee6001600160a01b031681602001516001600160a01b03160361143e575f5160206132af5f395f51905f528160600151036113fe5760405162461bcd60e51b815260206004820152601e60248201527f475076323a20756e737570706f7274656420696e7465726e616c204554480000604482015260640161036a565b805160408083015190516001600160a01b039092169181156108fc0291905f818181858888f19350505050158015611438573d5f5f3e3d5ffd5b506114dc565b5f51602061322f5f395f51905f5281606001510361147c57805160408201516020830151611477926001600160a01b0390911691611bad565b6114dc565b5f84846114888161305a565b95508151811061149a5761149a612aaa565b6020908102919091018101515f8152838201516001600160a01b0390811692820192909252604080850151908201523060608201528351909116608090910152505b50600101611347565b508015611549578082526040516303a38fa160e21b81526001600160a01b03851690630e8e3e849061151b908590600401613072565b5f604051808303815f87803b158015611532575f5ffd5b505af1158015611544573d5f5f3e3d5ffd5b505050505b50505050565b5f8080603884146115965760405162461bcd60e51b815260206004820152601160248201527011d41d8c8e881a5b9d985b1a59081d5a59607a1b604482015260640161036a565b5050823593602084013560601c936034013560e01c92509050565b805160208201fd5b60408051610200810182525f6080820181815260a0830182905260c0830182905260e08301829052610100830182905261012083018290526101408301829052610160830182905261018083018290526101a083018290526101c083018290526101e083018290528252606060208301819052928201819052918101919091526040805160388082526060820190925290602082018180368337505050602082015290565b83515f61166d83868685611c35565b90505f8061168984846116846101408901896130f5565b611d3b565b915091506116ac82828660a001518b60200151611e38909392919063ffffffff16565b6001600160a01b03811660408901526116c58482611e97565b6001600160a01b031660609098019790975250505050505050565b5f6001600160ff1b038211156117345760405162461bcd60e51b815260206004820152601960248201527853616665436173743a20696e74323536206f766572666c6f7760381b604482015260640161036a565b5090565b5f5f8212156117345760405162461bcd60e51b815260206004820152601660248201527553616665436173743a206e6f7420706f73697469766560501b604482015260640161036a565b5f5b8181101561154957365f8484848181106117a0576117a0612aaa565b90506020028101906117b291906130f5565b915091505f6117c1838361154f565b92505050428163ffffffff16106118145760405162461bcd60e51b815260206004820152601760248201527611d41d8c8e881bdc99195c881cdd1a5b1b081d985b1a59604a1b604482015260640161036a565b5f878484604051611826929190612b81565b90815260405190819003602001902055505060019091019050611784565b5f611852602083018361302a565b90506020820135365f61186860408601866130f5565b91509150604051818382375f5f838387895af1611887573d5f5f3e3d5ffd5b505050505050565b5f368161189f60408501856130f5565b9092509050600481106118b157813592505b5050919050565b8551602087015160a08201514263ffffffff90911610156119115760405162461bcd60e51b815260206004820152601360248201527211d41d8c8e881bdc99195c88195e1c1a5c9959606a1b604482015260640161036a565b60808201516119209087611ebb565b606083015161192f9089611ebb565b101561197d5760405162461bcd60e51b815260206004820152601f60248201527f475076323a206c696d6974207072696365206e6f742072657370656374656400604482015260640161036a565b5f5f5f5f5f51602061326f5f395f51905f5286610100015103611a4e57856101200151156119d4578893506119cd86606001516119c7868960e00151611ebb90919063ffffffff16565b90611f2f565b91506119e3565b856060015193508560e0015191505b6119f78a6119f1868e611ebb565b90611f83565b9250611a2384600287604051611a0d9190612be2565b9081526040519081900360200190205490612002565b90508560600151811115611a495760405162461bcd60e51b815260040161036a90612f07565b611adb565b85610120015115611a8257889250611a7b86608001516119c7858960e00151611ebb90919063ffffffff16565b9150611a91565b856080015192508560e0015191505b611a9f8b6119c7858d611ebb565b9350611ab583600287604051611a0d9190612be2565b90508560800151811115611adb5760405162461bcd60e51b815260040161036a90612f07565b611ae58483612002565b935080600286604051611af89190612be2565b9081526020016040518091039020819055508b604001516001600160a01b03165f51602061320f5f395f51905f52875f015188602001518787878b604051611b4596959493929190612f33565b60405180910390a250506040808b01516001600160a01b039081168852855181166020808a0191909152888301949094526101408601516060988901529a8701518b16865282850151909a169185019190915297830197909752610160015191015250505050565b60405163a9059cbb60e01b8082526001600160a01b038416600483015260248201839052905f8060448382895af1611be7573d5f5f3e3d5ffd5b50611bf18461205e565b6115495760405162461bcd60e51b815260206004820152601560248201527423a83b191d103330b4b632b2103a3930b739b332b960591b604482015260640161036a565b5f83838635818110611c4957611c49612aaa565b9050602002016020810190611c5e919061302a565b6001600160a01b0316825283836020870135818110611c7f57611c7f612aaa565b9050602002016020810190611c94919061302a565b6001600160a01b03166020830152611cb2606086016040870161302a565b6001600160a01b031660408301526060808601359083015260808086013590830152611ce460c0860160a08701613137565b63ffffffff1660a083015260c0808601359083015260e08086013590830152611d11610100860135612101565b61016087019190915261014086019190915290151561012085015261010090930152509392505050565b601f19840180517fd5a25ba2e97094ad7d83dc28a6572da797d6b3e7fc6663bd93efb789fc17e48982526101a08220915260405161190160f01b81527f000000000000000000000000000000000000000000000000000000000000000060028201526022810191909152604290205f80856003811115611dbd57611dbd612c4f565b03611dd457611dcd828585612204565b9050611e2f565b6001856003811115611de857611de8612c4f565b03611df857611dcd828585612218565b6002856003811115611e0c57611e0c612c4f565b03611e1c57611dcd82858561227a565b611e2c8285858960a00151612364565b90505b94509492505050565b6038845114611e855760405162461bcd60e51b8152602060048201526019602482015278475076323a2075696420627566666572206f766572666c6f7760381b604482015260640161036a565b60388401526034830152602090910152565b60408201515f906001600160a01b0316611eb257508061071d565b50506040015190565b5f825f03611eca57505f61071d565b5f611ed58385612c1e565b905082611ee2858361316e565b14611f285760405162461bcd60e51b8152602060048201526016602482015275536166654d6174683a206d756c206f766572666c6f7760501b604482015260640161036a565b9392505050565b5f5f8211611f795760405162461bcd60e51b81526020600482015260176024820152760536166654d6174683a206469766973696f6e206279203604c1b604482015260640161036a565b611f28828461316e565b5f5f8211611fd35760405162461bcd60e51b815260206004820152601f60248201527f536166654d6174683a206365696c696e67206469766973696f6e206279203000604482015260640161036a565b611fdd8284613181565b15611fe9576001611feb565b5f5b60ff16611ff8838561316e565b611f289190613194565b5f8061200e8385613194565b905083811015611f285760405162461bcd60e51b815260206004820152601b60248201527a536166654d6174683a206164646974696f6e206f766572666c6f7760281b604482015260640161036a565b5f612080565b62461bcd60e51b5f52602060045280602452508060445260645ffd5b3d80156120bf57602081146120f0576120ba7f475076323a206d616c666f726d6564207472616e7366657220726573756c7400601f612064565b6120fb565b823b6120e7576120e77311d41d8c8e881b9bdd08184818dbdb9d1c9858dd60621b6014612064565b600191506120fb565b3d5f5f3e5f51151591505b50919050565b5f5f5f5f5f856001165f03612125575f51602061326f5f395f51905f529450612149565b7f6ed88e868af0a1983e3886d5f3e95a2fafbd6c3450bc229e27342283dc429ccc94505b6002861615159350600886165f03612170575f51602061322f5f395f51905f5292506121b3565b856004165f036121a2577fabee3b73373acd583a130924aad6dc38cfdc44ba0555ba94ce2ff63980ea063292506121b3565b5f5160206132af5f395f51905f5292505b856010165f036121d2575f51602061322f5f395f51905f5291506121e3565b5f5160206132af5f395f51905f5291505b600586901c60038111156121f9576121f9612c4f565b905091939590929450565b5f61221084848461246a565b949350505050565b6040517b0ca2ba3432b932bab69029b4b3b732b21026b2b9b9b0b3b29d05199960211b6020820152603c81018490525f908190605c0160405160208183030381529060405280519060200120905061227181858561246a565b95945050505050565b813560601c365f61228e84601481886131a7565b604051630b135d3f60e11b8082529294509092506001600160a01b03851690631626ba7e906122c5908a90879087906004016131ce565b602060405180830381865afa1580156122e0573d5f5f3e3d5ffd5b505050506040513d601f19601f8201168201806040525081019061230491906131e7565b6001600160e01b0319161461235b5760405162461bcd60e51b815260206004820152601f60248201527f475076323a20696e76616c69642065697031323731207369676e617475726500604482015260640161036a565b50509392505050565b5f601483146123b45760405162461bcd60e51b815260206004820152601c60248201527b475076323a206d616c666f726d6564207072657369676e617475726560201b604482015260640161036a565b506040805160388082526060828101909352853590921c915f91906020820181803683370190505090506123ea81878486611e38565b5f51602061324f5f395f51905f525f1c5f826040516124099190612be2565b908152602001604051809103902054146124615760405162461bcd60e51b815260206004820152601960248201527811d41d8c8e881bdc99195c881b9bdd081c1c995cda59db9959603a1b604482015260640161036a565b50949350505050565b5f604182146124bb5760405162461bcd60e51b815260206004820152601f60248201527f475076323a206d616c666f726d6564206563647361207369676e617475726500604482015260640161036a565b604080515f815260208082018084528790528583013560f81c92820183905285356060830181905290860135608083018190529092909160019060a0016020604051602081039080840390855afa158015612518573d5f5f3e3d5ffd5b5050604051601f1901519450506001600160a01b03841661257b5760405162461bcd60e51b815260206004820152601d60248201527f475076323a20696e76616c6964206563647361207369676e6174757265000000604482015260640161036a565b5050509392505050565b60405180608001604052805f6001600160a01b031681526020015f6001600160a01b031681526020015f81526020015f81525090565b5f5f83601f8401126125cb575f5ffd5b5081356001600160401b038111156125e1575f5ffd5b6020830191508360208260051b85010111156125fb575f5ffd5b9250929050565b5f5f5f5f5f5f5f6080888a031215612618575f5ffd5b87356001600160401b0381111561262d575f5ffd5b6126398a828b016125bb565b90985096505060208801356001600160401b03811115612657575f5ffd5b6126638a828b016125bb565b90965094505060408801356001600160401b03811115612681575f5ffd5b61268d8a828b016125bb565b90945092505060608801356001600160401b038111156126ab575f5ffd5b8801606081018a10156126bc575f5ffd5b8091505092959891949750929550565b5f5f83601f8401126126dc575f5ffd5b5081356001600160401b038111156126f2575f5ffd5b6020830191508360208285010111156125fb575f5ffd5b5f5f6020838503121561271a575f5ffd5b82356001600160401b0381111561272f575f5ffd5b61273b858286016126cc565b90969095509350505050565b6001600160a01b0391909116815260200190565b634e487b7160e01b5f52604160045260245ffd5b604051601f8201601f191681016001600160401b03811182821017156127975761279761275b565b604052919050565b5f82601f8301126127ae575f5ffd5b81356001600160401b038111156127c7576127c761275b565b6127da601f8201601f191660200161276f565b8181528460208386010111156127ee575f5ffd5b816020850160208301375f918101602001919091529392505050565b5f6020828403121561281a575f5ffd5b81356001600160401b0381111561282f575f5ffd5b6122108482850161279f565b6001600160a01b038116811461284f575f5ffd5b50565b5f5f60408385031215612863575f5ffd5b823561286e8161283b565b915060208301356001600160401b03811115612888575f5ffd5b6128948582860161279f565b9150509250929050565b5f81518084528060208401602086015e5f602082860101526020601f19601f83011685010191505092915050565b602081525f611f28602083018461289e565b5f5f604083850312156128ef575f5ffd5b50508035926020909101359150565b5f5f5f5f5f60608688031215612912575f5ffd5b85356001600160401b03811115612927575f5ffd5b612933888289016125bb565b90965094505060208601356001600160401b03811115612951575f5ffd5b61295d888289016125bb565b90945092505060408601356001600160401b0381111561297b575f5ffd5b8601610160818903121561298d575f5ffd5b809150509295509295909350565b5f5f602083850312156129ac575f5ffd5b82356001600160401b038111156129c1575f5ffd5b61273b858286016125bb565b801515811461284f575f5ffd5b5f5f5f604084860312156129ec575f5ffd5b83356001600160401b03811115612a01575f5ffd5b612a0d868287016126cc565b9094509250506020840135612a21816129cd565b809150509250925092565b6020808252601f908201527f5265656e7472616e637947756172643a207265656e7472616e742063616c6c00604082015260600190565b5f60208284031215612a73575f5ffd5b8151611f28816129cd565b60208082526012908201527123a83b191d103737ba10309039b7b63b32b960711b604082015260600190565b634e487b7160e01b5f52603260045260245ffd5b5f5f8335601e19843603018112612ad3575f5ffd5b8301803591506001600160401b03821115612aec575f5ffd5b6020019150600581901b36038213156125fb575f5ffd5b80516001600160a01b0390811683526020808301519091169083015260408082015190830152606090810151910152565b602080825282518282018190525f918401906040840190835b81811015612b7657612b60838551612b03565b6020939093019260809290920191600101612b4d565b509095945050505050565b818382375f9101908152919050565b81835281816020850137505f828201602090810191909152601f909101601f19169091010190565b602081525f612210602083018486612b90565b5f81518060208401855e5f93019283525090919050565b5f611f288284612bcb565b5f612bf88285612bcb565b92151560f81b83525050600101919050565b634e487b7160e01b5f52601160045260245ffd5b808202811582820484141761071d5761071d612c0a565b5f600160ff1b8201612c4957612c49612c0a565b505f0390565b634e487b7160e01b5f52602160045260245ffd5b8183526020830192505f815f5b84811015612ca1578135612c838161283b565b6001600160a01b031686526020958601959190910190600101612c70565b5093949350505050565b5f8151808452602084019350602083015f5b82811015612ca1578151865260209586019590910190600101612cbd565b5f6101a0820160028c10612cf157612cf1612c4f565b8b83526101a060208401528990526101c060058a901b830181019083018b5f609e1936839003015b8d821015612dcb578685036101bf190184528235818112612d38575f5ffd5b8f0180358652602080820135908701526040808201359087015260608082013590870152608081013536829003601e19018112612d73575f5ffd5b016020810190356001600160401b03811115612d8d575f5ffd5b803603821315612d9b575f5ffd5b60a06080880152612db060a088018284612b90565b96505050602083019250602084019350600182019150612d19565b505050508281036040840152612de281898b612c63565b87516001600160a01b0390811660608681019190915260208a01511515608087015260408a015190911660a0860152880151151560c0850152905082810360e0840152612e2f8187612cab565b915050612e4561010083018563ffffffff169052565b612e53610120830184612b03565b9a9950505050505050505050565b5f60208284031215612e71575f5ffd5b81516001600160401b03811115612e86575f5ffd5b8201601f81018413612e96575f5ffd5b80516001600160401b03811115612eaf57612eaf61275b565b8060051b612ebf6020820161276f565b91825260208184018101929081019087841115612eda575f5ffd5b6020850194505b83851015612efc578451825260209485019490910190612ee1565b979650505050505050565b60208082526012908201527111d41d8c8e881bdc99195c88199a5b1b195960721b604082015260600190565b6001600160a01b0387811682528616602082015260408101859052606081018490526080810183905260c060a082018190525f90612f739083018461289e565b98975050505050505050565b60208082526018908201527723a83b191d103737ba1030b71034b73a32b930b1ba34b7b760411b604082015260600190565b604081525f612fc4604083018587612b90565b90508215156020830152949350505050565b6001600160a01b03831681526040602082018190525f906122109083018461289e565b8181038181111561071d5761071d612c0a565b5f8235605e19833603018112613020575f5ffd5b9190910192915050565b5f6020828403121561303a575f5ffd5b8135611f288161283b565b5f823561015e19833603018112613020575f5ffd5b5f6001820161306b5761306b612c0a565b5060010190565b602080825282518282018190525f918401906040840190835b81811015612b765783518051600481106130a7576130a7612c4f565b84526020818101516001600160a01b0390811682870152604080840151908701526060808401518216908701526080928301511691850191909152939093019260a09092019160010161308b565b5f5f8335601e1984360301811261310a575f5ffd5b8301803591506001600160401b03821115613123575f5ffd5b6020019150368190038213156125fb575f5ffd5b5f60208284031215613147575f5ffd5b813563ffffffff81168114611f28575f5ffd5b634e487b7160e01b5f52601260045260245ffd5b5f8261317c5761317c61315a565b500490565b5f8261318f5761318f61315a565b500690565b8082018082111561071d5761071d612c0a565b5f5f858511156131b5575f5ffd5b838611156131c1575f5ffd5b5050820193919092039150565b838152604060208201525f612271604083018486612b90565b5f602082840312156131f7575f5ffd5b81516001600160e01b031981168114611f28575f5ffdfea07a543ab8a018198e99ca0184c93fe9050a79400a0a723441f84de1d972cc175a28e9363bb942b639270062aa6bb295f434bcdfc42c97267bf003f272060dc9f59c009283ff87aa78203fc4d9c2df025ee851130fb69cc3e068941f6b5e2d6ff3b277728b3fee749481eb3e0b3b48980dbbab78658fc419025cb16eee34677540338ce1a7c49204f0099533b1e9a7ee0a3d261f84974ab7af36105b8c4e9db44ac99ace14ee0a5ef932dc609df0943ab7ac16b7583634612f8dc35a4289a6cea2646970667358221220433015bd45bb1eaeb3b8ada14867417d8275015cb7c28aa1c9c7205f25b2b63964736f6c634300081c003360c060405234801561000f575f5ffd5b5060405161104e38038061104e83398101604081905261002e91610043565b336080526001600160a01b031660a052610070565b5f60208284031215610053575f5ffd5b81516001600160a01b0381168114610069575f5ffd5b9392505050565b60805160a051610faa6100a45f395f818160e00152818161017201526101fa01525f8181608301526101b00152610faa5ff3fe608060405234801561000f575f5ffd5b5060043610610034575f3560e01c80634817a286146100385780637d10d11f14610061575b5f5ffd5b61004b6100463660046109ef565b610076565b6040516100589190610afd565b60405180910390f35b61007461006f366004610b16565b6101a5565b005b6060336001600160a01b037f000000000000000000000000000000000000000000000000000000000000000016146100c95760405162461bcd60e51b81526004016100c090610b85565b60405180910390fd5b60405163945bcec960e01b81526001600160a01b037f0000000000000000000000000000000000000000000000000000000000000000169063945bcec990610121908c908c908c908c908c908c908c90600401610c25565b5f604051808303815f875af115801561013c573d5f5f3e3d5ffd5b505050506040513d5f823e601f3d908101601f191682016040526101639190810190610d8e565b90506101996001600160a01b037f0000000000000000000000000000000000000000000000000000000000000000168333610226565b98975050505050505050565b336001600160a01b037f000000000000000000000000000000000000000000000000000000000000000016146101ed5760405162461bcd60e51b81526004016100c090610b85565b6102226001600160a01b037f000000000000000000000000000000000000000000000000000000000000000016838333610408565b5050565b73eeeeeeeeeeeeeeeeeeeeeeeeeeeeeeeeeeeeeeee61024b6040840160208501610e1e565b6001600160a01b0316036102715760405162461bcd60e51b81526004016100c090610e39565b5f516020610f355f395f51905f528260600135036102c4576102bf6102996020840184610e1e565b82604085018035906102ae9060208801610e1e565b6001600160a01b031692919061064c565b505050565b6040805160018082528183019092525f91816020015b6102e261078a565b8152602001906001900390816102da5790505090505f815f8151811061030a5761030a610e6e565b602002602001015190505f516020610f555f395f51905f52846060013514610333576002610336565b60035b8190600381111561034957610349610bb0565b9081600381111561035c5761035c610bb0565b90525061036f6040850160208601610e1e565b6001600160a01b03166020808301919091526040808601359083015261039790850185610e1e565b6001600160a01b03908116606083015283811660808301526040516303a38fa160e21b815290861690630e8e3e84906103d4908590600401610e82565b5f604051808303815f87803b1580156103eb575f5ffd5b505af11580156103fd573d5f5f3e3d5ffd5b505050505050505050565b5f826001600160401b03811115610421576104216107ff565b60405190808252806020026020018201604052801561045a57816020015b61044761078a565b81526020019060019003908161043f5790505b5090505f805b848110156105e0573686868381811061047b5761047b610e6e565b60800291909101915073eeeeeeeeeeeeeeeeeeeeeeeeeeeeeeeeeeeeeeee90506104ab6040830160208401610e1e565b6001600160a01b0316036104d15760405162461bcd60e51b81526004016100c090610e39565b5f516020610f355f395f51905f528160600135036105135761050e6104f96020830183610e1e565b86604084018035906102ae9060208701610e1e565b6105d7565b5f848461051f81610f10565b95508151811061053157610531610e6e565b602002602001015190505f516020610f555f395f51905f5282606001351461055a57600161055d565b60035b8190600381111561057057610570610bb0565b9081600381111561058357610583610bb0565b9052506105966040830160208401610e1e565b6001600160a01b0316602080830191909152604080840135908301526105be90830183610e1e565b6001600160a01b03908116606083015286166080909101525b50600101610460565b508015610644578082526040516303a38fa160e21b81526001600160a01b03871690630e8e3e8490610616908590600401610e82565b5f604051808303815f87803b15801561062d575f5ffd5b505af115801561063f573d5f5f3e3d5ffd5b505050505b505050505050565b6040516323b872dd60e01b8082526001600160a01b0385811660048401528416602483015260448201839052905f80606483828a5af161068e573d5f5f3e3d5ffd5b50610698856106e7565b6106e05760405162461bcd60e51b8152602060048201526019602482015278475076323a206661696c6564207472616e7366657246726f6d60381b60448201526064016100c0565b5050505050565b5f610709565b62461bcd60e51b5f52602060045280602452508060445260645ffd5b3d80156107485760208114610779576107437f475076323a206d616c666f726d6564207472616e7366657220726573756c7400601f6106ed565b610784565b823b610770576107707311d41d8c8e881b9bdd08184818dbdb9d1c9858dd60621b60146106ed565b60019150610784565b3d5f5f3e5f51151591505b50919050565b6040805160a08101909152805f81525f60208201819052604082018190526060820181905260809091015290565b5f5f83601f8401126107c8575f5ffd5b5081356001600160401b038111156107de575f5ffd5b6020830191508360208260051b85010111156107f8575f5ffd5b9250929050565b634e487b7160e01b5f52604160045260245ffd5b604051601f8201601f191681016001600160401b038111828210171561083b5761083b6107ff565b604052919050565b5f6001600160401b0382111561085b5761085b6107ff565b5060051b60200190565b6001600160a01b0381168114610879575f5ffd5b50565b5f82601f83011261088b575f5ffd5b813561089e61089982610843565b610813565b8082825260208201915060208360051b8601019250858311156108bf575f5ffd5b602085015b838110156108e55780356108d781610865565b8352602092830192016108c4565b5095945050505050565b803580151581146108fe575f5ffd5b919050565b5f60808284031215610913575f5ffd5b604051608081016001600160401b0381118282101715610935576109356107ff565b604052905080823561094681610865565b8152610954602084016108ef565b6020820152604083013561096781610865565b6040820152610978606084016108ef565b60608201525092915050565b5f82601f830112610993575f5ffd5b81356109a161089982610843565b8082825260208201915060208360051b8601019250858311156109c2575f5ffd5b602085015b838110156108e55780358352602092830192016109c7565b5f60808284031215610784575f5ffd5b5f5f5f5f5f5f5f5f6101a0898b031215610a07575f5ffd5b883560028110610a15575f5ffd5b975060208901356001600160401b03811115610a2f575f5ffd5b610a3b8b828c016107b8565b90985096505060408901356001600160401b03811115610a59575f5ffd5b610a658b828c0161087c565b955050610a758a60608b01610903565b935060e08901356001600160401b03811115610a8f575f5ffd5b610a9b8b828c01610984565b9350506101008901359150610ab48a6101208b016109df565b90509295985092959890939650565b5f8151808452602084019350602083015f5b82811015610af3578151865260209586019590910190600101610ad5565b5093949350505050565b602081525f610b0f6020830184610ac3565b9392505050565b5f5f60208385031215610b27575f5ffd5b82356001600160401b03811115610b3c575f5ffd5b8301601f81018513610b4c575f5ffd5b80356001600160401b03811115610b61575f5ffd5b8560208260071b8401011115610b75575f5ffd5b6020919091019590945092505050565b60208082526011908201527023a83b191d103737ba1031b932b0ba37b960791b604082015260600190565b634e487b7160e01b5f52602160045260245ffd5b81835281816020850137505f828201602090810191909152601f909101601f19169091010190565b5f8151808452602084019350602083015f5b82811015610af35781516001600160a01b0316865260209586019590910190600101610bfe565b5f610120820160028a10610c3b57610c3b610bb0565b8983526101206020840152879052610140600588901b83018101908301895f609e1936839003015b8b821015610d155786850361013f190184528235818112610c82575f5ffd5b8d0180358652602080820135908701526040808201359087015260608082013590870152608081013536829003601e19018112610cbd575f5ffd5b016020810190356001600160401b03811115610cd7575f5ffd5b803603821315610ce5575f5ffd5b60a06080880152610cfa60a088018284610bc4565b96505050602083019250602084019350600182019150610c63565b505050508281036040840152610d2b8188610bec565b86516001600160a01b03908116606086810191909152602089015115156080870152604089015190911660a0860152870151151560c0850152905082810360e0840152610d788186610ac3565b9150508261010083015298975050505050505050565b5f60208284031215610d9e575f5ffd5b81516001600160401b03811115610db3575f5ffd5b8201601f81018413610dc3575f5ffd5b8051610dd161089982610843565b8082825260208201915060208360051b850101925086831115610df2575f5ffd5b6020840193505b82841015610e14578351825260209384019390910190610df9565b9695505050505050565b5f60208284031215610e2e575f5ffd5b8135610b0f81610865565b6020808252818101527f475076323a2063616e6e6f74207472616e73666572206e617469766520455448604082015260600190565b634e487b7160e01b5f52603260045260245ffd5b602080825282518282018190525f918401906040840190835b81811015610f05578351805160048110610eb757610eb7610bb0565b84526020818101516001600160a01b0390811682870152604080840151908701526060808401518216908701526080928301511691850191909152939093019260a090920191600101610e9b565b509095945050505050565b5f60018201610f2d57634e487b7160e01b5f52601160045260245ffd5b506001019056fe5a28e9363bb942b639270062aa6bb295f434bcdfc42c97267bf003f272060dc9abee3b73373acd583a130924aad6dc38cfdc44ba0555ba94ce2ff63980ea0632a264697066735822122066e624c98072239ca28893e6d493e32a9f1875d7d8ef665481e24197a2fd12a364736f6c634300081c0033","linkReferences":{}},"methodIdentifiers":{"authenticator()":"2335c76b","domainSeparator()":"f698da25","filledAmount(bytes)":"2479fb6e","freeFilledAmountStorage(bytes[])":"ed9f35ce","freePreSignatureStorage(bytes[])":"a2a7d51b","getStorageAt(uint256,uint256)":"5624b25b","invalidateOrder(bytes)":"15337bc0","preSignature(bytes)":"d08d33d1","setPreSignature(bytes,bool)":"ec6cb13f","settle(address[],uint256[],(uint256,uint256,address,uint256,uint256,uint32,bytes32,uint256,uint256,uint256,bytes)[],(address,uint256,bytes)[][3])":"13d79a0b","simulateDelegatecall(address,bytes)":"f84436bd","simulateDelegatecallInternal(address,bytes)":"43218e19","swap((bytes32,uint256,uint256,uint256,bytes)[],address[],(uint256,uint256,address,uint256,uint256,uint32,bytes32,uint256,uint256,uint256,bytes))":"845a101f","vault()":"fbfa77cf","vaultRelayer()":"9b552cc2"},"id":1}