{"abi":[{"type":"function","name":"allowance","inputs":[{"name":"","type":"address","internalType":"address"},{"name":"","type":"address","internalType":"address"}],"outputs":[{"name":"","type":"uint256","internalType":"uint256"}],"stateMutability":"view"},{"type":"function","name":"approve","inputs":[{"name":"spender","type":"address","internalType":"address"},{"name":"amount","type":"uint256","internalType":"uint256"}],"outputs":[],"stateMutability":"nonpayable"},{"type":"function","name":"balanceOf","inputs":[{"name":"","type":"address","internalType":"address"}],"outputs":[{"name":"","type":"uint256","internalType":"uint256"}],"stateMutability":"view"},{"type":"function","name":"mint","inputs":[{"name":"to","type":"address","internalType":"address"},{"name":"amount","type":"uint256","internalType":"uint256"}],"outputs":[],"stateMutability":"nonpayable"},{"type":"function","name":"transfer","inputs":[{"name":"to","type":"address","internalType":"address"},{"name":"amount","type":"uint256","internalType":"uint256"}],"outputs":[{"name":"","type":"uint256","internalType":"uint256"}],"stateMutability":"nonpayable"},{"type":"function","name":"transferFrom","inputs":[{"name":"from","type":"address","internalType":"address"},{"name":"to","type":"address","internalType":"address"},{"name":"amount","type":"uint256","internalType":"uint256"}],"outputs":[{"name":"","type":"uint256","internalType":"uint256"}],"stateMutability":"nonpayable"}],"bytecode":{"object":"0x6080604052348015600e575f5ffd5b506104918061001c5f395ff3fe608060405234801561000f575f5ffd5b5060043610610060575f3560e01c8063095ea7b31461006457806323b872dd1461009d57806340c10f19146100c257806370a08231146100d5578063a9059cbb146100f4578063dd62ed3e14610107575b5f5ffd5b61009b610072366004610375565b335f9081526001602090815260408083206001600160a01b039590951683529390529190912055565b005b6100b06100ab36600461039d565b610131565b60405190815260200160405180910390f35b61009b6100d0366004610375565b610148565b6100b06100e33660046103d7565b5f6020819052908152604090205481565b6100b0610102366004610375565b610189565b6100b06101153660046103f0565b600160209081525f928352604080842090915290825290205481565b5f61013d84848461019f565b5060bc199392505050565b6001600160a01b0382165f9081526020819052604090205461016a9082610253565b6001600160a01b039092165f9081526020819052604090209190915550565b5f61019483836102bb565b5060bc195b92915050565b6001600160a01b0383165f9081526001602090815260408083203384529091529020546101cc90826102ff565b6001600160a01b0384165f81815260016020908152604080832033845282528083209490945591815290819052205461020590826102ff565b6001600160a01b038085165f9081526020819052604080822093909355908416815220546102339082610253565b6001600160a01b039092165f908152602081905260409020919091555050565b5f8061025f8385610435565b9050838110156102b45760405162461bcd60e51b815260206004820152601b60248201527a536166654d6174683a206164646974696f6e206f766572666c6f7760281b60448201526064015b60405180910390fd5b9392505050565b335f908152602081905260409020546102d490826102ff565b335f90815260208190526040808220929092556001600160a01b0384168152205461016a9082610253565b5f828211156103505760405162461bcd60e51b815260206004820152601e60248201527f536166654d6174683a207375627472616374696f6e206f766572666c6f77000060448201526064016102ab565b6102b48284610448565b80356001600160a01b0381168114610370575f5ffd5b919050565b5f5f60408385031215610386575f5ffd5b61038f8361035a565b946020939093013593505050565b5f5f5f606084860312156103af575f5ffd5b6103b88461035a565b92506103c66020850161035a565b929592945050506040919091013590565b5f602082840312156103e7575f5ffd5b6102b48261035a565b5f5f60408385031215610401575f5ffd5b61040a8361035a565b91506104186020840161035a565b90509250929050565b634e487b7160e01b5f52601160045260245ffd5b8082018082111561019957610199610421565b818103818111156101995761019961042156fea26469706673582212200004c5ba165aea3dc87b8e1b1b0e1bef065100b976795bc83e8b7ffcd732b89964736f6c634300081c0033","linkReferences":{}},"methodIdentifiers":{"allowance(address,address)":"dd62ed3e","approve(address,uint256)":"095ea7b3","balanceOf(address)":"70a08231","mint(address,uint256)":"40c10f19","transfer(address,uint256)":"a9059cbb","transferFrom(address,address,uint256)":"23b872dd"},"id":91}