{"abi":[{"type":"function","name":"addSolver","inputs":[{"name":"solver","type":"address","internalType":"address"}],"outputs":[],"stateMutability":"nonpayable"},{"type":"function","name":"getStorageAt","inputs":[{"name":"offset","type":"uint256","internalType":"uint256"},{"name":"length","type":"uint256","internalType":"uint256"}],"outputs":[{"name":"","type":"bytes","internalType":"bytes"}],"stateMutability":"view"},{"type":"function","name":"initializeManager","inputs":[{"name":"manager_","type":"address","internalType":"address"}],"outputs":[],"stateMutability":"nonpayable"},{"type":"function","name":"isSolver","inputs":[{"name":"prospectiveSolver","type":"address","internalType":"address"}],"outputs":[{"name":"","type":"bool","internalType":"bool"}],"stateMutability":"view"},{"type":"function","name":"manager","inputs":[],"outputs":[{"name":"","type":"address","internalType":"address"}],"stateMutability":"view"},{"type":"function","name":"newMethod","inputs":[],"outputs":[{"name":"","type":"uint256","internalType":"uint256"}],"stateMutability":"pure"},{"type":"function","name":"removeSolver","inputs":[{"name":"solver","type":"address","internalType":"address"}],"outputs":[],"stateMutability":"nonpayable"},{"type":"function","name":"setManager","inputs":[{"name":"manager_","type":"address","internalType":"address"}],"outputs":[],"stateMutability":"nonpayable"},{"type":"function","name":"simulateDelegatecall","inputs":[{"name":"targetContract","type":"address","internalType":"address"},{"name":"calldataPayload","type":"bytes","internalType":"bytes"}],"outputs":[{"name":"response","type":"bytes","internalType":"bytes"}],"stateMutability":"nonpayable"},{"type":"function","name":"simulateDelegatecallInternal","inputs":[{"name":"targetContract","type":"address","internalType":"address"},{"name":"calldataPayload","type":"bytes","internalType":"bytes"}],"outputs":[{"name":"response","type":"bytes","internalType":"bytes"}],"stateMutability":"nonpayable"},{"type":"event","name":"ManagerChanged","inputs":[{"name":"newManager","type":"address","indexed":false,"internalType":"address"},{"name":"oldManager","type":"address","indexed":false,"internalType":"address"}],"anonymous":false},{"type":"event","name":"SolverAdded","inputs":[{"name":"solver","type":"address","indexed":false,"internalType":"address"}],"anonymous":false},{"type":"event","name":"SolverRemoved","inputs":[{"name":"solver","type":"address","indexed":false,"internalType":"address"}],"anonymous":false}],"bytecode":{"object":"0x6080604052348015600e575f5ffd5b506109858061001c5f395ff3fe608060405234801561000f575f5ffd5b506004361061008c575f3560e01c806302cc250d146100905780633b076dbc146100d057806343218e19146100e0578063481c6a75146101005780635624b25b146101255780637f7120fe146101385780638fd57b921461014d578063d0ebdbe714610160578063ec58f4b814610173578063f84436bd14610186575b5f5ffd5b6100bb61009e3660046106be565b6001600160a01b03165f9081526001602052604090205460ff1690565b60405190151581526020015b60405180910390f35b60405161053981526020016100c7565b6100f36100ee3660046106f2565b610199565b6040516100c791906107e1565b5f54610118906201000090046001600160a01b031681565b6040516100c791906107f3565b6100f3610133366004610807565b61022a565b61014b6101463660046106be565b6102a5565b005b61014b61015b3660046106be565b610390565b61014b61016e3660046106be565b610419565b61014b6101813660046106be565b610500565b6100f36101943660046106f2565b610583565b60605f836001600160a01b0316836040516101b4919061083e565b5f60405180830381855af49150503d805f81146101ec576040519150601f19603f3d011682016040523d82523d5f602084013e6101f1565b606091505b506040519093509091506102239061020f9084908490602001610849565b60405160208183030381529060405261069b565b5092915050565b60605f61023883602061087a565b6001600160401b0381111561024f5761024f6106de565b6040519080825280601f01601f191660200182016040528015610279576020820181803683370190505b5090505f5b8381101561029b578481015460208083028401015260010161027e565b5090505b92915050565b5f54610100900460ff16806102b95750303b155b806102c657505f5460ff16155b6103145760405162461bcd60e51b815260206004820152601a602482015279125b9a5d1a585b1a5e98589b194e881a5b9a5d1a585b1a5e995960321b60448201526064015b60405180910390fd5b5f54610100900460ff16158015610334575f805461ffff19166101011790555b5f805462010000600160b01b031916620100006001600160a01b038516021781556040515f5160206109305f395f51905f529161037391859190610891565b60405180910390a1801561038c575f805461ff00191690555b5050565b5f546201000090046001600160a01b031633146103bf5760405162461bcd60e51b815260040161030b906108ab565b6001600160a01b0381165f9081526001602052604090819020805460ff19169055517f640e18a2587e1d83e4fdabf70257d0a800ca4b2c1aaad1dfc485a4ad8bbbd6c69061040e9083906107f3565b60405180910390a150565b5f546201000090046001600160a01b031633148061046657503361045b7fb53127684a568b3173ae13b9f8a6016e243e63b6e8ee1178d6a717850b5d61035490565b6001600160a01b0316145b6104a95760405162461bcd60e51b815260206004820152601460248201527311d41d8c8e881b9bdd08185d5d1a1bdc9a5e995960621b604482015260640161030b565b5f80546001600160a01b038381166201000090810262010000600160b01b03198416179093556040519290910416905f5160206109305f395f51905f52906104f49084908490610891565b60405180910390a15050565b5f546201000090046001600160a01b0316331461052f5760405162461bcd60e51b815260040161030b906108ab565b6001600160a01b0381165f90815260016020819052604091829020805460ff19169091179055517f41f9d09dd5159251f8a8e482bbe097b7c01a5e6f70c5a0ddb494906464fc9dd79061040e9083906107f3565b60605f6343218e1960e01b84846040516024016105a19291906108dd565b60408051601f198184030181529181526020820180516001600160e01b03166001600160e01b031990941693909317909252905190915030906105e590839061083e565b5f604051808303815f865af19150503d805f811461061e576040519150601f19603f3d011682016040523d82523d5f602084013e610623565b606091505b509050809250505f826001845161063a9190610908565b8151811061064a5761064a61091b565b602001015160f81c60f81b6001600160f81b031916600160f81b14905061067d83600185516106799190610908565b9052565b801561068a57505061029f565b6106938361069b565b505092915050565b805160208201fd5b80356001600160a01b03811681146106b9575f5ffd5b919050565b5f602082840312156106ce575f5ffd5b6106d7826106a3565b9392505050565b634e487b7160e01b5f52604160045260245ffd5b5f5f60408385031215610703575f5ffd5b61070c836106a3565b915060208301356001600160401b03811115610726575f5ffd5b8301601f81018513610736575f5ffd5b80356001600160401b0381111561074f5761074f6106de565b604051601f8201601f19908116603f011681016001600160401b038111828210171561077d5761077d6106de565b604052818152828201602001871015610794575f5ffd5b816020840160208301375f602083830101528093505050509250929050565b5f81518084528060208401602086015e5f602082860101526020601f19601f83011685010191505092915050565b602081525f6106d760208301846107b3565b6001600160a01b0391909116815260200190565b5f5f60408385031215610818575f5ffd5b50508035926020909101359150565b5f81518060208401855e5f93019283525090919050565b5f6106d78284610827565b5f6108548285610827565b92151560f81b83525050600101919050565b634e487b7160e01b5f52601160045260245ffd5b808202811582820484141761029f5761029f610866565b6001600160a01b0392831681529116602082015260400190565b60208082526018908201527723a83b191d1031b0b63632b9103737ba1036b0b730b3b2b960411b604082015260600190565b6001600160a01b03831681526040602082018190525f90610900908301846107b3565b949350505050565b8181038181111561029f5761029f610866565b634e487b7160e01b5f52603260045260245ffdfe605c2dbf762e5f7d60a546d42e7205dcb1b011ebc62a61736a57c9089d3a4350a26469706673582212204a8e97ed3620a130c8aeea392f6cb60c5cb660243fd57c24800385805880729864736f6c634300081c0033","linkReferences":{}},"methodIdentifiers":{"addSolver(address)":"ec58f4b8","getStorageAt(uint256,uint256)":"5624b25b","initializeManager(address)":"7f7120fe","isSolver(address)":"02cc250d","manager()":"481c6a75","newMethod()":"3b076dbc","removeSolver(address)":"8fd57b92","setManager(address)":"d0ebdbe7","simulateDelegatecall(address,bytes)":"f84436bd","simulateDelegatecallInternal(address,bytes)":"43218e19"},"id":90}