{"abi":[{"type":"function","name":"extractFlagsStructuredTest","inputs":[{"name":"flags","type":"uint256","internalType":"uint256"}],"outputs":[{"name":"","type":"tuple","internalType":"struct Trade.Flags","components":[{"name":"flags","type":"tuple","internalType":"struct Order.Flags","components":[{"name":"kind","type":"bytes32","internalType":"bytes32"},{"name":"sellTokenBalance","type":"bytes32","internalType":"bytes32"},{"name":"buyTokenBalance","type":"bytes32","internalType":"bytes32"},{"name":"partiallyFillable","type":"bool","internalType":"bool"}]},{"name":"signingScheme","type":"uint8","internalType":"enum GPv2Signing.Scheme"}]}],"stateMutability":"pure"},{"type":"function","name":"extractOrderTest","inputs":[{"name":"tokens","type":"address[]","internalType":"contract IERC20[]"},{"name":"trade","type":"tuple","internalType":"struct GPv2Trade.Data","components":[{"name":"sellTokenIndex","type":"uint256","internalType":"uint256"},{"name":"buyTokenIndex","type":"uint256","internalType":"uint256"},{"name":"receiver","type":"address","internalType":"address"},{"name":"sellAmount","type":"uint256","internalType":"uint256"},{"name":"buyAmount","type":"uint256","internalType":"uint256"},{"name":"validTo","type":"uint32","internalType":"uint32"},{"name":"appData","type":"bytes32","internalType":"bytes32"},{"name":"feeAmount","type":"uint256","internalType":"uint256"},{"name":"flags","type":"uint256","internalType":"uint256"},{"name":"executedAmount","type":"uint256","internalType":"uint256"},{"name":"signature","type":"bytes","internalType":"bytes"}]}],"outputs":[{"name":"order","type":"tuple","internalType":"struct GPv2Order.Data","components":[{"name":"sellToken","type":"address","internalType":"contract IERC20"},{"name":"buyToken","type":"address","internalType":"contract IERC20"},{"name":"receiver","type":"address","internalType":"address"},{"name":"sellAmount","type":"uint256","internalType":"uint256"},{"name":"buyAmount","type":"uint256","internalType":"uint256"},{"name":"validTo","type":"uint32","internalType":"uint32"},{"name":"appData","type":"bytes32","internalType":"bytes32"},{"name":"feeAmount","type":"uint256","internalType":"uint256"},{"name":"kind","type":"bytes32","internalType":"bytes32"},{"name":"partiallyFillable","type":"bool","internalType":"bool"},{"name":"sellTokenBalance","type":"bytes32","internalType":"bytes32"},{"name":"buyTokenBalance","type":"bytes32","internalType":"bytes32"}]}],"stateMutability":"pure"}],"bytecode":{"object":"0x6080604052348015600e575f5ffd5b506106a98061001c5f395ff3fe608060405234801561000f575f5ffd5b5060043610610034575f3560e01c806318dc98f514610038578063f3ae5afc14610061575b5f5ffd5b61004b6100463660046103e1565b610081565b6040516100589190610483565b60405180910390f35b61007461006f36600461053c565b610110565b6040516100589190610567565b6100fc6040518061018001604052805f6001600160a01b031681526020015f6001600160a01b031681526020015f6001600160a01b031681526020015f81526020015f81526020015f63ffffffff1681526020015f81526020015f81526020015f81526020015f151581526020015f81526020015f81525090565b610108828585846101ae565b509392505050565b6040805160c0810182525f918101828152606082018390526080820183905260a08201839052815260208101829052908080808061014d876102b4565b945094509450945094505f6040518060800160405280878152602001858152602001848152602001861515815250905060405180604001604052808281526020018360038111156101a0576101a0610553565b905298975050505050505050565b5f838386358181106101c2576101c26105c3565b90506020020160208101906101d791906105ee565b6001600160a01b03168252838360208701358181106101f8576101f86105c3565b905060200201602081019061020d91906105ee565b6001600160a01b0316602083015261022b60608601604087016105ee565b6001600160a01b03166040830152606080860135908301526080808601359083015261025d60c0860160a08701610610565b63ffffffff1660a083015260c0808601359083015260e0808601359083015261028a6101008601356102b4565b61016087019190915261014086019190915290151561012085015261010090930152509392505050565b5f5f5f5f5f856001165f036102eb577ff3b277728b3fee749481eb3e0b3b48980dbbab78658fc419025cb16eee346775945061030f565b7f6ed88e868af0a1983e3886d5f3e95a2fafbd6c3450bc229e27342283dc429ccc94505b6002861615159350600886165f03610336575f5160206106345f395f51905f529250610379565b856004165f03610368577fabee3b73373acd583a130924aad6dc38cfdc44ba0555ba94ce2ff63980ea06329250610379565b5f5160206106545f395f51905f5292505b856010165f03610398575f5160206106345f395f51905f5291506103a9565b5f5160206106545f395f51905f5291505b600586901c60038111156103bf576103bf610553565b905091939590929450565b5f61016082840312156103db575f5ffd5b50919050565b5f5f5f604084860312156103f3575f5ffd5b83356001600160401b03811115610408575f5ffd5b8401601f81018613610418575f5ffd5b80356001600160401b0381111561042d575f5ffd5b8660208260051b8401011115610441575f5ffd5b6020918201945092508401356001600160401b03811115610460575f5ffd5b61046c868287016103ca565b9150509250925092565b6001600160a01b03169052565b5f61018082019050610496828451610476565b60208301516104a86020840182610476565b5060408301516104bb6040840182610476565b50606083015160608301526080830151608083015260a08301516104e760a084018263ffffffff169052565b5060c083015160c083015260e083015160e083015261010083015161010083015261012083015161051d61012084018215159052565b5061014083015161014083015261016083015161016083015292915050565b5f6020828403121561054c575f5ffd5b5035919050565b634e487b7160e01b5f52602160045260245ffd5b5f60a0820190508251805183526020810151602084015260408101516040840152606081015115156060840152506020830151600481106105b657634e487b7160e01b5f52602160045260245ffd5b8060808401525092915050565b634e487b7160e01b5f52603260045260245ffd5b6001600160a01b03811681146105eb575f5ffd5b50565b5f602082840312156105fe575f5ffd5b8135610609816105d7565b9392505050565b5f60208284031215610620575f5ffd5b813563ffffffff81168114610609575f5ffdfe5a28e9363bb942b639270062aa6bb295f434bcdfc42c97267bf003f272060dc94ac99ace14ee0a5ef932dc609df0943ab7ac16b7583634612f8dc35a4289a6cea264697066735822122019bf56fd9d6b955e497a22d8d5e7fe6c37d5a7ae8b5382e623c84ade05d82db664736f6c634300081c0033","linkReferences":{}},"methodIdentifiers":{"extractFlagsStructuredTest(uint256)":"f3ae5afc","extractOrderTest(address[],(uint256,uint256,address,uint256,uint256,uint32,bytes32,uint256,uint256,uint256,bytes))":"18dc98f5"},"id":63}